:100000000C946F000C948E000C948E000C948E0057
:100010000C948E000C948E000C948E000C948E0028
:100020000C948E000C948E000C948E000C948E0018
:100030000C94B0000C948E000C948E000C948E00E6
:100040000C948E000C948E000C94FB100C948E007B
:100050000C948E000C948E000C948E000C948E00E8
:100060000C948E000C948E000C948E000C948E00D8
:100070000C948E000C948E000C948E000C948E00C8
:100080000C948E000C948E000C948E00350C3C0C5D
:10009000A60CB30CBC0CCE0CEF0C0D0D330C3E0DAE
:1000A000450D7C0DFB0DFB0DE40DF90DFB0DFB0D5E
:1000B000FB0DFB0DFB0DFB0DA70DB00DFB0DFB0D9F
:1000C000FB0DFB0DFB0DFB0DFB0DFB0DFB0DFB0DF0
:1000D000FB0DFB0D1A0D580DFB0DFB0D850D1124AD
:1000E0001FBECFEFD0E1DEBFCDBF17E0A0E0B1E093
:1000F000E2E5F3E400E00BBF02C007900D92A03DE3
:10010000B107D9F71EE0A0EDB7E001C01D92A534FC
:10011000B107E1F70E940F0E0C94A7210C94A100E7
:100120008FB7F8942091D0073091D1078FBFC901C4
:10013000089525E030E040E050E00E94A81DC9018C
:1001400008951F920F920FB60F9211248F9381E0A2
:100150008093D2078F910F900FBE0F901F9018952C
:100160001F920F920FB60F9211248F939F9380913D
:10017000D0079091D10701969093D1078093D00733
:1001800080E186BF9F918F910F900FBE0F901F90BF
:1001900018951DBC1CBC80E090E99BBD8ABD89E020
:1001A0008EBD80E187BF86BF0895809169028F7EF2
:1001B0008093690208958091690280618093690249
:1001C0000895809169028F7D8093690208958091DE
:1001D00069028062809369020895EF92FF920F9303
:1001E0001F938091D3079091D40785329105C9F070
:1001F000863291051CF4019749F508C083339105B7
:1002000019F0C59719F51EC081E021C080E198E082
:1002100060E071E043ED57E025E230E00E9402101B
:1002200015C0809110089091110869E071E040EDCF
:1002300057E023ED37E003E310E0EE24FF240E94B3
:100240004C1004C01092D4071092D30780E01F9185
:100250000F91FF90EF9008950F931F938091550297
:10026000909156028130910519F0859791F509C05A
:100270000E9490009093C1088093C00885E290E0AE
:1002800024C00E9490002091C0083091C1088C01C8
:10029000021B130B68E873E180E090E00E94990074
:1002A00080179107B0F481E29DE00E9408158091CB
:1002B000210D882341F081E29DE00E94D60E86E167
:1002C00091E00E94D60E81E090E0909356028093D8
:1002D00055021F910F9108950F931F9380E090E0B6
:1002E0000E94EA158091CE0D9091CF0D892B31F4AB
:1002F00081E090E09093CF0D8093CE0D81E090E06F
:100300000E94EA1580910E0E90910F0E892B31F408
:1003100081E090E090930F0E80930E0E8091EC0799
:100320008823D9F58091D40D8823D1F08091FA0DDE
:10033000813051F481E08093EC070E94900090930B
:10034000BF088093BE080CC08091000E813091F3ED
:100350008091D90D813071F38091DA0D813051F3A4
:100360008091140E8823C9F080913A0E813061F09B
:100370008091400E813041F08091190E813021F042
:1003800080911A0E813049F481E08093EC070E943D
:1003900090009093BF088093BE088091EC0788235B
:1003A00009F44AC00E9490002091BE083091BF0815
:1003B0008C01021B130B60ED77E080E090E00E945F
:1003C000990008171907C0F181E29DE00E94081505
:1003D0001092FA0D1092000E1092D90D1092DA0DB3
:1003E00010923A0E1092400E1092190E10921A0EA0
:1003F0000E94E80F882361F487E0809381098FEFE2
:10040000809382098BEE98E061E27DE00E94351EC8
:1004100081E090E09093F7078093F6070E94E80F41
:10042000882341F081E29DE00E94D60E86E191E0B2
:100430000E94D60E1092EC071F910F910895CF9253
:10044000DF92EF92FF920F931F93CF93DF937C0184
:1004500006E010E086E2C82ED12C0C9DE0010D9D37
:10046000D00D1C9DD00D1124C65ED54FC701BE0115
:1004700042E250E00E944C1E009711F48CA106C08D
:100480000F5F1F4F0C30110541F780E0DF91CF91D6
:100490001F910F91FF90EF90DF90CF900895809182
:1004A0008309882309F43FC08AE79CE069E171E091
:1004B0000E94691E0097A9F082E89CE062E270E069
:1004C0000E942A1EFC01108282E89CE00E941F020A
:1004D000813049F11092E40782E291E00E94E30E3C
:1004E00022C08AE79CE068E271E00E94691E0097E2
:1004F00081F08091E407833044F082E291E00E9431
:10050000E30E81E08093E5070CC08F5F8093E407E2
:100510000AC08AE79CE06DE271E00E94691E0097C4
:1005200011F01092E40780E008950F931F9320913B
:10053000DE073091DF072115310509F406C18091EE
:10054000E0079091E1078217930709F460C01092C9
:10055000E3071092E20729303105E9F02A3031052E
:100560002CF42830310509F0F0C008C02B303105DB
:1005700069F12F30310509F0E8C03DC084EF91E00A
:100580009093FD078093FC079093FF078093FE07ED
:100590008CED95E027C084EF91E09093FD07809368
:1005A000FC079093FF078093FE07909301088093C8
:1005B00000089093030880930208909305088093A5
:1005C00004081092070810920608BFC08CED95E051
:1005D0009093FD078093FC079093FF078093FE079D
:1005E00084EF91E090930108809300081092030833
:1005F00010920208AAC01092FD071092FC0780E03A
:100600000E94E50F1092DF071092DE079EC08091D6
:100610005302909154028632910509F44BC08732FF
:1006200091053CF48130910579F0859709F08DC0F2
:1006300017C08333910591F18533910509F460C0AA
:10064000889709F082C065C081E00E94D80F0E949F
:1006500090009093FB078093FA0785E290E071C0C9
:100660000E9490002091FA073091FB078C01021B39
:10067000130BE091E207F091E307EE0FFF1FE45048
:10068000F84F6081718180E090E00E949900081726
:10069000190708F45AC083E390E053C081E00E9438
:1006A000DE0F0E9490009093FB078093FA0786E28A
:1006B00090E047C00E9490002091FA073091FB071C
:1006C0008C01021B130B64EF71E080E090E00E944C
:1006D000990008171907C8F1E091E207F091E307C4
:1006E0003196F093E307E093E207EE0FFF1FE4502B
:1006F000F84F80819181892B11F585E390E021C02D
:100700000E9490009093FB078093FA0788E290E0A4
:1007100018C00E9490002091FA073091FB078C01CD
:10072000021B130B64EF71E080E090E00E949900DF
:100730000817190750F01092E3071092E20781E0C2
:1007400090E090935402809353028091DE07909141
:10075000DF079093E1078093E00780E01F910F91FE
:100760000895EF92FF920F931F93DF93CF93CDB72E
:10077000DEB7C659D0400FB6F894DEBF0FBECDBF6E
:100780008091DC079091DD078032910509F4DBC090
:1007900081329105ACF48B31910509F44CC08C3158
:1007A000910534F4009739F1019709F031C136C051
:1007B0008C31910509F448C04F9709F029C1B6C0A2
:1007C0008532910509F44BC08632910544F482329A
:1007D000910509F4CCC0839709F01AC1CFC08832C3
:1007E000910509F4F4C08533910509F40DC186978C
:1007F00009F00EC1DAC080918109882309F408C18B
:10080000A2E1B8E0EBEEF8E088E901900D928150AA
:10081000E1F71092810981E090E008C08AE190E060
:100820009093160D8093150D8BE190E09093DD076A
:100830008093DC07EDC088EF97E06CED77E04CE14A
:1008400050E00E94EA0FE4C08091F8079091F90708
:1008500068EB7BE04CED57E025E230E071C0409161
:10086000150D5091160D403251051CF085E390E0B6
:10087000DDCF44515040B6E2EB2EF12C4E9DF001FD
:100880004F9DF00D5E9DF00D11244C5E5F4FE65EB6
:10089000F54F83A18823C9F08091A80894A18923EA
:1008A000A1F02091A908332727FD3095207F3070D3
:1008B00085A1992787FD9095A4E0880F991FAA9597
:1008C000E1F728233923232B39F44F5F5F4F5093EF
:1008D000160D4093150D9CC08E010F5F1F4FC80170
:1008E00068E371E045E950E00E945A1E8091150DC1
:1008F0009091160D44978E9DB0018F9D700D9E9D19
:10090000700D1124665E754FC80145E950E00E94E4
:100910003C1EC80162E471E00E941F1E88EF97E050
:10092000B8014CED57E02FE130E01EC08091F80790
:100930009091F90768EE73E04CED57E023E230E068
:100940000E941E1065C08E010F5F1F4FC80166E434
:1009500071E045E950E00E945A1E88EF97E0B80127
:100960004CED57E022E230E00E94021051C080912D
:10097000F8079091F90768EB7BE0DECF8E010F5FFF
:100980001F4FC80162E178E045E950E00E945A1E1D
:10099000C80169E471E00E941F1E88EF97E0B8016A
:1009A0004CED57E026E230E0DFCF8091F8079091E0
:1009B000F9076BE471E048E95AE32CED37E008E20F
:1009C00010E0F8E2EF2EF12C0E944C1021C0809133
:1009D000F8079091F90762E571E048E853E12CEDE2
:1009E00037E005E210E0E5E2EE2EF12C0E944C101B
:1009F000882371F08091150D9091160D01969093BA
:100A0000160D8093150D04C01092DD071092DC07BF
:100A100080E0CA56DF4F0FB6F894DEBF0FBECDBFE1
:100A2000CF91DF911F910F91FF90EF9008950F9359
:100A30001F930E946C010E94AE150E942C010E941F
:100A40004F028091E6079091E7078231910509F402
:100A5000A9C0833191055CF48031910599F1813110
:100A600091050CF080C00F9709F0FAC110C08431D5
:100A7000910509F482C1843191050CF434C18531AA
:100A8000910509F4B0C0469709F0EAC101C110927E
:100A9000E40783E0809381098FEF809382098BEED6
:100AA00098E065E571E00E94351E81E29DE00E94BC
:100AB00008158BEE98E061E27DE00E941F1E80E148
:100AC00090E06BC080E00E94E50F8091E5078823ED
:100AD00009F4C6C19091110D992309F48AC083E0ED
:100AE00080938109909382098BEE98E06FE571E025
:100AF0000E94351E8091110D84FF06C08BEE98E098
:100B00006FE671E00E941F1E8091110D85FF06C0E7
:100B10008BEE98E062E771E00E941F1E8091110D3C
:100B200086FF06C08BEE98E065E771E00E941F1E0D
:100B30008091110D87FF06C08BEE98E068E771E0A9
:100B40000E941F1E8BEE98E06BE771E00E941F1E53
:100B500081E29DE00E9408158BEE98E061E27DE065
:100B60000E941F1E7DC11092E40783E080938109DB
:100B70008FEF809382098BEE98E06DE771E00E9421
:100B8000351E81E29DE00E9408158BEE98E061E23F
:100B90007DE00E941F1E82E190E09093E707809322
:100BA000E6075EC182E00E94E50F8091E507882399
:100BB00031F08FE090E09093E7078093E607809113
:100BC000110D882309F44CC183E190E09093E7076D
:100BD0008093E60781E090E09093E9078093E8072F
:100BE0001092E4073DC11092E4079091110D9923F2
:100BF00019F481E190E0D1CF83E080938109909353
:100C000082098BEE98E067E871E00E94351E8091C2
:100C1000110D84FF06C08BEE98E06FE671E00E9434
:100C20001F1E8091110D85FF06C08BEE98E062E7D4
:100C300071E00E941F1E8091110D86FF06C08BEE91
:100C400098E065E771E00E941F1E8091110D87FFFB
:100C500006C08BEE98E068E771E00E941F1E8BEEE5
:100C600098E06BE771E00E941F1E0E949000909335
:100C7000B5088093B40881E29DE00E9408158BEED0
:100C800098E061E27DE00E941F1E86E190E085CF42
:100C90000E9490002091B4083091B5088C01021B8D
:100CA000130B60E27EE480E090E00E949900081758
:100CB000190788F08091110D882331F481E190E0CB
:100CC0009093E7078093E6070E9490009093B50801
:100CD0008093B408C5C08091E507882309F4C0C09B
:100CE0008FE090E0B5C01092E40787E0809381091F
:100CF0008091110D809382098BEE98E06EE971E08E
:100D00000E94351E8091110D84FF06C08BEE98E085
:100D10006FE671E00E941F1E8091110D85FF06C0D5
:100D20008BEE98E062E771E00E941F1E8091110D2A
:100D300086FF06C08BEE98E065E771E00E941F1EFB
:100D40008091110D87FF06C08BEE98E068E771E097
:100D50000E941F1E8BEE98E06BE771E00E941F1E41
:100D600081E29DE00E9408158BEE98E061E27DE053
:100D70000E941F1E84E190E010CF83E00E94E50FE7
:100D80008091E507882399F08091690280618093C2
:100D900069021092E9071092E80785E190E09093CC
:100DA000E7078093E6071092EB071092EA0780911D
:100DB000E8079091E9078130910521F0859709F0C6
:100DC0004FC012C00E9490009093B1088093B00869
:100DD000809169028F7E8093690285E290E0909312
:100DE000E9078093E8073CC06091E80870E080E084
:100DF00090E028EE33E040E050E00E94891D6093CF
:100E0000B8087093B9088093BA089093BB080E9401
:100E100090002091B0083091B1088C01021B130B97
:100E20006091B8087091B9088091BA089091BB0898
:100E30000E9499000817190798F080916902806153
:100E4000809369021092E9071092E80785E190E02B
:100E50009093E7078093E6071092EB071092EA075A
:100E60000E94B1038091110D90916902882311F0C5
:100E70009F7D01C09062909369021092E50780E027
:100E80001F910F910895EF92FF920F931F93DF939D
:100E9000CF93CDB7DEB7C659D0400FB6F894DEBFBA
:100EA0000FBECDBF8091DA079091DB078A319105A3
:100EB00009F45EC08B31910534F48130910581F0E5
:100EC0004997C1F40BC08632910509F447C08333BA
:100ED000910509F44FC0859769F42EC08AE04BC094
:100EE0008091AF0A882341F483E390E09093DB077D
:100EF0008093DA0781E03FC08E010F5F1F4FC8016A
:100F000066EA71E045E950E00E945A1EC8016CE8AB
:100F10007AE045E950E00E943C1EC80162EB71E0B6
:100F20000E941F1E82EB98E0B8014AED57E025E2CF
:100F300030E00E940210DECF8091B2089091B30899
:100F400069EB71E040E157E22AED37E006E210E09C
:100F5000E9E1EE2EF12C0E944C10CCCF8091F407E9
:100F60009091F50704970CF0BFCF8AE190E0BECFD7
:100F70008BE001C080E0CA56DF4F0FB6F894DEBFA9
:100F80000FBECDBFCF91DF911F910F91FF90EF90DA
:100F90000895EF92FF921F93DF93CF93CDB7DEB703
:100FA000C659D0400FB6F894DEBF0FBECDBF62E287
:100FB00070E00E942A1E9C010097E9F160E070E059
:100FC00010E040E050E07E010894E11CF11C21C0DB
:100FD0004139510521F480E389831A8224C0F90143
:100FE000E40FF51F9081892F80538A3040F4F70178
:100FF000E60FF71F90836F5F7F4F11E008C011303D
:1010000029F46C0F7D1FFB0111820FC010E04F5FB0
:101010005F4FF90101900020E9F73197E21BF30BD4
:101020004E175F07A8F2112331F0CE0101960E94FE
:10103000011E9C0102C020E030E0C901CA56DF4F0A
:101040000FB6F894DEBF0FBECDBFCF91DF911F91D9
:10105000FF90EF900895CF92DF92EF92FF920F935F
:101060001F93DF93CF93CDB7DEB72A970FB6F894CF
:10107000DEBF0FBECDBF6C017B01FC0101900020E3
:10108000E9F73197E81BF90BDB0116E0AA0FBB1F4C
:101090001A95E1F738976CF4FD01EF53F24F89ECA4
:1010A0009FEF908B878788EC90E0928B818B138ADF
:1010B00049C0AF53B24F81E053968C93B6016F5F36
:1010C0007F4F8E010F5F1F4FC80143E050E00E9429
:1010D0005A1E1C82C8010E94011E9C01F6018081DB
:1010E000813319F4309521953F4FF701A6E0EE0FBB
:1010F000FF1FAA95E1F7EF53F24F308B2787B60118
:101100006B5F7F4F8E010F5F1F4FC80143E050E0C0
:101110000E945A1E1C82C8010E94011E9C01F601F9
:101120008481813319F4309521953F4FF6E0EE0C20
:10113000FF1CFA95E1F781EC9DE0E80EF91EF7013E
:10114000328B218B2A960FB6F894DEBF0FBECDBF2F
:10115000CF91DF911F910F91FF90EF90DF90CF9093
:101160000895CF92DF92EF92FF920F931F93DF9338
:10117000CF93CDB7DEB72A970FB6F894DEBF0FBE78
:10118000CDBFFC0101900020E9F73197E81BF90B76
:101190003C97ECF07C0103E21BE06E010894C11C5B
:1011A000D11CC601B70142E050E00E945A1E1B82CA
:1011B000C6010E94011EF801808382E090E0E80EE3
:1011C000F91E0A5D1F4F9CE00730190751F72A9658
:1011D0000FB6F894DEBF0FBECDBFCF91DF911F9148
:1011E0000F91FF90EF90DF90CF900895CF92DF9214
:1011F000EF92FF920F931F93DF93CF93CDB7DEB79C
:101200002A970FB6F894DEBF0FBECDBFFC01019048
:101210000020E9F73197E81BF90B36972CF17C0198
:1012200002E21BE06E010894C11CD11CC601B7018B
:1012300041E050E00E945A1E1A82C6010E94011E1F
:10124000813039F0823029F0833011F484E001C01C
:1012500080E0F80180830894E11CF11C0A5D1F4FB7
:10126000FCE006301F0711F72A960FB6F894DEBF90
:101270000FBECDBFCF91DF911F910F91FF90EF90E7
:10128000DF90CF900895EF92FF920F931F93DF931B
:10129000CF93CDB7DEB72A970FB6F894DEBF0FBE57
:1012A000CDBF7C01FC0101900020E9F73197E81BDC
:1012B000F90B359734F41092E7088CE38093E80833
:1012C00029C08E010F5F1F4FC801B70143E050E0F6
:1012D0000E945A1E1C82C8010E94011E8093E808C9
:1012E0008E3118F48EE18093E80883E090E0E80EF8
:1012F000F91E8E010F5F1F4FC801B70142E050E099
:101300000E945A1E1B82C8010E94011E8295807F86
:101310008093E7082A960FB6F894DEBF0FBECDBFC4
:10132000CF91DF911F910F91FF90EF900895EF9271
:10133000FF920F931F93DF93CF93CDB7DEB7C654C1
:10134000D0400FB6F894DEBF0FBECDBF8091D70757
:101350009091D8078532910509F440C086329105F5
:101360008CF48130910549F1823091051CF4892B70
:1013700009F14DC18E31910509F446C04F9709F02E
:1013800046C14BC08333910599F08433910544F4F1
:101390008632910509F44EC0889709F038C176C0AD
:1013A0008433910509F42AC1C59709F030C129C1D8
:1013B00080E02EC11092D9072AC18CEA98E061EC36
:1013C00071E047ED57E025E230E00E94021084E131
:1013D00090E09093160D8093150D19C18091AC0883
:1013E0009091AD0862E571E040ED57E027ED37E000
:1013F0000EE110E0F4E3EF2EF12C0E944C1084304B
:1014000009F005C183E055C08CEA98E067ED77E00C
:101410004FE150E00E94EA0FFAC08091AC08909131
:10142000AD0868EE73E047ED57E026E230E00E9439
:101430001E10EDC08091150D9091160D7E0108943F
:10144000E11CF11CB7014AE050E00E94831E8E01AE
:101450000C5D1F4FC80160ED71E042E250E00E9458
:101460005A1EC801B70142E250E00E943C1EC8016A
:1014700066E471E00E941F1E8CEA98E0B80147ED17
:1014800057E028E230E00E940210C1C08091AC0811
:101490009091AD0869ED71E040ED57E027ED37E040
:1014A00006E210E0E4E3EE2EF12C0E944C108430B2
:1014B00019F48093D907ACC0813009F0A8C085E841
:1014C0009CE062E270E00E942A1EFC011082809182
:1014D000150D9091160D449726E230E0AC01429F25
:1014E000C001439F900D529F900D1124865E954F31
:1014F00065E87CE042E250E00E945A1E8091150DA2
:101500009091160D449721F48AE19AE00E944309D4
:101510008091150D9091160D459721F480E49AE085
:101520000E94F6088091150D9091160D469721F4B2
:1015300086E69AE00E94B1080091150D1091160DF3
:101540000731110581F48CE89AE061EE71E042E226
:1015500050E00E944C1E009719F41092AF0A0CC084
:1015600081E08093AF0A0831110531F482EB9AE0F3
:1015700060E070E00E942B088091150D9091160D8F
:10158000499731F488ED9AE061E070E00E942B0801
:101590000091150D1091160D0A31110504F1045139
:1015A000104086E290E0089F7001099FF00C189FA0
:1015B000F00C11240C5E1F4F8AE19AE0E80EF91E30
:1015C000C70161EE71E042E250E00E944C1E0097BC
:1015D00019F4F70113A203C081E0F70183A3C80146
:1015E00001969093160D8093150D809784F083E3F8
:1015F00090E09093D8078093D70709C08091D907CE
:1016000007C01092D9071092D8071092D70781E02F
:10161000CA5BDF4F0FB6F894DEBF0FBECDBFCF91D0
:10162000DF911F910F91FF90EF900895EF92FF923D
:101630000F931F93DF93CF93CDB7DEB7C95BD04035
:101640000FB6F894DEBF0FBECDBF8091D507909145
:10165000D6078832910509F4A8C08932910554F45F
:101660008532910529F186329105B9F1019709F08A
:10167000C7C00DC08433910509F4C4C085339105FA
:1016800009F4BAC0C39709F0BBC080E0BCC08EEAC1
:1016900098E061EC71E045ED57E025E230E00E9412
:1016A000021084E190E09093160D8093150DA8C070
:1016B0008091AE089091AF0862E571E040ED57E08F
:1016C00025ED37E006E210E0E4E3EE2EF12C0E9477
:1016D0004C10843009F094C095C08091150D909104
:1016E000160D8E010F5F1F4FB8014AE050E00E94B7
:1016F000831EB4E2EB2EF12CEC0EFD1EC70165EE4D
:1017000071E045E950E00E945A1EC701B80145E961
:1017100050E00E943C1EC7016EEE71E00E941F1E49
:101720008091150D9091160D449706E410E0809F6E
:10173000B001819F700D909F700D112463577D4FF4
:10174000C70145E950E00E943C1EC70160EF71E00F
:101750000E941F1E8091150D9091160D4497809F39
:10176000B001819F700D909F700D112466597D4FBF
:10177000C70145E950E00E943C1EC70166E471E0E4
:101780000E941F1E0E94E80F882319F0C7010E94C3
:10179000D60E8EEA98E0BE016C5D7F4F45ED57E0B6
:1017A00028E230E00E9402102BC08091AE08909198
:1017B000AF0862E571E048EB5BE025ED37E006E25B
:1017C00010E0A4E3EA2EF12C0E944C108430D1F0FA
:1017D0008130B1F48091150D9091160D0196909382
:1017E000160D8093150D80975CF083E390E0909345
:1017F000D6078093D50704C01092D6071092D5075C
:1018000081E001C084E0C754DF4F0FB6F894DEBF1B
:101810000FBECDBFCF91DF911F910F91FF90EF9041
:101820000895CF92DF92EF92FF920F931F93DF9371
:10183000CF93CDB7DEB7C456D0400FB6F894DEBF15
:101840000FBECDBFE091ED07F091EE073197E93281
:10185000F10508F0D0C1EA5BFF4FEE0FFF1F0590C6
:10186000F491E02D099414E6C7C11092EA08109291
:10187000E90882E090E004C12091F2073091F3077B
:1018800080915306909154062817390724F010923E
:10189000F3071092F207E091F207F091F307EE0FD1
:1018A000FF1FEE0FFF1FE15CF94FC080D180E28087
:1018B000F38060E078E087E090E0A70196010E9465
:1018C000A81DDA01C90101970E94A90E8DB79EB724
:1018D00008970FB6F8949EBF0FBE8DBFEDB7FEB749
:1018E00031968E010F5F1F4FADB7BEB712961C9396
:1018F0000E93119783EF91E093838283C482D58204
:10190000E682F7820E94AC1E8DB79EB708960FB68E
:10191000F8949EBF0FBE8DBFC80166E471E00E94BF
:101920001F1EC8010E94D60E8091F2079091F30706
:1019300001969093F3078093F2078AEA98E06DEEA0
:1019400077E043E050E00E94EA0F55C18091AA0879
:101950009091AB0864EF71E04DEE57E024E030E089
:101960000E941E1048C18AEA98E067EF71E04DEED0
:1019700057E025E030E030C08091AA089091AB0894
:1019800062E571E048EE53E02DEE37E006E010E04E
:10199000B2E0EB2EF12C0E944C102DC12091E908F1
:1019A0003091EA082730310534F080E00E94E50FDD
:1019B00088E090E065C084E190E0289FB001299F15
:1019C000700D389F700D11246D547A4F8AEA98E09B
:1019D0004DEE57E027E030E00E9402100CC18091EC
:1019E000AA089091AB0862E571E040ED57E02DEE5A
:1019F00037E006E010E0A6E0EA2EF12C0E944C1041
:101A0000882309F4F8C08091E9089091EA080196CA
:101A10009093EA088093E908EEC08AEA98E06CEFB8
:101A200071E04DEE57E025E230E00E94021088E0C0
:101A300090E039C08091AA089091AB0867E072E00D
:101A400040ED57E02DEE37E00AE010E0F8E0EF2E31
:101A5000F12C0E944C10882329F08091F0078F5FB1
:101A60008093F0078091F00789300CF4C4C089E0BE
:101A700090E09093EE078093ED0715C08BE090E027
:101A80009093EE078093ED07B6C081E090E09093CD
:101A9000D8078093D70786E290E09093EE07809373
:101AA000ED078BE090E09093DF078093DE07A3C003
:101AB0000E9497092091D7073091D807882399F081
:101AC0002433310509F097C01092D8071092D70738
:101AD0008CE090E09093EE078093ED0782E192E036
:101AE0000E94D60E88C02333310509F084C01092BD
:101AF000D8071092D70759C081E090E09093D6079D
:101B00008093D50789E290E0BBCF0E94160B20910D
:101B1000D5073091D607882369F02433310509F0C1
:101B20006AC00E94B00F1092D6071092D5078DE0C0
:101B300090E0A6CF2333310509F05DC00E94B00FBD
:101B40001092D6071092D5078EE090E099CF81E0F1
:101B500090E09093DB078093DA0788E190E090CFE4
:101B60000E9443078091DA079091DB078A31910543
:101B700071F083339105E1F04997E9F50E94E80F90
:101B8000882379F085E292E00E94D60E0AC00E9476
:101B9000E80F882321F08AE392E00E94D60E10928B
:101BA000B2051092DB071092DA078FE090E068CF61
:101BB0000E94E80F882321F08BE492E00E94D60E69
:101BC00081E08093B205EDCF80E190E09093E7074C
:101BD0008093E6079093EE078093ED078FE090E007
:101BE0009093DF078093DE071092F7071092F607B5
:101BF00002C00E94170510E00E949502812FCC5967
:101C0000DF4F0FB6F894DEBF0FBECDBFCF91DF918F
:101C10001F910F91FF90EF90DF90CF9008951F9349
:101C2000CF93DF93C1E0D0E011E0F8940E94C900A7
:101C3000109283091092E30B1092E20B1092130D95
:101C40001092120D0E94A10F88EE93E00E944C0F9B
:101C500082E00E94E50F0E94CE0F87E090E00E9494
:101C6000B30E8FE290E00E94A90E88EB9BE00E94E9
:101C70004C0F81E00E94E50F0E94CE0F0E94B00F32
:101C800088EB9BE00E944C0F789482E00E94E50F65
:101C90000E94CE0F0E94E80F882321F087E592E092
:101CA0000E94D60E81E692E00E94E30E0E94B614D6
:101CB000D093EE07C093ED070E94C10F0E94E80F7A
:101CC000882381F085EE98E00E94010F882351F06F
:101CD0008091E5080E948512813021F08091E5080D
:101CE0000E94BE0E8091140D8823D1F0F8948AE7EB
:101CF0009CE064EE7BE045E950E00E945A1E1092A1
:101D0000140D7894109383090E94E80F882341F002
:101D10008AE79CE00E94D60E86E692E00E94D60EEC
:101D20000E94110C843609F480CF809183098823A6
:101D300011F0109283090E94CA0F0E94CE0FBCCFEF
:101D40009093900089B988E18AB986E080939500E4
:101D500008959093900089B988E18AB986E08093CC
:101D60009500579A0895909398008093990088E180
:101D700080939A0086E080939D0008955D9BFECF3E
:101D80008CB90895982F80919B0085FFFCCF90938C
:101D90009C0008955D9BFECF8CB90895982F80918B
:101DA0009B0085FFFCCF90939C000895FC0107C029
:101DB00080919B0085FFFCCF90939C003196908191
:101DC0009923B1F70895CF93DF93EC0185E596E071
:101DD0000E94D60ECE010E94D60E04C05D9BFECF9F
:101DE0008CB9219688818823C9F7DF91CF91089516
:101DF000FC015F9902C080E008958CB1808381E08E
:101E00000895FC0180919B0087FD02C080E0089549
:101E100080919C00808381E008951F93A091190D0B
:101E2000B0911A0D20911B0D30911C0D4091170D92
:101E30005091180DE0E0F0E01AC040E050E020E0E2
:101E400030E004C0D901B695A7959B01B9016F5F39
:101E50007F4F1DEF693E7107A9F74F5F5F4F443613
:101E6000510569F7319644E650E028EE3DEFE8175A
:101E7000F90718F3B0931A0DA093190D30931C0DA8
:101E800020931B0D5093180D4093170DF0931E0DCA
:101E9000E0931D0D1F910895AF92BF92CF92DF92F4
:101EA000EF92FF920F931F93AA2797FDA095BA2F49
:101EB000BC01CD010E94E21A5B016C0126E636E608
:101EC00046EE54E40E9458197B018C0120E030E07A
:101ED00040E85FE30E94B21A88231CF461E070E0DE
:101EE00024C0C801B70120E03FEF4FE757E40E944C
:101EF000521A1816B4F4C601B50120E030E040E2F1
:101F000051E40E9458190E94821788EB90E005C0A6
:101F1000FC013197F1F76150704061157105C1F70F
:101F200007C0C801B7010E948217CB010197F1F7E2
:101F30001F910F91FF90EF90DF90CF90BF90AF90E7
:101F400008958EE1809364008FEF81BB12B81092E8
:101F5000610082E08093650080EF82BB13B8089532
:101F60008091690281608093690282BB8CED95E06B
:101F70000E944C0F809169028E7F8093690282BB20
:101F8000089581B18095807F9091E708892780939B
:101F9000110D08958091690282BB08958091100D02
:101FA000880F880F880F8160809580936500089561
:101FB0009091100D982B9093100D0895809590910D
:101FC000100D98239093100D08958093100D08958F
:101FD00081E00895CF92DF92EF92FF920F931F93CB
:101FE0008C016B017A010E949000F801918380833B
:101FF000F601F182E0821F910F91FF90EF90DF9048
:10200000CF900895CF92DF92EF92FF920F931F939C
:102010006C01CB017A0189010E94E30E0E949000BD
:10202000F60191838083F7011183008381E01F9182
:102030000F91FF90EF90DF90CF9008958F929F9235
:10204000AF92BF92CF92DF92EF92FF920F931F93C6
:10205000CF93DF938C016B014A01E9010E9490004C
:102060005C01EE24FF24C701B6010E949900A01A6A
:10207000B10AA816B90618F0F401D183C083DF9124
:10208000CF911F910F91FF90EF90DF90CF90BF9075
:10209000AF909F908F9008954F925F926F927F9232
:1020A0008F929F92AF92BF92CF92DF92EF92FF9268
:1020B0000F931F93CF93DF936C013B014A01E9011A
:1020C00028010E9490008C01AA24BB24C501B40100
:1020D0000E9499000C191D090817190720F0F982B0
:1020E000E88284E010C080918309882359F08AE750
:1020F0009CE0B3010E94691E009721F0598248823A
:1021000081E001C080E0DF91CF911F910F91FF909E
:10211000EF90DF90CF90BF90AF909F908F907F9087
:102120006F905F904F90089560E676E00E94691E80
:102130009C0180E0232B09F081E0089563E676E0BE
:102140000E94691E9C0180E0232B09F081E0089524
:102150005F9902C081E008959CB19093E608809158
:102160009B0085FFFCCF90939C004091E20B509127
:10217000E30B413951056CF080919B0085FFFCCF4A
:1021800089E380939C001092E30B1092E20B8AE0AB
:102190000895FA01EC57F64F9083141615061CF5B6
:1021A0009A0121503040F901EC57F64F80818D3073
:1021B000D1F49A30C1F43093E30B2093E20B1082F8
:1021C0003093130D2093120D8AE79CE064E879E0C8
:1021D0000E945A1E1092E30B1092E20B81E0809352
:1021E000830980E008954F5F5F4F5093E30B409366
:1021F000E20B82E008951F920F920FB60F920BB67A
:102200000F9211242F933F934F935F936F937F937C
:102210008F939F93AF93BF93EF93FF932CB18091D4
:10222000E20B9091E30BFC01EC57F64F20830196F3
:102230009093E30B8093E20B813991052CF42A30C3
:10224000E9F484309105B4F0FC01EE57F64F1082AA
:10225000FC01EF57F64F80818D3009F4108284EE37
:102260009BE064E879E045E950E00E945A1E81E075
:102270008093140D1092E30B1092E20BFF91EF91FB
:10228000BF91AF919F918F917F916F915F914F918E
:102290003F912F910F900BBE0F900FBE0F901F908C
:1022A00018958F929F92AF92BF92CF92DF92EF924A
:1022B000FF920F931F93DF93CF93CDB7DEB7C05A32
:1022C000D0400FB6F894DEBF0FBECDBF8E01055FC4
:1022D0001F4FC8016EE676E045E950E00E945A1EA5
:1022E0008091E80890E07E010894E11CF11CB701A0
:1022F0004AE050E00E94831EC801B70145E950E062
:102300000E943C1EC80166E776E00E941F1E809175
:10231000E70890E0B7014AE050E00E94831EC80140
:10232000B70145E950E00E943C1EC80169E776E02C
:102330000E941F1EC8010E94D60E51E2C52E5BE00E
:10234000D52E46E0A42EB12C36E2832E912CA89CEB
:10235000B001A99C700DB89C700D1124665E754F7C
:10236000C80145E950E00E945A1EC80166E776E0C0
:102370000E941F1EF6018081992787FD9095B70165
:102380004AE050E00E94831EC801B70145E950E0D1
:102390000E943C1EC80166E776E00E941F1EF601FF
:1023A0008181992787FD9095B7014AE050E00E940E
:1023B000831EC801B70145E950E00E943C1EC801D8
:1023C00066E776E00E941F1EF6018281992787FD4D
:1023D0009095B7014AE050E00E94831EC801B70102
:1023E00045E950E00E943C1EC80166E776E00E9485
:1023F0001F1EC80169E776E00E941F1EC8010E94E7
:10240000D60E0894A11CB11C86E290E0C80ED91E1D
:102410009CE0A916B10409F09ACFC8016CE776E0F8
:1024200045E950E00E945A1E8091D00D9091D10D47
:10243000B7014AE050E00E94831EC801B70145E998
:1024400050E00E943C1EC80166E776E00E941F1E15
:102450008091D20D9091D30DB7014AE050E00E94D7
:10246000831EC801B70145E950E00E943C1EC80127
:1024700069E776E00E941F1EC8010E94D60EC801BF
:1024800067E876E045E950E00E945A1E8091100E00
:102490009091110EB7014AE050E00E94831EC801DE
:1024A000B70145E950E00E943C1EC80166E776E0AE
:1024B0000E941F1E8091120E9091130EB7014AE0E8
:1024C00050E00E94831EC801B70145E950E00E9418
:1024D0003C1EC80169E776E00E941F1EC8010E94E9
:1024E000D60EC056DF4F0FB6F894DEBF0FBECDBF7D
:1024F000CF91DF911F910F91FF90EF90DF90CF90E0
:10250000BF90AF909F908F900895DF93CF930F92DD
:10251000CDB7DEB71982863391F0873344F48D321C
:1025200059F08133F9F18A3209F03FC018C087337E
:1025300061F08036D1F531C00E94511136C08091D2
:10254000C6069091C706019705C08091C606909176
:10255000C70601969093C7068093C60626C0909141
:10256000CE0D80919B0085FFFCCF905D90939C00E9
:1025700080919B0085FFFCCF80E280939C0090912E
:102580000E0E80919B0085FFFCCF905D90939C0088
:1025900089E796E00E94D60E08C00E94B00F81E045
:1025A000898303C082E08093830989810F90CF9152
:1025B000DF9108958F929F92AF92BF92CF92DF9258
:1025C000EF92FF920F931F93DF93CF9300D00F9260
:1025D000CDB7DEB76B017C0100E010E04E0108943E
:1025E000811C911C62E9A62E66E0B62E34C000D094
:1025F00000D000D0EDB7FEB73196ADB7BEB712969A
:102600009C928E921197B382A282D7018C919927C6
:1026100087FD9095958384830E94AC1E99812DB788
:102620003EB72A5F3F4F0FB6F8943EBF0FBE2DBF97
:1026300080919B0085FFFCCF90939C009A818091B4
:102640009B0085FFFCCF90939C000F5F1F4F82E0A3
:1026500090E0E80EF91E0C151D054CF20F900F903E
:102660000F90CF91DF911F910F91FF90EF90DF902E
:10267000CF90BF90AF909F908F900895CF92DF92B0
:10268000EF92FF920F931F93DF93CF9300D00F929F
:10269000CDB7DEB78C016E010894C11CD11C72E964
:1026A000E72E76E0F72E2DC000D000D000D0EDB799
:1026B000FEB73196ADB7BEB71296DC92CE921197A7
:1026C000F382E282992787FD9095958384830E9407
:1026D000AC1E9981EDB7FEB736960FB6F894FEBFE3
:1026E0000FBEEDBF80919B0085FFFCCF90939C00B7
:1026F0009A8180919B0085FFFCCF90939C000F5F97
:102700001F4FD8018C91882379F60F900F900F906E
:10271000CF91DF911F910F91FF90EF90DF90CF90BD
:102720000895882371F5809162008E7F8093620006
:10273000809161008160809361008AEB91E001C02B
:10274000000001972FEF8F3F9207D1F78091610032
:102750008E7F8093610087E390E001C000000197C5
:102760002FEF8F3F9207D1F780B123E831E001C00E
:102770000000215030409FEF2F3F3907C9F781708B
:102780000895809162008D7F809362008091610046
:102790008260809361008AEB91E001C000000197A4
:1027A0002FEF8F3F9207D1F7809161008D7F80934B
:1027B000610087E390E001C0000001972FEF8F3F99
:1027C0009207D1F780B123E831E001C00000215029
:1027D00030409FEF2F3F3907C9F782700895982F37
:1027E0006623F1F4809162008E7F80936200809175
:1027F0006100816080936100992329F080916100DC
:102800008E7F8093610087E390E001C00000019714
:102810002FEF8F3F9207D1F7809161008E7F1DC00F
:10282000809162008D7F8093620080916100826060
:1028300080936100992329F0809161008D7F8093BE
:10284000610087E390E001C0000001972FEF8F3F08
:102850009207D1F7809161008D7F80936100089588
:10286000882329F5809162008E7F80936200809199
:102870006100816080936100809161008E7F809310
:1028800061008CE090E001C0000001972FEF8F3FC6
:102890009207D1F780B129E230E001C00000215059
:1028A00030409FEF2F3F3907C9F78170089580911D
:1028B00062008D7F809362008091610082608093CE
:1028C0006100809161008D7F809361008CE090E0D9
:1028D00001C0000001972FEF8F3F9207D1F780B121
:1028E00029E230E001C00000215030409FEF2F3F2F
:1028F0003907C9F790E09695879581700895FF9202
:102900000F931F93F82E08E010E00AC08F2D0E944D
:102910003014912F9695182F179511271795192B6D
:102920000150A0F7812F1F910F91FF900895FF9202
:102930000F931F93082FF62E18E006C0802F81708A
:102940006F2D0E94EF1306951150C0F71F910F9144
:10295000FF900895809169028F7B809369020895AA
:10296000809169028064809369020895EEECFDE035
:10297000DF019B9627E130E089E190E041E01182A0
:10298000108217821086118612861C9212961C9253
:10299000129713961C92139714961C9214971596DF
:1029A0001C92159733832283958384831386148620
:1029B00011961C92119717961C9217974683E05C0C
:1029C000FF4FA05CBF4F5EE0EE34F507C1F60895FF
:1029D000DC0120E040E050E098E115C0FD01E40F8B
:1029E000F51FE08138E08E2F8227F82FF17080FDEF
:1029F00029272695F13009F42068315011F0E69529
:102A0000F2CF4F5F5F4F4617570741F7822F089568
:102A10006F927F928F929F92AF92BF92CF92DF92EE
:102A2000EF92FF920F931F93DF93CF93CDB7DEB753
:102A3000CA5AD0400FB6F894DEBF0FBECDBF4C01CE
:102A40001B8654EDE52E5DE0F52E45E2A42EB12C5B
:102A5000AE0CBF1CCC24DD248E01055F1F4F3E0150
:102A60000894611C711CF7018081882309F44CC013
:102A7000C80167E976E00E941F1EC6010196B301F6
:102A80004AE050E00E94831EC801B3010E941F1E4D
:102A9000C80169E976E00E941F1EF501808181303E
:102AA00021F4C8016BE976E011C0F501868181301F
:102AB00021F4C80162EA76E009C0B60136E0660F8B
:102AC000771F3A95E1F76552724FC8010E941F1EA9
:102AD000C80169EA76E00E941F1EF70181818130FA
:102AE00029F4C8016CEA76E00E941F1EF70182817A
:102AF000813029F4C80165EB76E00E941F1EC801F1
:102B00006EEB76E00E941F1E0894C11CD11C80E46D
:102B100090E0E80EF91EA80EB91E92E0C916D10485
:102B200009F0A1CFC401BE01655F7F4F0E94351E31
:102B3000C655DF4F0FB6F894DEBF0FBECDBFCF91A5
:102B4000DF911F910F91FF90EF90DF90CF90BF909A
:102B5000AF909F908F907F906F9008950F931F93E9
:102B60008091F6079091F7078130910519F08597CC
:102B700071F512C00E9490009093420E8093410E16
:102B8000809169028F7B8093690285E290E0909347
:102B9000F7078093F6071BC00E9490002091410E1A
:102BA0003091420E8C01021B130B68E97AE380E03E
:102BB00090E00E9499000817190748F08091690277
:102BC0008064809369021092F7071092F6071F91B4
:102BD0000F910895CF92DF92EF92FF920F931F9380
:102BE000CF93DF937C016C0176E0CC0CDD1C7A95F1
:102BF000E1F7E601CF53D24F8D859E858632910550
:102C000009F468C0873291053CF48130910581F068
:102C1000859709F06DC11EC08832910509F4D7C0AF
:102C2000883291050CF496C0899709F061C14EC1B4
:102C30008E2D0E9491138CEC6E2D0E94971484E4CB
:102C40006E2D0E9497140E9490009C878B8785E2CE
:102C500090E094C08E2D0E943014882331F01BAE7A
:102C60001AAE18AE86E290E089C00E9490002B85D3
:102C70003C858C01021B130B64E670E080E090E061
:102C80000E9499008017910708F032C11E861D86A8
:102C90009AAD9431D4F08BAD981761F081E088AF94
:102CA00089AF1C8A1D8AC6018552924F60EC76E07E
:102CB0000E94351EF70166E0EE0FFF1F6A95E1F7EF
:102CC000EF53F24F82AD83AF03C09BAF9F5F9AAFCC
:102CD00081E00FC1DE2C8E2D0E9491138CEC6E2DA5
:102CE0000E9497148EEB6E2D0E9497148E2D0E94D9
:102CF0007F1488838E2D0E947F148983F70156E00C
:102D0000EE0FFF1F5A95E1F7ED53F24F9881908334
:102D10008B83870146E0000F111F4A95E1F70B53A3
:102D2000124FC2E0D0E08D2D0E947F14D8018D9308
:102D30008D012196C930D105B1F736E0EE0CFF1CAC
:102D40003A95E1F7E1ECFDE0EE0EFF1E87E290E040
:102D5000D701B7C0C70126E0880F991F2A95E1F770
:102D60008D53924F68E070E00E94E8149A858917AD
:102D700041F41DAE1CAE1EAE88E290E09E878D87AA
:102D8000B7C0C6018552924F60EC76E00E94351EB6
:102D90001E861D869CADFE01FD9694319CF08081BF
:102DA000981729F081E08EAF8FAF1C8A1D8AF7013A
:102DB00006E0EE0FFF1F0A95E1F7EF53F24F84ADE7
:102DC00085AF03C090839F5F9CAF82E092C0288153
:102DD000398114E0359527951A95E1F739832883D1
:102DE0008C898E8B8D898F8B8F85988928173907D1
:102DF0001CF481E08C8B01C01C8AF701B6E0EE0F59
:102E0000FF1FBA95E1F7EF53F24F2081318181899D
:102E10009289821793071CF481E0858B01C0158A83
:102E2000F701A6E0EE0FFF1FAA95E1F7EF53F24F6F
:102E30008689882321F48489813009F4808FF70101
:102E400076E0EE0FFF1F7A95E1F7EF53F24F878997
:102E5000882321F48589813009F4818F00D000D046
:102E600000D0EDB7FEB73196870166E0000F111F65
:102E70006A95E1F7C8018552924FADB7BEB7129679
:102E80009C938E93119782EC96E0938382830F53E9
:102E9000124FD8018D919C91958384830E94AC1E22
:102EA000EDB7FEB736960FB6F894FEBF0FBEEDBF76
:102EB0000E949000D8011C969C938E931B9789E2E8
:102EC00090E01E969C938E931D9712C00E949000D6
:102ED0002B853C858C01021B130B68E873E180E0B5
:102EE00090E00E9499008017910710F41E861D86BD
:102EF00080E0DF91CF911F910F91FF90EF90DF90D5
:102F0000CF900895EF92FF920F931F937B018C0156
:102F100020E030E040E05FE40E94821A88238CF0D9
:102F2000C801B70120E030E040E05FE40E94FA18F9
:102F30000E94401B9B01AC01205030404040504853
:102F400006C0C801B7010E94401B9B01AC01B9013A
:102F5000CA011F910F91FF90EF900895A0E0B0E09B
:102F6000E4EBF7E10C94CA1DDC012B01FA019C9102
:102F7000923008F439C1EB018881823008F433C102
:102F8000943069F4843009F02FC111969C91119707
:102F90008981981709F428C1A8ECB6E025C18430CE
:102FA00009F421C18230A9F4923009F01DC19A01BF
:102FB000AD0188E0EA010990AE01E90109929E01A4
:102FC0008150C1F7E201898111969C918923818307
:102FD00008C1923009F407C112962D903C901397C6
:102FE000EB018A819B811496AD90BD90CD90DC90D1
:102FF0001797EC80FD800E811F819101281B390BF2
:10300000B90137FF04C066277727621B730B603254
:1030100071050CF061C0121613066CF537014801FA
:10302000062E04C096948794779467940A94D2F7F6
:1030300021E030E040E050E004C0220F331F441F85
:10304000551F6A95D2F721503040404050402E2104
:103050003F2140235123211531054105510521F020
:1030600021E030E040E050E079018A01E628F728CD
:10307000082919293CC0232BD1F1260E371E350112
:103080004601062E04C096948794779467940A9418
:10309000D2F721E030E040E050E004C0220F331FBF
:1030A000441F551F6A95D2F7215030404040504090
:1030B0002A213B214C215D21211531054105510576
:1030C00021F021E030E040E050E059016A01A628FB
:1030D000B728C828D9280BC0821593052CF01C01ED
:1030E000AA24BB24650103C0EE24FF2487011196A6
:1030F0009C91D20111968C91981709F445C099239F
:1031000039F0A80197012A193B094C095D0906C04D
:10311000A60195012E193F09400B510B57FD08C020
:1031200011823382228224833583468357831DC0D4
:1031300081E081833382228288279927DC01821BE8
:10314000930BA40BB50B84839583A683B7830DC023
:10315000220F331F441F551F248335834683578313
:103160008281938101979383828324813581468173
:103170005781DA01C9010197A109B1098F5F9F4FFA
:10318000AF4FBF4328F30BC0918333822282EA0CF6
:10319000FB1C0C1D1D1DE482F5820683178383E052
:1031A0008083248135814681578157FF1AC0C90128
:1031B000AA2797FDA095BA2F81709070A070B0706B
:1031C0005695479537952795822B932BA42BB52B96
:1031D00084839583A683B7838281938101969383A9
:1031E0008283DF0101C0D201CD01CDB7DEB7E2E1BC
:1031F0000C94E61DA0E2B0E0E0E0F9E10C94D61DED
:1032000069837A838B839C832D833E834F83588786
:10321000E9E0EE2EF12CEC0EFD1ECE010196B70179
:103220000E94B81C8E010F5E1F4FCE010596B8019B
:103230000E94B81C8A8991E089278A8BC701B8014E
:10324000AE01475E5F4F0E94AE170E94E31BA0963F
:10325000E6E00C94F21DA0E2B0E0E1E3F9E10C94A9
:10326000D61D69837A838B839C832D833E834F8312
:103270005887F9E0EF2EF12CEC0EFD1ECE010196E1
:10328000B7010E94B81C8E010F5E1F4FCE0105963C
:10329000B8010E94B81CC701B801AE01475E5F4F7C
:1032A0000E94AE170E94E31BA096E6E00C94F21D6C
:1032B000A0E2B0E0EEE5F9E10C94CA1D69837A83DF
:1032C0008B839C832D833E834F835887CE01019649
:1032D000BE01675F7F4F0E94B81CCE010596BE01FC
:1032E0006F5E7F4F0E94B81C9985923088F0898963
:1032F0008230C8F0943019F4823051F404C0843024
:1033000029F4923081F488EC96E0C6C0923049F4FA
:1033100020E09A858A89981321E02A87CE010996B0
:10332000BBC0823049F420E09A858A89981321E055
:103330002A8BCE014196B0C02D843E844F8458889C
:103340006D887E888F88988CEE24FF248701AA24BC
:10335000BB24650140E050E060E070E0E0E0F0E0B8
:10336000C10181709070892BE9F0E60CF71C081DF3
:10337000191D9A01AB012A0D3B1D4C1D5D1D80E0FE
:1033800090E0A0E0B0E0E614F7040805190520F489
:1033900081E090E0A0E0B0E0BA01A901480F591F18
:1033A0006A1F7B1FAA0CBB1CCC1CDD1C97FE08C02F
:1033B00081E090E0A0E0B0E0A82AB92ACA2ADB2A7E
:1033C0003196E032F10549F0660C771C881C991C97
:1033D0005694479437942794C3CFFA85EA892B896A
:1033E0003C898B859C85280F391F2E5F3F4F17C066
:1033F000CA0181709070892B61F016950795F7943A
:10340000E79480E090E0A0E0B0E8E82AF92A0A2BEF
:103410001B2B76956795579547952F5F3F4F77FD07
:10342000E7CF0CC0440F551F661F771F17FD416083
:10343000EE0CFF1C001F111F21503040403090E067
:10344000590790E0690790E4790760F32B8F3C8F70
:10345000DB01CA018F779070A070B0708034910545
:10346000A105B10561F447FD0AC0E114F1040105AD
:10347000110529F0405C5F4F6F4F7F4F40781A8EE7
:10348000FE1711F081E08A8F4D8F5E8F6F8F78A3CA
:1034900083E0898FCE0149960E94E31BA096E2E16A
:1034A0000C94E61DA8E1B0E0E8E5FAE10C94D61D25
:1034B00069837A838B839C832D833E834F835887D4
:1034C00089E0E82EF12CEC0EFD1ECE010196B7012D
:1034D0000E94B81C8E010F5E1F4FCE010596B801E9
:1034E0000E94B81C8985823040F08989823028F09A
:1034F000C701B8010E94301D01C08FEF6896E6E059
:103500000C94F21DA8E1B0E0E8E8FAE10C94D61DB5
:1035100069837A838B839C832D833E834F83588773
:1035200089E0E82EF12CEC0EFD1ECE010196B701CC
:103530000E94B81C8E010F5E1F4FCE010596B80188
:103540000E94B81C8985823040F08989823028F039
:10355000C701B8010E94301D01C08FEF6896E6E0F8
:103560000C94F21DA8E1B0E0E8EBFAE10C94D61D52
:1035700069837A838B839C832D833E834F83588713
:1035800089E0E82EF12CEC0EFD1ECE010196B7016C
:103590000E94B81C8E010F5E1F4FCE010596B80128
:1035A0000E94B81C8985823040F08989823028F0D9
:1035B000C701B8010E94301D01C081E06896E6E0B5
:1035C0000C94F21DA8E0B0E0E8EEFAE10C94D31DF3
:1035D0009B01AC0183E08983DA01C9018827B7FD2B
:1035E00083959927AA27BB27B82E211531054105B8
:1035F000510519F482E089833AC08823A9F020306C
:1036000080E0380780E0480780E8580729F460E048
:1036100070E080E09FEC30C0EE24FF248701E21AC6
:10362000F30A040B150B02C079018A018EE1C82E42
:10363000D12CDC82CB82ED82FE820F831887C801F9
:10364000B7010E94941B01971816190684F4082EDE
:1036500004C0EE0CFF1C001F111F0A94D2F7ED826C
:10366000FE820F831887C81AD90ADC82CB82BA82FD
:10367000CE0101960E94E31B2896E9E00C94EF1D11
:10368000ACE0B0E0E6E4FBE10C94DA1D69837A83F8
:103690008B839C83CE010196BE016B5F7F4F0E949E
:1036A000B81C8D81823061F1823050F1843021F478
:1036B0008E81882351F12EC02F81388537FD20C09F
:1036C0006E812F3131051CF06623F9F023C08EE1A5
:1036D00090E0821B930B29853A854B855C8504C05D
:1036E00056954795379527958A95D2F76623B1F079
:1036F00050954095309521953F4F4F4F5F4F0EC0ED
:1037000020E030E040E050E009C02FEF3FEF4FEF06
:103710005FE704C020E030E040E050E8B901CA01B2
:103720002C96E2E00C94F61DEF92FF920F931F93FC
:103730007B018C0180E0E81680E0F80681E0080754
:1037400080E0180788F48FEFE816F10401051105F1
:1037500031F028F088E090E0A0E0B0E017C080E011
:1037600090E0A0E0B0E012C080E0E81680E0F8064B
:1037700080E0080781E0180728F088E190E0A0E0E9
:10378000B0E004C080E190E0A0E0B0E020E230E0F2
:1037900040E050E0281B390B4A0B5B0B04C0169528
:1037A0000795F794E7948A95D2F7F701E053F94F1C
:1037B0008081281B310941095109C9011F910F91CD
:1037C000FF90EF900895DF92EF92FF920F931F9377
:1037D000FC01E480F58006811781D18080818230F0
:1037E00048F480E090E0A0E1B0E0E82AF92A0A2B52
:1037F0001B2BA5C0843009F49FC0823021F4EE2435
:10380000FF24870105C0E114F1040105110519F435
:10381000E0E0F0E096C0628173819FEF6238790743
:103820000CF05BC022E83FEF261B370B2A31310535
:103830002CF020E030E040E050E02AC0B801A701C1
:10384000022E04C076956795579547950A94D2F74E
:1038500081E090E0A0E0B0E004C0880F991FAA1FAB
:10386000BB1F2A95D2F70197A109B1098E219F218B
:10387000A023B1230097A105B10521F081E090E0DC
:10388000A0E0B0E09A01AB01282B392B4A2B5B2B2F
:10389000DA01C9018F779070A070B0708034910503
:1038A000A105B10539F427FF09C0205C3F4F4F4FF8
:1038B0005F4F04C0215C3F4F4F4F5F4FE0E0F0E0AF
:1038C0002030A0E03A07A0E04A07A0E45A0710F031
:1038D000E1E0F0E079018A0127C06038710564F504
:1038E000FB01E158FF4FD801C7018F779070A0709E
:1038F000B07080349105A105B10539F4E7FE0DC023
:1039000080E490E0A0E0B0E004C08FE390E0A0E0AD
:10391000B0E0E80EF91E0A1F1B1F17FF05C0169521
:103920000795F794E794319687E016950795F794F5
:10393000E7948A95D1F705C0EE24FF248701EFEFC5
:10394000F0E06E2F679566276795902F9F77D79445
:10395000DD24D7948E2F8695492F462B582F5D292D
:10396000B701CA011F910F91FF90EF90DF9008956A
:10397000FC01DB01408151812281622F6F7770E071
:10398000221F2227221F9381892F880F822B282F05
:1039900030E0991F9927991F11969C931197211533
:1039A0003105A9F5411551056105710511F482E054
:1039B00037C082E89FEF13969C938E9312979A01DB
:1039C000AB0167E0220F331F441F551F6A95D1F7E3
:1039D00083E08C930DC0220F331F441F551F129696
:1039E0008D919C911397019713969C938E931297A8
:1039F000203080E0380780E0480780E4580758F31B
:103A000014962D933D934D935C93179708952F3FF4
:103A1000310579F4411551056105710519F484E00A
:103A20008C93089564FF03C081E08C9312C01C92B4
:103A300010C02F57304013963C932E93129783E07B
:103A40008C9387E0440F551F661F771F8A95D1F727
:103A5000706414964D935D936D937C9317970895BE
:103A60001F93DC01FB019C91923008F447C08081D8
:103A7000823008F443C0943051F411961C91843084
:103A800099F58181682F70E0611B71093FC0843016
:103A900021F0923031F48230B9F18181882389F1AB
:103AA0002DC011961C9111978230F1F08181181769
:103AB000D9F412962D913C911397828193818217AC
:103AC000930794F028173907BCF014968D919D91B7
:103AD0000D90BC91A02D24813581468157812817F6
:103AE00039074A075B0718F4112341F00AC082170F
:103AF0009307A407B50740F4112319F061E070E0C3
:103B000005C06FEF7FEF02C060E070E0CB011F9156
:103B10000895629FD001739FF001829FE00DF11D17
:103B2000649FE00DF11D929FF00D839FF00D749F37
:103B3000F00D659FF00D9927729FB00DE11DF91FE3
:103B4000639FB00DE11DF91FBD01CF011124089540
:103B5000A1E21A2EAA1BBB1BFD010DC0AA1FBB1F91
:103B6000EE1FFF1FA217B307E407F50720F0A21B03
:103B7000B30BE40BF50B661F771F881F991F1A9470
:103B800069F760957095809590959B01AC01BD019A
:103B9000CF0108952F923F924F925F926F927F9242
:103BA0008F929F92AF92BF92CF92DF92EF92FF924D
:103BB0000F931F93CF93DF93CDB7DEB7CA1BDB0BF9
:103BC0000FB6F894DEBF0FBECDBF09942A8839889E
:103BD00048885F846E847D848C849B84AA84B984A5
:103BE000C884DF80EE80FD800C811B81AA81B981B1
:103BF000CE0FD11D0FB6F894DEBF0FBECDBFED01C5
:103C00000895FC0188279927E89421912032E9F34F
:103C1000293010F02E30C8F32B3241F02D3239F418
:103C2000689404C00E94A41E820F911D219120530C
:103C30002A30C0F31EF4909581959F4F0895FB01A3
:103C4000DC010D900020E9F7119701900D92002002
:103C5000E1F70895FC018191861721F08823D9F7B7
:103C6000992708953197CF010895FB01DC01019058
:103C70000D920020E1F70895FB01DC010D9000207A
:103C8000E9F711974150504028F0019000200D9223
:103C9000C9F708951C920895FB01DC014150504082
:103CA00030F08D910190801919F40020B9F7881B2C
:103CB000990B0895FB01DC014150504048F0019000
:103CC0000D920020C9F701C01D9241505040E0F70D
:103CD0000895FB0151915523A9F0BF01DC014D91DD
:103CE00045174111E1F759F4CD010190002049F049
:103CF0004D9140154111C9F3FB014111EFCF81E016
:103D000090E001970895FB019F01E8944230C4F0D0
:103D10004532B4F44A3029F497FB1EF4909581950E
:103D20009F4F642F77270E949321805D8A330CF088
:103D3000895D8193CB010097A1F716F45DE2519361
:103D40001082C9010C94F9207AE0979F902D879FEB
:103D5000802D910D112408950F931F93DF93CF931E
:103D6000CDB7DEB72E970FB6F894DEBF0FBECDBF2E
:103D70000D891E8986E08C831A8309838FEF9FE764
:103D80009E838D839E01275E3F4FCE0101966F89F2
:103D9000788DA9010E94DD1E2F813885020F131F27
:103DA000F80110822E960FB6F894DEBF0FBECDBF7D
:103DB000CF91DF911F910F9108952F923F924F92D3
:103DC0005F926F927F928F929F92AF92BF92CF92AB
:103DD000DF92EF92FF920F931F93DF93CF93CDB7B4
:103DE000DEB72B970FB6F894DEBF0FBECDBF3C01F8
:103DF0002B015A01FC0117821682838181FD03C0C9
:103E00006FEF7FEFC6C19AE0892E1E010894211C36
:103E1000311CF3012381F20123FD859123FF819160
:103E20002F01882309F4B2C1853239F423FD85912D
:103E300023FF81912F01853229F490E0B3010E9484
:103E40000921E7CF982FFF24EE249924FFE1FF15E5
:103E5000D0F09B3269F09C3228F4903259F09332C2
:103E600091F40EC09D3249F0903369F441E024C0D2
:103E700052E0F52A84E0F82A28C098E0F92A25C003
:103E8000E0E1FE2A22C0F7FC29C0892F80538A3046
:103E900070F4F6FE05C0989C902C1124980E15C065
:103EA000E89CE02C1124E80EF0E2FF2A0EC09E32BE
:103EB00029F4F6FC6BC140E4F42A07C09C3619F4DF
:103EC00050E8F52A02C0983649F4F20123FD959195
:103ED00023FF91912F01992309F0B8CF892F8554A1
:103EE000833018F08052833038F444E050E0A40E60
:103EF000B51E5FE359830FC0933631F0933779F0E5
:103F0000933509F056C020C0F5018081898342E0D5
:103F100050E0A40EB51E610101E010E012C0F501F1
:103F2000C080D180F6FC03C06FEF7FEF02C0692D27
:103F300070E042E050E0A40EB51EC6010E94EE20E3
:103F40008C015FE7F52214C0F501C080D180F6FC3A
:103F500003C06FEF7FEF02C0692D70E042E050E0D8
:103F6000A40EB51EC6010E94E3208C0150E8F52A7C
:103F7000F3FE07C01AC080E290E0B3010E9409215D
:103F8000EA948E2D90E008171907A8F30EC0F601E9
:103F9000F7FC8591F7FE81916F0190E0B3010E94DB
:103FA0000921E110EA94015010400115110579F73B
:103FB000EAC0943611F0993669F5F7FE08C0F501AC
:103FC000208131814281538184E090E00AC0F50173
:103FD000808191819C01442737FD4095542F82E0D8
:103FE00090E0A80EB91E9FE6F92257FF09C0509530
:103FF0004095309521953F4F4F4F5F4FE0E8FE2AA7
:10400000CA01B901A1012AE030E00E943521D82E71
:10401000D21840C0953729F41F2D1F7E2AE030E0CA
:104020001DC01F2D197F9F3661F0903720F4983501
:1040300009F0ACC00FC0903739F0983709F0A6C02E
:1040400004C028E030E00AC0106114FD146020E1D3
:1040500030E004C014FD166020E132E017FF08C014
:10406000F501608171818281938144E050E008C054
:10407000F50180819181BC0180E090E042E050E058
:10408000A40EB51EA1010E943521D82ED2188FE7AB
:10409000F82EF122F6FE0BC05EEFF522D91438F4AB
:1040A000F4FE07C0F2FC05C08FEEF82202C01D2D01
:1040B00001C0192DF4FE0DC0FE01ED0DF11D808132
:1040C000803319F499EEF92208C01F5FF2FE05C093
:1040D00003C08F2D867809F01F5F0F2DF3FC14C0ED
:1040E000F0FE0FC01E1510F09D2C0BC09D2C9E0CD9
:1040F000911A1E2D06C080E290E0B3010E940921B2
:104100001F5F1E15C0F304C01E1510F4E11A01C094
:10411000EE2404FF0FC080E390E0B3010E94092168
:1041200002FF1DC001FD03C088E790E00EC088E5D6
:1041300090E00BC0802F867891F001FF02C08BE2E7
:1041400001C080E2F7FC8DE290E0B3010E940921FA
:1041500006C080E390E0B3010E9409219A94D9142B
:10416000C0F3DA94F101ED0DF11D808190E0B3010F
:104170000E940921DD20A9F706C080E290E0B3018A
:104180000E940921EA94EE20C1F743CEF301668133
:104190007781CB012B960FB6F894DEBF0FBECDBF53
:1041A000CF91DF911F910F91FF90EF90DF90CF9013
:1041B000BF90AF909F908F907F906F905F904F9047
:1041C0003F902F900895FC010590615070400110C0
:1041D000D8F7809590958E0F9F1F0895FC01615030
:1041E000704001900110D8F7809590958E0F9F1F19
:1041F0000895DC01FC01672F71917723E1F7329775
:1042000004C07C916D9370836291AE17BF07C8F3B1
:1042100008950F931F93CF93DF938C01EB018B8154
:1042200081FF1BC082FF0DC02E813F818C819D814B
:104230002817390764F4E881F9810193F983E88349
:1042400006C0E885F985802F0995892B31F48E8188
:104250009F8101969F838E8302C00FEF1FEFC801DD
:10426000DF91CF911F910F910895FA01AA2728306D
:1042700051F1203181F1E8946F936E7F6E5F7F4F33
:104280008F4F9F4FAF4FB1E03ED0B4E03CD0670FAF
:10429000781F891F9A1FA11D680F791F8A1F911D02
:1042A000A11D6A0F711D811D911DA11D20D009F452
:1042B00068943F912AE0269F11243019305D319394
:1042C000DEF6CF010895462F4770405D4193B3E07D
:1042D0000FD0C9F7F6CF462F4F70405D4A3318F024
:1042E000495D31FD4052419302D0A9F7EACFB4E0D5
:1042F000A6959795879577956795BA95C9F700978D
:104300006105710508959B01AC010A2E069457952D
:10431000479537952795BA95C9F7620F731F841F84
:10432000951FA01D0895AA1BBB1B51E107C0AA1F22
:10433000BB1FA617B70710F0A61BB70B881F991F46
:104340005A95A9F780959095BC01CD010895F894F0
:02435000FFCF9D
:1043520061742B6370696E3F002B4350494E3A20C3
:104362005245414459000A0D002B434C49503A2012
:1043720022006174680D0A0052494E47004E4F20D8
:10438200434152524945520061742B636D67733D3C
:104392002200220D0A000D0A001A002B434D47533A
:1043A2003A004F4B00536E7961746F212020004E0A
:1043B2006172757368656E206B6F6E747572002022
:1043C200310020320020330020340020004F687278
:1043D200616E6121202000414C41524D204E61729C
:1043E200757368656E206B6F6E7475722000414C38
:1043F20041524D21200061742B637573643D312C51
:104402002200222C31350D0A002B435553443A2009
:104412000041542B435042533D22534D220D0A007A
:1044220041542B435042523D002B435042523A20BA
:10443200003030300041542B435042573D002C0095
:104442002C2C00256C640041540D0A0061742B630E
:104452007265673F0D0A002B435245473A20312CC3
:104462003100637377577269746553657474696E4A
:1044720067730D0A0063737743616E74436F6E6EE8
:1044820065637442696C6C0D0A006373774C6974DE
:10449200746C654D6F6E65790D0A006373774F4BCF
:1044A2000D0A00010001000D0A53544152540D0A35
:1044B2000041540D0A000D0A00F02253657474691C
:1044C2006E67732200000000000000000000000080
:1044D200000000000000000000000000002231384F
:1044E2003030303030302200000000000000000088
:1044F20000000000000000000000000000000000BA
:10450200224E756D53657474732200000000000022
:104512000000000000000000000000000000000099
:1045220000000022313333333333303022000000B5
:104532000000000000000000000000000000000079
:104542000000000000002255736572536574747395
:104552002200000000000000000000000000000037
:1045620000000000000000000022313531353033F8
:10457200303331323132303030302200000000002E
:1045820000000000000000000000000022526573DD
:1045920065727622000000000000000000000000AA
:1045A20000000000000000000000000000000022E7
:1045B2003030302200000000000000000000000047
:1045C20000000000000000000000000000000000E9
:1045D2000000224461746368312200000000000080
:1045E20000000000000000000000000000000000C9
:1045F20000000000002230303035303033352200E8
:1046020000000000000000000000000000000000A8
:10461200000000000000000022446174636832223E
:104622000000000000000000000000000000000088
:104632000000000000000000000000223130303194
:10464200303034352200000000000000000000007D
:104652000000000000000000000000000000224FE7
:1046620070657261746F72312200000000000000F8
:104672000000000000000000000000000000000038
:1046820000222B3338303937323131363638362240
:104692000000000000000000000000000000000018
:1046A20000000000224F70657261746F7232220046
:1046B20000000000000000000000000000000000F8
:1046C2000000000000000022303030220000000014
:1046D20000000000000000000000000000000000D8
:1046E20000000000000000000000224F70657261AF
:1046F200746F72332200000000000000000000000E
:104702000000000000000000000000000022303025
:104712003022000000000000000000000000000045
:104722000000000000000000000000000000000087
:10473200224F70657261746F7234220000000000B3
:104742000000000000000000000000000000000067
:104752000000002230303022000000000000000083
:104762000000000000000000000000000000000047
:10477200000000000000224F70657261746F723594
:104782002200000000000000000000000000000005
:104792000000000000000000002230303022000043
:1047A2000000000000000000000000000000000007
:1047B200000000000000000000000000224F7065B1
:1047C2007261746F72362200000000000000000067
:1047D20000000000000000000000000000000022B5
:1047E2003030302200000000000000000000000015
:1047F20000000000000000000000000000000000B7
:1048020000000161742B6970723D393630300D0A37
:104812000000000000000061742B637265673D3187
:104822000D0A00000000000000000061742B636F9D
:104832006C703D310D0A00000000000000000061B4
:10484200742B636C69703D310D0A0000000000009A
:1048520000000061742B636D67663D310D0A000034
:1048620000000000000000617465300D0A000000C5
:10487200000000000000000000000061740D0A004A
:1048820000000000000000000000000000000080A6
:10489200250000184700000096000000E10000001B
:1048A200C201000500546F204D6F64656D2D3E00FE
:1048B2004F4B002B434D54493A22534D220053652E
:1048C2007474733A20002C20000A0D004D696E4D5D
:1048D200617854313A20004D696E4D617854323A14
:1048E2002000253032580074003D004572724E4F50
:1048F2004E00457272435243003B20004D494E2107
:1049020021213B20004D41582121213B2000230041
:104912003F00256443001700000000000000000073
:104922000001020203030303040404040404040454
:104932000505050505050505050505050505050525
:104942000606060606060606060606060606060605
:1049520006060606060606060606060606060606F5
:1049620007070707070707070707070707070707D5
:1049720007070707070707070707070707070707C5
:1049820007070707070707070707070707070707B5
:1049920007070707070707070707070707070707A5
:1049A2000808080808080808080808080808080885
:1049B2000808080808080808080808080808080875
:1049C2000808080808080808080808080808080865
:1049D2000808080808080808080808080808080855
:1049E2000808080808080808080808080808080845
:1049F2000808080808080808080808080808080835
:104A02000808080808080808080808080808080824
:104A12000808080808080808080808080808080814
:00000001FF
