:100000000C9468000C9487000C9487000C94870073
:100010000C9487000C9487000C9487000C94870044
:100020000C9487000C9487000C9487000C94870034
:100030000C94A9000C9487000C9487000C94870002
:100040000C9487000C9487000C9490100C948700FB
:100050000C9487000C9487000C9487000C94870004
:100060000C9487000C9487000C9487000C948700F4
:100070000C9487000C9487000C9487000C948700E4
:100080000C9487000C9487000C948700CA0BD10B4A
:100090003B0C480C510C630C840CA20CC80BD30C09
:1000A000DA0C110D900D900D790D8E0D900D900DB7
:1000B000900D900D900D900D3C0D450D900D900DF7
:1000C000900D900D900DAF0CED0C900D900D1A0D44
:1000D00011241FBECFEFD0E1DEBFCDBF17E0A0E0FF
:1000E000B1E0ECE7F2E400E00BBF02C007900D9234
:1000F000A03DB107D9F71EE0A0EDB7E001C01D9209
:10010000A534B107E1F70E94A40D0C943C210C9496
:100110009A008FB7F8942091D0073091D1078FBF04
:10012000C901089525E030E040E050E00E943D1D07
:10013000C90108951F920F920FB60F9211248F9349
:1001400081E08093D2078F910F900FBE0F901F9088
:1001500018951F920F920FB60F9211248F939F93B1
:100160008091D0079091D10701969093D107809309
:10017000D00780E186BF9F918F910F900FBE0F90A7
:100180001F9018951DBC1CBC80E090E99BBD8ABDEA
:1001900089E08EBD80E187BF86BF089580916902A6
:1001A0008F7E8093690208958091690280618093B7
:1001B00069020895809169028F7D80936902089594
:1001C000809169028062809369020895EF92FF92A4
:1001D0000F931F938091D3079091D4078E3191058F
:1001E000C9F08F3191051CF4019749F508C08C3294
:1001F000910519F08E9719F51EC081E021C080E1AC
:1002000098E060E071E043ED57E02EE130E00E94BD
:10021000970F15C0809110089091110869E071E066
:1002200040ED57E023ED37E00CE210E0EE24FF2430
:100230000E94E10F04C01092D4071092D30780E00F
:100240001F910F91FF90EF9008950F931F9380914E
:100250005502909156028130910519F04E9791F513
:1002600009C00E9489009093C1088093C0088EE164
:1002700090E024C00E9489002091C0083091C108FC
:100280008C01021B130B68E873E180E090E00E9490
:10029000920080179107B0F481E29DE00E949D14C6
:1002A0008091210D882341F081E29DE00E946B0E38
:1002B00086E191E00E946B0E81E090E090935602FF
:1002C000809355021F910F9108950F931F9380E023
:1002D00090E00E947F158091CE0D9091CF0D892BDB
:1002E00031F481E090E09093CF0D8093CE0D81E0CA
:1002F00090E00E947F1580910E0E90910F0E892B39
:1003000031F481E090E090930F0E80930E0E809177
:10031000EC078823D9F58091D40D8823D1F0809102
:10032000FA0D813051F481E08093EC070E9489003E
:100330009093BF088093BE080CC08091000E81305E
:1003400091F38091D90D813071F38091DA0D813074
:1003500051F38091140E8823C9F080913A0E8130B8
:1003600061F08091400E813041F08091190E813012
:1003700021F080911A0E813049F481E08093EC07DE
:100380000E9489009093BF088093BE088091EC077B
:10039000882309F44AC00E9489002091BE08309148
:1003A000BF088C01021B130B60ED77E080E090E04A
:1003B0000E94920008171907C0F181E29DE00E9497
:1003C0009D141092FA0D1092000E1092D90D1092F9
:1003D000DA0D10923A0E1092400E1092190E1092F1
:1003E0001A0E0E947D0F882361F487E080938109B3
:1003F0008FEF809382098BEE98E061E27DE00E94AE
:10040000CA1D81E090E09093F7078093F6070E9461
:100410007D0F882341F081E29DE00E946B0E86E112
:1004200091E00E946B0E1092EC071F910F910895BE
:10043000CF92DF92EF92FF920F931F93CF93DF93B0
:100440007C0106E010E086E2C82ED12C0C9DE00174
:100450000D9DD00D1C9DD00D1124C65ED54FC7013A
:10046000BE0142E250E00E94E11D009711F48CA110
:1004700006C00F5F1F4F0C30110541F780E0DF9180
:10048000CF911F910F91FF90EF90DF90CF90089543
:1004900080918309882309F43FC08AE79CE069E1E1
:1004A00071E00E94FE1D0097A9F082E89CE062E2E4
:1004B00070E00E94BF1DFC01108282E89CE00E9457
:1004C0001802813049F11092E40782E291E00E9423
:1004D000780E22C08AE79CE068E271E00E94FE1D6F
:1004E000009781F08091E407833044F082E291E04C
:1004F0000E94780E81E08093E5070CC08F5F8093A7
:10050000E4070AC08AE79CE06DE271E00E94FE1DEC
:10051000009711F01092E40780E008950F931F9365
:100520002091DE073091DF072115310509F406C15E
:100530008091E0079091E1078217930709F460C06A
:100540001092E3071092E20729303105E9F02A30D2
:1005500031052CF42830310509F0F0C008C02B30EB
:10056000310569F12F30310509F0E8C03DC084EF55
:1005700091E09093FD078093FC079093FF07809391
:10058000FE078CED95E027C084EF91E09093FD0786
:100590008093FC079093FF078093FE0790930108D8
:1005A00080930008909303088093020890930508B5
:1005B000809304081092070810920608BFC08CEDC3
:1005C00095E09093FD078093FC079093FF0780933D
:1005D000FE0784EF91E09093010880930008109249
:1005E000030810920208AAC01092FD071092FC079F
:1005F00080E00E947A0F1092DF071092DE079EC003
:1006000080915302909154028F31910509F44BC0AF
:10061000803291053CF48130910579F04E9709F0D4
:100620008DC017C08C32910591F18E32910509F47D
:1006300060C0819709F082C065C081E00E946D0FA3
:100640000E9489009093FB078093FA078EE190E067
:1006500071C00E9489002091FA073091FB078C013C
:10066000021B130BE091E207F091E307EE0FFF1F6F
:10067000E450F84F6081718180E090E00E94920028
:100680000817190708F45AC08CE290E053C081E0C3
:100690000E94730F0E9489009093FB078093FA07D2
:1006A0008FE190E047C00E9489002091FA073091C5
:1006B000FB078C01021B130B64EF71E080E090E0FC
:1006C0000E94920008171907C8F1E091E207F09123
:1006D000E3073196F093E307E093E207EE0FFF1F85
:1006E000E450F84F80819181892B11F58EE290E0E2
:1006F00021C00E9489009093FB078093FA0781E252
:1007000090E018C00E9489002091FA073091FB0701
:100710008C01021B130B64EF71E080E090E00E94FB
:1007200092000817190750F01092E3071092E207A1
:1007300081E090E090935402809353028091DE0711
:100740009091DF079093E1078093E00780E01F918D
:100750000F910895EF92FF920F931F93DF93CF9322
:10076000CDB7DEB7C659D0400FB6F894DEBF0FBE86
:10077000CDBF8091DC079091DD078E319105A9F105
:100780008F31910534F4009781F0019709F0D5C0BD
:100790001FC08132910509F4AFC08E32910509F472
:1007A000C8C04F9709F0C9C095C0809181098823BE
:1007B00009F4C3C0A2E1B8E0EBEEF8E088E90190EB
:1007C0000D928150E1F71092810981E090E008C01C
:1007D0008AE190E09093160D8093150D8EE190E0E4
:1007E0009093DD078093DC07A8C04091150D5091D0
:1007F000160D403251051CF08EE290E0F1CF4451CD
:100800005040B6E2EB2EF12C4E9DF0014F9DF00DC5
:100810005E9DF00D11244C5E5F4FE65EF54F83A1A7
:100820008823C9F08091A80894A18923A1F0209180
:10083000A908332727FD3095207F307085A199279F
:1008400087FD9095A4E0880F991FAA95E1F72823CA
:100850003923232B39F44F5F5F4F5093160D40938C
:10086000150D6BC08E010F5F1F4FC80168E371E06B
:1008700045E950E00E94EF1D8091150D9091160DF5
:1008800044978E9DB0018F9D700D9E9D700D11241B
:10089000665E754FC80145E950E00E94D11DC80150
:1008A00062E471E00E94B41DC80162E178E045E9AC
:1008B00050E00E94D11DC80166E471E00E94B41DA1
:1008C00088EF97E0B8014CED57E02FE130E00E944F
:1008D000970F33C08091F8079091F90768E471E0B1
:1008E00048E95AE32CED37E001E210E0F1E2EF2EA7
:1008F000F12C0E94E10F21C08091F8079091F90737
:100900006FE471E048E853E12CED37E00EE110E0D0
:10091000EEE1EE2EF12C0E94E10F882371F0809120
:10092000150D9091160D01969093160D8093150D4F
:1009300004C01092DD071092DC0780E0CA56DF4F3A
:100940000FB6F894DEBF0FBECDBFCF91DF911F91E0
:100950000F91FF90EF9008950F931F930E946501F0
:100960000E9443150E9425010E9448028091E607DB
:100970009091E7078231910509F4A9C0833191056F
:100980005CF48031910599F1813191050CF080C0C2
:100990000F9709F0FAC110C08431910509F482C1A2
:1009A000843191050CF434C18531910509F4B0C04E
:1009B000469709F0EAC101C11092E40783E08093F1
:1009C00081098FEF809382098BEE98E062E571E0F8
:1009D0000E94CA1D81E29DE00E949D148BEE98E06A
:1009E00061E27DE00E94B41D80E190E06BC080E098
:1009F0000E947A0F8091E507882309F4C6C190917F
:100A0000110D992309F48AC083E0809381099093A2
:100A100082098BEE98E06CE571E00E94CA1D80911E
:100A2000110D84FF06C08BEE98E06CE671E00E9429
:100A3000B41D8091110D85FF06C08BEE98E06FE626
:100A400071E00E94B41D8091110D86FF06C08BEEEF
:100A500098E062E771E00E94B41D8091110D87FF5C
:100A600006C08BEE98E065E771E00E94B41D8BEE46
:100A700098E068E771E00E94B41D81E29DE00E9469
:100A80009D148BEE98E061E27DE00E94B41D7DC173
:100A90001092E40783E0809381098FEF80938209AD
:100AA0008BEE98E06AE771E00E94CA1D81E29DE04A
:100AB0000E949D148BEE98E061E27DE00E94B41DDF
:100AC00082E190E09093E7078093E6075EC182E0C1
:100AD0000E947A0F8091E507882331F08FE090E043
:100AE0009093E7078093E6078091110D882309F41E
:100AF0004CC183E190E09093E7078093E60781E0A3
:100B000090E09093E9078093E8071092E4073DC1D5
:100B10001092E4079091110D992319F481E190E06E
:100B2000D1CF83E080938109909382098BEE98E086
:100B300064E871E00E94CA1D8091110D84FF06C017
:100B40008BEE98E06CE671E00E94B41D8091110D6F
:100B500085FF06C08BEE98E06FE671E00E94B41D41
:100B60008091110D86FF06C08BEE98E062E771E080
:100B70000E94B41D8091110D87FF06C08BEE98E096
:100B800065E771E00E94B41D8BEE98E068E771E0C4
:100B90000E94B41D0E9489009093B5088093B40808
:100BA00081E29DE00E949D148BEE98E061E27DE081
:100BB0000E94B41D86E190E085CF0E9489002091BB
:100BC000B4083091B5088C01021B130B60E27EE47F
:100BD00080E090E00E9492000817190788F0809149
:100BE000110D882331F481E190E09093E707809321
:100BF000E6070E9489009093B5088093B408C5C0A9
:100C00008091E507882309F4C0C08FE090E0B5C06B
:100C10001092E40787E0809381098091110D809301
:100C200082098BEE98E06BE971E00E94CA1D809109
:100C3000110D84FF06C08BEE98E06CE671E00E9417
:100C4000B41D8091110D85FF06C08BEE98E06FE614
:100C500071E00E94B41D8091110D86FF06C08BEEDD
:100C600098E062E771E00E94B41D8091110D87FF4A
:100C700006C08BEE98E065E771E00E94B41D8BEE34
:100C800098E068E771E00E94B41D81E29DE00E9457
:100C90009D148BEE98E061E27DE00E94B41D84E13A
:100CA00090E010CF83E00E947A0F8091E5078823BF
:100CB00099F0809169028061809369021092E9073E
:100CC0001092E80785E190E09093E7078093E607AC
:100CD0001092EB071092EA078091E8079091E907DC
:100CE0008130910521F04E9709F04FC012C00E944B
:100CF00089009093B1088093B008809169028F7E3B
:100D0000809369028EE190E09093E9078093E80771
:100D10003CC06091E80870E080E090E028EE33E0AD
:100D200040E050E00E941E1D6093B8087093B9081F
:100D30008093BA089093BB080E9489002091B00864
:100D40003091B1088C01021B130B6091B8087091AF
:100D5000B9088091BA089091BB080E9492000817C8
:100D6000190798F08091690280618093690210925E
:100D7000E9071092E80785E190E09093E7078093F8
:100D8000E6071092EB071092EA070E94AA038091EF
:100D9000110D90916902882311F09F7D01C090622E
:100DA000909369021092E50780E01F910F910895DA
:100DB000EF92FF920F931F93DF93CF93CDB7DEB7E0
:100DC000C659D0400FB6F894DEBF0FBECDBF80919C
:100DD000DA079091DB078A31910509F45EC08B3107
:100DE000910534F48130910581F04997C1F40BC02D
:100DF0008F31910509F447C08C32910509F44FC039
:100E00004E9769F42EC08AE04BC08091AF0A8823C8
:100E100041F48CE290E09093DB078093DA0781E065
:100E20003FC08E010F5F1F4FC80163EA71E045E9C3
:100E300050E00E94EF1DC8016CE87AE045E950E0FF
:100E40000E94D11DC8016FEA71E00E94B41D82EBBF
:100E500098E0B8014AED57E02EE130E00E94970F8C
:100E6000DECF8091B2089091B30866EB71E040E16B
:100E700057E22AED37E00FE110E0E9E1EE2EF12C28
:100E80000E94E10FCCCF8091F4079091F507049771
:100E90000CF0BFCF8AE190E0BECF8BE001C080E0D4
:100EA000CA56DF4F0FB6F894DEBF0FBECDBFCF914D
:100EB000DF911F910F91FF90EF900895EF92FF92B5
:100EC0001F93DF93CF93CDB7DEB7C659D0400FB68F
:100ED000F894DEBF0FBECDBF62E270E00E94BF1D7E
:100EE0009C010097E9F160E070E010E040E050E024
:100EF0007E010894E11CF11C21C04139510521F407
:100F000080E389831A8224C0F901E40FF51F9081E0
:100F1000892F80538A3040F4F701E60FF71F908342
:100F20006F5F7F4F11E008C0113029F46C0F7D1FF7
:100F3000FB0111820FC010E04F5F5F4FF90101907C
:100F40000020E9F73197E21BF30B4E175F07A8F279
:100F5000112331F0CE0101960E94961D9C0102C022
:100F600020E030E0C901CA56DF4F0FB6F894DEBF6B
:100F70000FBECDBFCF91DF911F91FF90EF900895ED
:100F8000CF92DF92EF92FF920F931F93DF93CF9355
:100F9000CDB7DEB72A970FB6F894DEBF0FBECDBF30
:100FA0006C017B01FC0101900020E9F73197E81BFF
:100FB000F90BDB0116E0AA0FBB1F1A95E1F7389772
:100FC0006CF4FD01EF53F24F89EC9FEF908B878714
:100FD00088EC90E0928B818B138A49C0AF53B24F5B
:100FE00081E053968C93B6016F5F7F4F8E010F5F48
:100FF0001F4FC80143E050E00E94EF1D1C82C80152
:101000000E94961D9C01F6018081813319F4309570
:1010100021953F4FF701A6E0EE0FFF1FAA95E1F7DC
:10102000EF53F24F308B2787B6016B5F7F4F8E01F6
:101030000F5F1F4FC80143E050E00E94EF1D1C826C
:10104000C8010E94961D9C01F6018481813319F428
:10105000309521953F4FF6E0EE0CFF1CFA95E1F735
:1010600081EC9DE0E80EF91EF701328B218B2A9668
:101070000FB6F894DEBF0FBECDBFCF91DF911F91A9
:101080000F91FF90EF90DF90CF900895CF92DF9275
:10109000EF92FF920F931F93DF93CF93CDB7DEB7FD
:1010A0002A970FB6F894DEBF0FBECDBFFC010190AA
:1010B0000020E9F73197E81BF90B3C97ECF07C0135
:1010C00003E21BE06E010894C11CD11CC601B701EC
:1010D00042E050E00E94EF1D1B82C6010E94961D57
:1010E000F801808382E090E0E80EF91E0A5D1F4F50
:1010F0009CE00730190751F72A960FB6F894DEBF27
:101100000FBECDBFCF91DF911F910F91FF90EF9058
:10111000DF90CF900895CF92DF92EF92FF920F93DE
:101120001F93DF93CF93CDB7DEB72A970FB6F8940E
:10113000DEBF0FBECDBFFC0101900020E9F7319763
:10114000E81BF90B36972CF17C0102E21BE06E01E3
:101150000894C11CD11CC601B70141E050E00E94B7
:10116000EF1D1A82C6010E94961D813039F082302F
:1011700029F0833011F484E001C080E0F80180831D
:101180000894E11CF11C0A5D1F4FFCE006301F07AC
:1011900011F72A960FB6F894DEBF0FBECDBFCF91E0
:1011A000DF911F910F91FF90EF90DF90CF90089506
:1011B000EF92FF920F931F93DF93CF93CDB7DEB7DC
:1011C0002A970FB6F894DEBF0FBECDBF7C01FC019D
:1011D00001900020E9F73197E81BF90B359734F4BB
:1011E0001092E7088CE38093E80829C08E010F5F16
:1011F0001F4FC801B70143E050E00E94EF1D1C8261
:10120000C8010E94961D8093E8088E3118F48EE183
:101210008093E80883E090E0E80EF91E8E010F5FEE
:101220001F4FC801B70142E050E00E94EF1D1B8232
:10123000C8010E94961D8295807F8093E7082A96B8
:101240000FB6F894DEBF0FBECDBFCF91DF911F91D7
:101250000F91FF90EF900895EF92FF920F931F93DD
:10126000DF93CF93CDB7DEB7C654D0400FB6F89416
:10127000DEBF0FBECDBF8091D7079091D8078E31CA
:10128000910509F440C08F3191058CF481309105AE
:1012900049F1823091051CF4892B09F14DC18B3144
:1012A000910509F446C04C9709F046C14BC08C32F9
:1012B000910599F08D32910544F48F31910509F42F
:1012C0004EC0819709F038C176C08D32910509F47E
:1012D0002AC18E9709F030C129C180E02EC1109239
:1012E000D9072AC18CEA98E06EEB71E047ED57E030
:1012F0002EE130E00E94970F84E190E09093160D6C
:101300008093150D19C18091AC089091AD086FE4E0
:1013100071E040ED57E027ED37E00BE110E0FDE232
:10132000EF2EF12C0E94E10F843009F005C183E01B
:1013300055C08CEA98E067ED77E04CE150E00E9400
:101340007F0FFAC08091AC089091AD0868EE73E011
:1013500047ED57E02FE130E00E94B30FEDC08091E0
:10136000150D9091160D7E010894E11CF11CB7013A
:101370004AE050E00E94181E8E010C5D1F4FC8010C
:101380006DEC71E042E250E00E94EF1DC801B70130
:1013900042E250E00E94D11DC80166ED71E00E945A
:1013A000B41D8CEA98E0B80147ED57E021E230E047
:1013B0000E94970FC1C08091AC089091AD0869ED73
:1013C00071E040ED57E027ED37E00FE110E0EDE28E
:1013D000EE2EF12C0E94E10F843019F48093D9078E
:1013E000ACC0813009F0A8C085E89CE062E270E002
:1013F0000E94BF1DFC0110828091150D9091160D69
:10140000449726E230E0AC01429FC001439F900D1B
:10141000529F900D1124865E954F65E87CE042E274
:1014200050E00E94EF1D8091150D9091160D44978C
:1014300021F48AE19AE00E94D8088091150D9091DC
:10144000160D459721F480E49AE00E948B08809164
:10145000150D9091160D469721F486E69AE00E94AC
:1014600046080091150D1091160D0731110581F4F4
:101470008CE89AE061EE71E042E250E00E94E11DEA
:10148000009719F41092AF0A0CC081E08093AF0A64
:101490000831110531F482EB9AE060E070E00E94BF
:1014A000C0078091150D9091160D499731F488ED84
:1014B0009AE061E070E00E94C0070091150D109164
:1014C000160D0A31110504F10451104086E290E036
:1014D000089F7001099FF00C189FF00C11240C5EFE
:1014E0001F4F8AE19AE0E80EF91EC70161EE71E034
:1014F00042E250E00E94E11D009719F4F70113A2A7
:1015000003C081E0F70183A3C80101969093160DF3
:101510008093150D809784F08CE290E09093D8072B
:101520008093D70709C08091D90707C01092D907C7
:101530001092D8071092D70781E0CA5BDF4F0FB631
:10154000F894DEBF0FBECDBFCF91DF911F910F91F9
:10155000FF90EF900895EF92FF920F931F93DF9308
:10156000CF93CDB7DEB7C95BD0400FB6F894DEBFDE
:101570000FBECDBF8091D5079091D60781329105DE
:1015800009F4A8C08232910554F48E31910529F1F5
:101590008F319105B9F1019709F0C7C00DC08D32A7
:1015A000910509F4C4C08E32910509F4BAC08C9734
:1015B00009F0BBC080E0BCC08EEA98E06EEB71E041
:1015C00045ED57E02EE130E00E94970F84E190E076
:1015D0009093160D8093150DA8C08091AE08909140
:1015E000AF086FE471E040ED57E025ED37E00FE123
:1015F00010E0EDE2EE2EF12C0E94E10F843009F0B4
:1016000094C095C08091150D9091160D8E010F5FBD
:101610001F4FB8014AE050E00E94181EB4E2EB2EC2
:10162000F12CEC0EFD1EC70165EE71E045E950E0BE
:101630000E94EF1DC701B80145E950E00E94D11D8D
:10164000C7016EEE71E00E94B41D8091150D90915E
:10165000160D449706E410E0809FB001819F700D45
:10166000909F700D112463577D4FC70145E950E0ED
:101670000E94D11DC70160EF71E00E94B41D8091EE
:10168000150D9091160D4497809FB001819F700DAC
:10169000909F700D112466597D4FC70145E950E0B8
:1016A0000E94D11DC70166ED71E00E94B41D0E9429
:1016B0007D0F882319F0C7010E946B0E8EEA98E017
:1016C000BE016C5D7F4F45ED57E021E230E00E94A6
:1016D000970F2BC08091AE089091AF086FE471E036
:1016E00048EB5BE025ED37E00FE110E0ADE2EA2EDC
:1016F000F12C0E94E10F8430D1F08130B1F480915F
:10170000150D9091160D01969093160D8093150D61
:1017100080975CF08CE290E09093D6078093D50799
:1017200004C01092D6071092D50781E001C084E072
:10173000C754DF4F0FB6F894DEBF0FBECDBFCF91B9
:10174000DF911F910F91FF90EF900895CF92DF925C
:10175000EF92FF920F931F93DF93CF93CDB7DEB736
:10176000C456D0400FB6F894DEBF0FBECDBFE09197
:10177000ED07F091EE073197E232F10508F0D0C1A4
:10178000EA5BFF4FEE0FFF1F0590F491E02D0994E7
:1017900014E6C7C11092EA081092E90882E090E0CE
:1017A00004C12091F2073091F30780915306909184
:1017B00054062817390724F01092F3071092F20705
:1017C000E091F207F091F307EE0FFF1FEE0FFF1FFE
:1017D000E15CF94FC080D180E280F38060E078E086
:1017E00087E090E0A70196010E943D1DDA01C90142
:1017F00001970E943E0E8DB79EB708970FB6F894DA
:101800009EBF0FBE8DBFEDB7FEB731968E010F5F45
:101810001F4FADB7BEB712961C930E93119783EF6F
:1018200091E093838283C482D582E682F7820E940C
:10183000411E8DB79EB708960FB6F8949EBF0FBE97
:101840008DBFC80166ED71E00E94B41DC8010E9401
:101850006B0E8091F2079091F30701969093F30736
:101860008093F2078AEA98E06DEE77E043E050E07B
:101870000E947F0F55C18091AA089091AB0864EF38
:1018800071E04DEE57E024E030E00E94B30F48C114
:101890008AEA98E067EF71E04DEE57E025E030E02E
:1018A00030C08091AA089091AB086FE471E048EED7
:1018B00053E02DEE37E006E010E0B2E0EB2EF12C25
:1018C0000E94E10F2DC12091E9083091EA082730EC
:1018D000310534F080E00E947A0F88E090E065C026
:1018E00084E190E0289FB001299F700D389F700D12
:1018F00011246D547A4F8AEA98E04DEE57E027E0C4
:1019000030E00E94970F0CC18091AA089091AB081B
:101910006FE471E040ED57E02DEE37E006E010E0B7
:10192000A6E0EA2EF12C0E94E10F882309F4F8C00A
:101930008091E9089091EA0801969093EA088093D3
:10194000E908EEC08AEA98E06CEF71E04DEE57E0EE
:101950002EE130E00E94970F88E090E039C080913E
:10196000AA089091AB0867E072E040ED57E02DEED9
:1019700037E00AE010E0F8E0EF2EF12C0E94E10FD2
:10198000882329F08091F0078F5F8093F007809182
:10199000F00786300CF4C4C089E090E09093EE0725
:1019A0008093ED0715C08BE090E09093EE07809355
:1019B000ED07B6C081E090E09093D8078093D707F9
:1019C0008FE190E09093EE078093ED078BE090E03D
:1019D0009093DF078093DE07A3C00E942C0920911B
:1019E000D7073091D807882399F02D32310509F0B7
:1019F00097C01092D8071092D7078CE090E0909390
:101A0000EE078093ED0782E192E00E946B0E88C0A2
:101A10002C32310509F084C01092D8071092D707F4
:101A200059C081E090E09093D6078093D50782E279
:101A300090E0BBCF0E94AB0A2091D5073091D6072A
:101A4000882369F02D32310509F06AC00E94450FE4
:101A50001092D6071092D5078DE090E0A6CF2C32D9
:101A6000310509F05DC00E94450F1092D607109213
:101A7000D5078EE090E099CF81E090E09093DB076E
:101A80008093DA0788E190E090CF0E94D806809199
:101A9000DA079091DB078A31910571F08C3291055C
:101AA000E1F04997E9F50E947D0F882379F085E2FE
:101AB00092E00E946B0E0AC00E947D0F882321F0E5
:101AC0008AE392E00E946B0E1092B2051092DB073F
:101AD0001092DA078FE090E068CF0E947D0F882394
:101AE00021F08BE492E00E946B0E81E08093B205BE
:101AF000EDCF80E190E09093E7078093E607909325
:101B0000EE078093ED078FE090E09093DF078093DE
:101B1000DE071092F7071092F60702C00E94AC048D
:101B200010E00E948E02812FCC59DF4F0FB6F8943F
:101B3000DEBF0FBECDBFCF91DF911F910F91FF9000
:101B4000EF90DF90CF9008951F93CF93DF93C1E084
:101B5000D0E011E0F8940E94C20010928309109224
:101B6000E30B1092E20B1092130D1092120D0E94D3
:101B7000360F88EE93E00E94E10E82E00E947A0F19
:101B80000E94630F87E090E00E94480E8FE290E091
:101B90000E943E0E88EB9BE00E94E10E81E00E94D5
:101BA0007A0F0E94630F0E94450F88EE93E00E9417
:101BB000E10E789482E00E947A0F0E94630F0E94E7
:101BC0007D0F882321F087E592E00E946B0E81E66D
:101BD00092E00E94780E0E944B14D093EE07C093BF
:101BE000ED070E94560F0E947D0F882381F085EE3D
:101BF00098E00E94960E882351F08091E5080E949B
:101C00001A12813021F08091E5080E94530E8091D4
:101C1000140D8823D1F0F8948AE79CE064EE7BE011
:101C200045E950E00E94EF1D1092140D7894109336
:101C300083090E947D0F882341F08AE79CE00E947F
:101C40006B0E86E692E00E946B0E0E94A60B843615
:101C500009F480CF80918309882311F010928309C1
:101C60000E945F0F0E94630FBCCF9093900089B9D0
:101C700088E18AB986E0809395000895909390005A
:101C800089B988E18AB986E080939500579A0895CA
:101C9000909398008093990088E180939A0086E061
:101CA00080939D0008955D9BFECF8CB90895982F79
:101CB00080919B0085FFFCCF90939C0008955D9BD5
:101CC000FECF8CB90895982F80919B0085FFFCCFA3
:101CD00090939C000895FC0107C080919B0085FFB4
:101CE000FCCF90939C00319690819923B1F7089591
:101CF000CF93DF93EC0185E596E00E946B0ECE0159
:101D00000E946B0E04C05D9BFECF8CB9219688812A
:101D10008823C9F7DF91CF910895FC015F9902C034
:101D200080E008958CB1808381E00895FC0180916A
:101D30009B0087FD02C080E0089580919C00808315
:101D400081E008951F93A091190DB0911A0D209173
:101D50001B0D30911C0D4091170D5091180DE0E0B6
:101D6000F0E01AC040E050E020E030E004C0D901CB
:101D7000B695A7959B01B9016F5F7F4F1DEF693E37
:101D80007107A9F74F5F5F4F4436510569F73196E8
:101D900044E650E028EE3DEFE817F90718F3B0935A
:101DA0001A0DA093190D30931C0D20931B0D509309
:101DB000180D4093170DF0931E0DE0931D0D1F910C
:101DC0000895AF92BF92CF92DF92EF92FF920F935E
:101DD0001F93AA2797FDA095BA2FBC01CD010E94A1
:101DE000771A5B016C0126E636E646EE54E40E9463
:101DF000ED187B018C0120E030E040E85FE30E94B9
:101E0000471A88231CF461E070E024C0C801B701C0
:101E100020E03FEF4FE757E40E94E7191816B4F4AB
:101E2000C601B50120E030E040E251E40E94ED1827
:101E30000E94171788EB90E005C0FC013197F1F77D
:101E40006150704061157105C1F707C0C801B70145
:101E50000E941717CB010197F1F71F910F91FF9087
:101E6000EF90DF90CF90BF90AF9008958EE1809378
:101E700064008FEF81BB12B81092610082E0809302
:101E8000650080EF82BB13B808958091690281607C
:101E90008093690282BB8CED95E00E94E10E8091F7
:101EA00069028E7F8093690282BB089581B180951B
:101EB000807F9091E70889278093110D0895809184
:101EC000690282BB08958091100D880F880F880FDA
:101ED000816080958093650008959091100D982BF6
:101EE0009093100D089580959091100D98239093E4
:101EF000100D08958093100D089581E00895CF92FC
:101F0000DF92EF92FF920F931F938C016B017A0186
:101F10000E948900F80191838083F601F182E082BA
:101F20001F910F91FF90EF90DF90CF900895CF9287
:101F3000DF92EF92FF920F931F936C01CB017A0116
:101F400089010E94780E0E948900F60191838083A6
:101F5000F7011183008381E01F910F91FF90EF90B3
:101F6000DF90CF9008958F929F92AF92BF92CF92C1
:101F7000DF92EF92FF920F931F93CF93DF938C0129
:101F80006B014A01E9010E9489005C01EE24FF24F3
:101F9000C701B6010E949200A01AB10AA816B9069C
:101FA00018F0F401D183C083DF91CF911F910F917D
:101FB000FF90EF90DF90CF90BF90AF909F908F9069
:101FC00008954F925F926F927F928F929F92AF92FD
:101FD000BF92CF92DF92EF92FF920F931F93CF9316
:101FE000DF936C013B014A01E90128010E9489004D
:101FF0008C01AA24BB24C501B4010E9492000C19D3
:102000001D090817190720F0F982E88284E010C042
:1020100080918309882359F08AE79CE0B3010E94EC
:10202000FE1D009721F05982488281E001C080E0C6
:10203000DF91CF911F910F91FF90EF90DF90CF90A4
:10204000BF90AF909F908F907F906F905F904F90D8
:10205000089560E676E00E94FE1D9C0180E0232B3F
:1020600009F081E0089563E676E00E94FE1D9C0180
:1020700080E0232B09F081E008955F9902C081E0A0
:1020800008959CB19093E60880919B0085FFFCCF5A
:1020900090939C004091E20B5091E30B4139510524
:1020A0006CF080919B0085FFFCCF89E380939C00BE
:1020B0001092E30B1092E20B8AE00895FA01EC57BC
:1020C000F64F9083141615061CF59A0121503040E6
:1020D000F901EC57F64F80818D30D1F49A30C1F47C
:1020E0003093E30B2093E20B10823093130D209377
:1020F000120D8AE79CE064E879E00E94EF1D1092DF
:10210000E30B1092E20B81E08093830980E0089555
:102110004F5F5F4F5093E30B4093E20B82E00895D3
:102120001F920F920FB60F920BB60F9211242F939E
:102130003F934F935F936F937F938F939F93AF934F
:10214000BF93EF93FF932CB18091E20B9091E30B3F
:10215000FC01EC57F64F208301969093E30B80939C
:10216000E20B813991052CF42A30E9F48430910591
:10217000B4F0FC01EE57F64F1082FC01EF57F64F1A
:1021800080818D3009F4108284EE9BE064E879E070
:1021900045E950E00E94EF1D81E08093140D1092FC
:1021A000E30B1092E20BFF91EF91BF91AF919F91E2
:1021B0008F917F916F915F914F913F912F910F90F0
:1021C0000BBE0F900FBE0F901F9018958F929F928D
:1021D000AF92BF92CF92DF92EF92FF920F931F9335
:1021E000DF93CF93CDB7DEB7C05AD0400FB6F89487
:1021F000DEBF0FBECDBF8E01055F1F4FC8016EE66B
:1022000076E045E950E00E94EF1D8091E80890E0FB
:102210007E010894E11CF11CB7014AE050E00E94E5
:10222000181EC801B70145E950E00E94D11DC80140
:1022300066E776E00E94B41D8091E70890E0B70160
:102240004AE050E00E94181EC801B70145E950E07D
:102250000E94D11DC80169E776E00E94B41DC80143
:102260000E946B0E51E2C52E5BE0D52E46E0A42EF7
:10227000B12C36E2832E912CA89CB001A99C700D44
:10228000B89C700D1124665E754FC80145E950E099
:102290000E94EF1DC80166E776E00E94B41DF601BA
:1022A0008081992787FD9095B7014AE050E00E9410
:1022B000181EC801B70145E950E00E94D11DC801B0
:1022C00066E776E00E94B41DF6018181992787FDBB
:1022D0009095B7014AE050E00E94181EC801B7016E
:1022E00045E950E00E94D11DC80166E776E00E94F2
:1022F000B41DF6018281992787FD9095B7014AE0C8
:1023000050E00E94181EC801B70145E950E00E9444
:10231000D11DC80166E776E00E94B41DC80169E7D7
:1023200076E00E94B41DC8010E946B0E0894A11CA7
:10233000B11C86E290E0C80ED91E9CE0A916B1043B
:1023400009F09ACFC8016CE776E045E950E00E94B9
:10235000EF1D8091D00D9091D10DB7014AE050E072
:102360000E94181EC801B70145E950E00E94D11D26
:10237000C80166E776E00E94B41D8091D20D90916D
:10238000D30DB7014AE050E00E94181EC801B70102
:1023900045E950E00E94D11DC80169E776E00E943E
:1023A000B41DC8010E946B0EC80167E876E045E9DC
:1023B00050E00E94EF1D8091100E9091110EB70118
:1023C0004AE050E00E94181EC801B70145E950E0FC
:1023D0000E94D11DC80166E776E00E94B41D80917D
:1023E000120E9091130EB7014AE050E00E94181EA1
:1023F000C801B70145E950E00E94D11DC80169E755
:1024000076E00E94B41DC8010E946B0EC056DF4FDB
:102410000FB6F894DEBF0FBECDBFCF91DF911F91F5
:102420000F91FF90EF90DF90CF90BF90AF909F9073
:102430008F900895DF93CF930F92CDB7DEB71982B7
:10244000863391F0873344F48D3259F08133F9F1BA
:102450008A3209F03FC018C0873361F08036D1F569
:1024600031C00E94E61036C08091C6069091C70622
:10247000019705C08091C6069091C706019690937A
:10248000C7068093C60626C09091CE0D80919B0012
:1024900085FFFCCF905D90939C0080919B0085FF11
:1024A000FCCF80E280939C0090910E0E80919B0067
:1024B00085FFFCCF905D90939C0089E796E00E9499
:1024C0006B0E08C00E94450F81E0898303C082E043
:1024D0008093830989810F90CF91DF9108958F9226
:1024E0009F92AF92BF92CF92DF92EF92FF920F93A3
:1024F0001F93DF93CF9300D00F92CDB7DEB76B0160
:102500007C0100E010E04E010894811C911C62E9FE
:10251000A62E66E0B62E34C000D000D000D0EDB7B5
:10252000FEB73196ADB7BEB712969C928E921197B8
:10253000B382A282D7018C91992787FD90959583CC
:1025400084830E94411E99812DB73EB72A5F3F4F79
:102550000FB6F8943EBF0FBE2DBF80919B0085FF44
:10256000FCCF90939C009A8180919B0085FFFCCFCB
:1025700090939C000F5F1F4F82E090E0E80EF91EE1
:102580000C151D054CF20F900F900F90CF91DF911D
:102590001F910F91FF90EF90DF90CF90BF90AF9081
:1025A0009F908F900895CF92DF92EF92FF920F93BA
:1025B0001F93DF93CF9300D00F92CDB7DEB78C017E
:1025C0006E010894C11CD11C72E9E72E76E0F72E4B
:1025D0002DC000D000D000D0EDB7FEB73196ADB71A
:1025E000BEB71296DC92CE921197F382E2829927BF
:1025F00087FD9095958384830E94411E9981EDB754
:10260000FEB736960FB6F894FEBF0FBEEDBF8091B1
:102610009B0085FFFCCF90939C009A8180919B004A
:1026200085FFFCCF90939C000F5F1F4FD8018C91CA
:10263000882379F60F900F900F90CF91DF911F9123
:102640000F91FF90EF90DF90CF900895882371F560
:10265000809162008E7F8093620080916100816032
:10266000809361008AEB91E001C0000001972FEF99
:102670008F3F9207D1F7809161008E7F8093610038
:1026800087E390E001C0000001972FEF8F3F920792
:10269000D1F780B123E831E001C000002150304083
:1026A0009FEF2F3F3907C9F781700895809162002D
:1026B0008D7F8093620080916100826080936100D1
:1026C0008AEB91E001C0000001972FEF8F3F920746
:1026D000D1F7809161008D7F8093610087E390E066
:1026E00001C0000001972FEF8F3F9207D1F780B113
:1026F00023E831E001C00000215030409FEF2F3F20
:102700003907C9F782700895982F6623F1F48091F4
:1027100062008E7F8093620080916100816080936F
:102720006100992329F0809161008E7F8093610080
:1027300087E390E001C0000001972FEF8F3F9207E1
:10274000D1F7809161008E7F1DC0809162008D7FE6
:102750008093620080916100826080936100992380
:1027600029F0809161008D7F8093610087E390E084
:1027700001C0000001972FEF8F3F9207D1F78091A2
:1027800061008D7F809361000895882329F58091F1
:1027900062008E7F809362008091610081608093EF
:1027A0006100809161008E7F809361008CE090E0F9
:1027B00001C0000001972FEF8F3F9207D1F780B142
:1027C00029E230E001C00000215030409FEF2F3F50
:1027D0003907C9F781700895809162008D7F8093D9
:1027E000620080916100826080936100809161004D
:1027F0008D7F809361008CE090E001C00000019724
:102800002FEF8F3F9207D1F780B129E230E001C06E
:102810000000215030409FEF2F3F3907C9F790E06B
:102820009695879581700895FF920F931F93F82EC8
:1028300008E010E00AC08F2D0E94C513912F9695D5
:10284000182F179511271795192B0150A0F7812FD5
:102850001F910F91FF900895FF920F931F93082FE0
:10286000F62E18E006C0802F81706F2D0E94841311
:1028700006951150C0F71F910F91FF900895809118
:1028800069028F7B80936902089580916902806458
:10289000809369020895EEECFDE0DF019B9627E14D
:1028A00030E089E190E041E01182108217821086C9
:1028B000118612861C9212961C92129713961C92E5
:1028C000139714961C92149715961C9215973383A0
:1028D0002283958384831386148611961C92119704
:1028E00017961C9217974683E05CFF4FA05CBF4F82
:1028F0005EE0EE34F507C1F60895DC0120E040E02B
:1029000050E098E115C0FD01E40FF51FE08138E0CB
:102910008E2F8227F82FF17080FD29272695F13020
:1029200009F42068315011F0E695F2CF4F5F5F4F08
:102930004617570741F7822F08956F927F928F9223
:102940009F92AF92BF92CF92DF92EF92FF920F933E
:102950001F93DF93CF93CDB7DEB7CA5AD0400FB6DF
:10296000F894DEBF0FBECDBF4C011B8654EDE52EA3
:102970005DE0F52E45E2A42EB12CAE0CBF1CCC249C
:10298000DD248E01055F1F4F3E010894611C711C00
:10299000F7018081882309F44CC0C80167E976E01B
:1029A0000E94B41DC6010196B3014AE050E00E94A6
:1029B000181EC801B3010E94B41DC80169E976E080
:1029C0000E94B41DF5018081813021F4C8016BE9BA
:1029D00076E011C0F5018681813021F4C80162EAF8
:1029E00076E009C0B60136E0660F771F3A95E1F749
:1029F0006552724FC8010E94B41DC80169EA76E0B1
:102A00000E94B41DF7018181813029F4C8016CEA6C
:102A100076E00E94B41DF7018281813029F4C8015B
:102A200065EB76E00E94B41DC8016EEB76E00E9473
:102A3000B41D0894C11CD11C80E490E0E80EF91E7E
:102A4000A80EB91E92E0C916D10409F0A1CFC401A5
:102A5000BE01655F7F4F0E94CA1DC655DF4F0FB68E
:102A6000F894DEBF0FBECDBFCF91DF911F910F91C4
:102A7000FF90EF90DF90CF90BF90AF909F908F909E
:102A80007F906F9008950F931F938091F607909118
:102A9000F7078130910519F04E9771F512C00E9429
:102AA00089009093420E8093410E809169028F7B42
:102AB000809369028EE190E09093F7078093F60788
:102AC0001BC00E9489002091410E3091420E8C0162
:102AD000021B130B68E97AE380E090E00E94920009
:102AE0000817190748F08091690280648093690291
:102AF0001092F7071092F6071F910F910895CF9249
:102B0000DF92EF92FF920F931F93CF93DF937C019D
:102B10006C0176E0CC0CDD1C7A95E1F7E601CF5331
:102B2000D24F8D859E858F31910509F468C0803222
:102B300091053CF48130910581F04E9709F06DC10B
:102B40001EC08132910509F4D7C0813291050CF481
:102B500096C0829709F061C14EC18E2D0E94261346
:102B60008CEC6E2D0E942C1484E46E2D0E942C148B
:102B70000E9489009C878B878EE190E094C08E2D07
:102B80000E94C513882331F01BAE1AAE18AE8FE138
:102B900090E089C00E9489002B853C858C01021B36
:102BA000130B64E670E080E090E00E9492008017D2
:102BB000910708F032C11E861D869AAD9431D4F07B
:102BC0008BAD981761F081E088AF89AF1C8A1D8AB0
:102BD000C6018552924F60EC76E00E94CA1DF70153
:102BE00066E0EE0FFF1F6A95E1F7EF53F24F82ADFB
:102BF00083AF03C09BAF9F5F9AAF81E00FC1DE2C14
:102C00008E2D0E9426138CEC6E2D0E942C148EEBC0
:102C10006E2D0E942C148E2D0E94141488838E2DEC
:102C20000E9414148983F70156E0EE0FFF1F5A9596
:102C3000E1F7ED53F24F988190838B83870146E053
:102C4000000F111F4A95E1F70B53124FC2E0D0E07D
:102C50008D2D0E941414D8018D938D012196C930B9
:102C6000D105B1F736E0EE0CFF1C3A95E1F7E1EC47
:102C7000FDE0EE0EFF1E80E290E0D701B7C0C70175
:102C800026E0880F991F2A95E1F78D53924F68E04F
:102C900070E00E947D149A85891741F41DAE1CAE28
:102CA0001EAE81E290E09E878D87B7C0C601855237
:102CB000924F60EC76E00E94CA1D1E861D869CAD78
:102CC000FE01FD9694319CF08081981729F081E0F7
:102CD0008EAF8FAF1C8A1D8AF70106E0EE0FFF1F33
:102CE0000A95E1F7EF53F24F84AD85AF03C09083AF
:102CF0009F5F9CAF82E092C02881398114E03595B6
:102D000027951A95E1F7398328838C898E8B8D89D5
:102D10008F8B8F859889281739071CF481E08C8B5D
:102D200001C01C8AF701B6E0EE0FFF1FBA95E1F76C
:102D3000EF53F24F20813181818992898217930765
:102D40001CF481E0858B01C0158AF701A6E0EE0F27
:102D5000FF1FAA95E1F7EF53F24F8689882321F4EC
:102D60008489813009F4808FF70176E0EE0FFF1F30
:102D70007A95E1F7EF53F24F8789882321F485890B
:102D8000813009F4818F00D000D000D0EDB7FEB7BC
:102D90003196870166E0000F111F6A95E1F7C801BF
:102DA0008552924FADB7BEB712969C938E931197F2
:102DB00082EC96E0938382830F53124FD8018D915A
:102DC0009C91958384830E94411EEDB7FEB7369691
:102DD0000FB6F894FEBF0FBEEDBF0E948900D80168
:102DE0001C969C938E931B9782E290E01E969C9378
:102DF0008E931D9712C00E9489002B853C858C0103
:102E0000021B130B68E873E180E090E00E949200DF
:102E10008017910710F41E861D8680E0DF91CF9108
:102E20001F910F91FF90EF90DF90CF900895EF9258
:102E3000FF920F931F937B018C0120E030E040E074
:102E40005FE40E94171A88238CF0C801B70120E0C4
:102E500030E040E05FE40E948F180E94D51A9B0189
:102E6000AC01205030404040504806C0C801B70176
:102E70000E94D51A9B01AC01B901CA011F910F91A3
:102E8000FF90EF900895A0E0B0E0E9E4F7E10C9442
:102E90005F1DDC012B01FA019C91923008F439C1CD
:102EA000EB018881823008F433C1943069F48430B6
:102EB00009F02FC111969C9111978981981709F4F7
:102EC00028C1A8ECB6E025C1843009F421C18230C4
:102ED000A9F4923009F01DC19A01AD0188E0EA0120
:102EE0000990AE01E90109929E018150C1F7E2010A
:102EF000898111969C918923818308C1923009F4BC
:102F000007C112962D903C901397EB018A819B810B
:102F10001496AD90BD90CD90DC901797EC80FD801D
:102F20000E811F819101281B390BB90137FF04C0A5
:102F300066277727621B730B603271050CF061C046
:102F4000121613066CF537014801062E04C096943C
:102F50008794779467940A94D2F721E030E040E0B8
:102F600050E004C0220F331F441F551F6A95D2F74B
:102F700021503040404050402E213F2140235123DA
:102F8000211531054105510521F021E030E040E0F7
:102F900050E079018A01E628F728082919293CC060
:102FA000232BD1F1260E371E35014601062E04C013
:102FB00096948794779467940A94D2F721E030E04E
:102FC00040E050E004C0220F331F441F551F6A9594
:102FD000D2F721503040404050402A213B214C2123
:102FE0005D21211531054105510521F021E030E039
:102FF00040E050E059016A01A628B728C828D9281E
:103000000BC0821593052CF01C01AA24BB2465017A
:1030100003C0EE24FF24870111969C91D2011196E2
:103020008C91981709F445C0992339F0A8019701AC
:103030002A193B094C095D0906C0A60195012E1904
:103040003F09400B510B57FD08C011823382228289
:1030500024833583468357831DC081E08183338277
:10306000228288279927DC01821B930BA40BB50BC6
:1030700084839583A683B7830DC0220F331F441F1B
:10308000551F24833583468357838281938101971B
:10309000938382832481358146815781DA01C90176
:1030A0000197A109B1098F5F9F4FAF4FBF4328F32D
:1030B0000BC0918333822282EA0CFB1C0C1D1D1D68
:1030C000E482F5820683178383E08083248135813F
:1030D0004681578157FF1AC0C901AA2797FDA095BD
:1030E000BA2F81709070A070B07056954795379543
:1030F0002795822B932BA42BB52B84839583A683B2
:10310000B78382819381019693838283DF0101C01B
:10311000D201CD01CDB7DEB7E2E10C947B1DA0E278
:10312000B0E0E5E9F8E10C946B1D69837A838B8349
:103130009C832D833E834F835887E9E0EE2EF12C4C
:10314000EC0EFD1ECE010196B7010E944D1C8E01B2
:103150000F5E1F4FCE010596B8010E944D1C8A8953
:1031600091E089278A8BC701B801AE01475E5F4FA6
:103170000E9443170E94781BA096E6E00C94871DDE
:10318000A0E2B0E0E6ECF8E10C946B1D69837A8371
:103190008B839C832D833E834F835887F9E0EF2EEA
:1031A000F12CEC0EFD1ECE010196B7010E944D1CC4
:1031B0008E010F5E1F4FCE010596B8010E944D1C77
:1031C000C701B801AE01475E5F4F0E9443170E94DE
:1031D000781BA096E6E00C94871DA0E2B0E0E3EF38
:1031E000F8E10C945F1D69837A838B839C832D8324
:1031F0003E834F835887CE010196BE01675F7F4FA4
:103200000E944D1CCE010596BE016F5E7F4F0E944D
:103210004D1C9985923088F089898230C8F09430AD
:1032200019F4823051F404C0843029F4923081F4CE
:1032300088EC96E0C6C0923049F420E09A858A89ED
:10324000981321E02A87CE010996BBC0823049F449
:1032500020E09A858A89981321E02A8BCE01419635
:10326000B0C02D843E844F8458886D887E888F88B6
:10327000988CEE24FF248701AA24BB24650140E03A
:1032800050E060E070E0E0E0F0E0C101817090703B
:10329000892BE9F0E60CF71C081D191D9A01AB01FA
:1032A0002A0D3B1D4C1D5D1D80E090E0A0E0B0E0CC
:1032B000E614F7040805190520F481E090E0A0E089
:1032C000B0E0BA01A901480F591F6A1F7B1FAA0C61
:1032D000BB1CCC1CDD1C97FE08C081E090E0A0E088
:1032E000B0E0A82AB92ACA2ADB2A3196E032F105D1
:1032F00049F0660C771C881C991C569447943794A7
:103300002794C3CFFA85EA892B893C898B859C85D4
:10331000280F391F2E5F3F4F17C0CA018170907070
:10332000892B61F016950795F794E79480E090E07B
:10333000A0E0B0E8E82AF92A0A2B1B2B76956795BE
:10334000579547952F5F3F4F77FDE7CF0CC0440F50
:10335000551F661F771F17FD4160EE0CFF1C001FF5
:10336000111F21503040403090E0590790E069072C
:1033700090E4790760F32B8F3C8FDB01CA018F77D4
:103380009070A070B07080349105A105B10561F412
:1033900047FD0AC0E114F1040105110529F0405C64
:1033A0005F4F6F4F7F4F40781A8EFE1711F081E00C
:1033B0008A8F4D8F5E8F6F8F78A383E0898FCE01C8
:1033C00049960E94781BA096E2E10C947B1DA8E12F
:1033D000B0E0EDEEF9E10C946B1D69837A838B8389
:1033E0009C832D833E834F83588789E0E82EF12C00
:1033F000EC0EFD1ECE010196B7010E944D1C8E0100
:103400000F5E1F4FCE010596B8010E944D1C8985A5
:10341000823040F08989823028F0C701B8010E94CB
:10342000C51C01C08FEF6896E6E00C94871DA8E1EB
:10343000B0E0EDE1FAE10C946B1D69837A838B8334
:103440009C832D833E834F83588789E0E82EF12C9F
:10345000EC0EFD1ECE010196B7010E944D1C8E019F
:103460000F5E1F4FCE010596B8010E944D1C898545
:10347000823040F08989823028F0C701B8010E946B
:10348000C51C01C08FEF6896E6E00C94871DA8E18B
:10349000B0E0EDE4FAE10C946B1D69837A838B83D1
:1034A0009C832D833E834F83588789E0E82EF12C3F
:1034B000EC0EFD1ECE010196B7010E944D1C8E013F
:1034C0000F5E1F4FCE010596B8010E944D1C8985E5
:1034D000823040F08989823028F0C701B8010E940B
:1034E000C51C01C081E06896E6E00C94871DA8E049
:1034F000B0E0EDE7FAE10C94681D9B01AC0183E0BC
:103500008983DA01C9018827B7FD83959927AA27FE
:10351000BB27B82E211531054105510519F482E06C
:1035200089833AC08823A9F0203080E0380780E002
:10353000480780E8580729F460E070E080E09FECDD
:1035400030C0EE24FF248701E21AF30A040B150BA6
:1035500002C079018A018EE1C82ED12CDC82CB8297
:10356000ED82FE820F831887C801B7010E94291BD4
:1035700001971816190684F4082E04C0EE0CFF1CDF
:10358000001F111F0A94D2F7ED82FE820F83188765
:10359000C81AD90ADC82CB82BA82CE0101960E9477
:1035A000781B2896E9E00C94841DACE0B0E0EBEDCC
:1035B000FAE10C946F1D69837A838B839C83CE011F
:1035C0000196BE016B5F7F4F0E944D1C8D81823042
:1035D00061F1823050F1843021F48E81882351F1E1
:1035E0002EC02F81388537FD20C06E812F313105E7
:1035F0001CF06623F9F023C08EE190E0821B930B50
:1036000029853A854B855C8504C056954795379545
:1036100027958A95D2F76623B1F05095409530955D
:1036200021953F4F4F4F5F4F0EC020E030E040E00C
:1036300050E009C02FEF3FEF4FEF5FE704C020E0FD
:1036400030E040E050E8B901CA012C96E2E00C9469
:103650008B1DEF92FF920F931F937B018C0180E0F3
:10366000E81680E0F80681E0080780E0180788F493
:103670008FEFE816F1040105110531F028F088E01C
:1036800090E0A0E0B0E017C080E090E0A0E0B0E003
:1036900012C080E0E81680E0F80680E0080781E0CC
:1036A000180728F088E190E0A0E0B0E004C080E1D5
:1036B00090E0A0E0B0E020E230E040E050E0281BE5
:1036C000390B4A0B5B0B04C016950795F794E794EA
:1036D0008A95D2F7F701E053F94F8081281B310911
:1036E00041095109C9011F910F91FF90EF90089571
:1036F000DF92EF92FF920F931F93FC01E480F5801D
:1037000006811781D1808081823048F480E090E08A
:10371000A0E1B0E0E82AF92A0A2B1B2BA5C08430CF
:1037200009F49FC0823021F4EE24FF24870105C0F4
:10373000E114F1040105110519F4E0E0F0E096C090
:10374000628173819FEF623879070CF05BC022E8D9
:103750003FEF261B370B2A3131052CF020E030E0FB
:1037600040E050E02AC0B801A701022E04C07695BF
:103770006795579547950A94D2F781E090E0A0E0CD
:10378000B0E004C0880F991FAA1FBB1F2A95D2F76B
:103790000197A109B1098E219F21A023B123009790
:1037A000A105B10521F081E090E0A0E0B0E09A0130
:1037B000AB01282B392B4A2B5B2BDA01C9018F7700
:1037C0009070A070B07080349105A105B10539F4F6
:1037D00027FF09C0205C3F4F4F4F5F4F04C0215C63
:1037E0003F4F4F4F5F4FE0E0F0E02030A0E03A075E
:1037F000A0E04A07A0E45A0710F0E1E0F0E0790108
:103800008A0127C06038710564F5FB01E158FF4F5C
:10381000D801C7018F779070A070B0708034910587
:10382000A105B10539F4E7FE0DC080E490E0A0E009
:10383000B0E004C08FE390E0A0E0B0E0E80EF91E35
:103840000A1F1B1F17FF05C016950795F794E794ED
:10385000319687E016950795F794E7948A95D1F706
:1038600005C0EE24FF248701EFEFF0E06E2F67958F
:1038700066276795902F9F77D794DD24D7948E2F56
:103880008695492F462B582F5D29B701CA011F91F4
:103890000F91FF90EF90DF900895FC01DB014081D4
:1038A00051812281622F6F7770E0221F2227221F11
:1038B0009381892F880F822B282F30E0991F992719
:1038C000991F11969C93119721153105A9F5411562
:1038D00051056105710511F482E037C082E89FEF60
:1038E00013969C938E9312979A01AB0167E0220F77
:1038F000331F441F551F6A95D1F783E08C930DC089
:10390000220F331F441F551F12968D919C911397C0
:10391000019713969C938E931297203080E038077E
:1039200080E0480780E4580758F314962D933D93A0
:103930004D935C93179708952F3F310579F4411506
:1039400051056105710519F484E08C93089564FFB5
:1039500003C081E08C9312C01C9210C02F573040DE
:1039600013963C932E93129783E08C9387E0440F39
:10397000551F661F771F8A95D1F7706414964D9373
:103980005D936D937C93179708951F93DC01FB0162
:103990009C91923008F447C08081823008F443C083
:1039A000943051F411961C91843099F58181682FDF
:1039B00070E0611B71093FC0843021F0923031F416
:1039C0008230B9F18181882389F12DC011961C9133
:1039D00011978230F1F081811817D9F412962D9148
:1039E0003C911397828193818217930794F0281753
:1039F0003907BCF014968D919D910D90BC91A02D2E
:103A00002481358146815781281739074A075B078A
:103A100018F4112341F00AC082179307A407B507D1
:103A200040F4112319F061E070E005C06FEF7FEF03
:103A300002C060E070E0CB011F910895629FD00149
:103A4000739FF001829FE00DF11D649FE00DF11D59
:103A5000929FF00D839FF00D749FF00D659FF00D08
:103A60009927729FB00DE11DF91F639FB00DE11DF5
:103A7000F91FBD01CF0111240895A1E21A2EAA1B3E
:103A8000BB1BFD010DC0AA1FBB1FEE1FFF1FA2170E
:103A9000B307E407F50720F0A21BB30BE40BF50B0B
:103AA000661F771F881F991F1A9469F76095709594
:103AB000809590959B01AC01BD01CF0108952F9297
:103AC0003F924F925F926F927F928F929F92AF92AE
:103AD000BF92CF92DF92EF92FF920F931F93CF93FB
:103AE000DF93CDB7DEB7CA1BDB0B0FB6F894DEBF92
:103AF0000FBECDBF09942A88398848885F846E84B8
:103B00007D848C849B84AA84B984C884DF80EE8001
:103B1000FD800C811B81AA81B981CE0FD11D0FB60A
:103B2000F894DEBF0FBECDBFED010895FC018827DC
:103B30009927E89421912032E9F3293010F02E30B2
:103B4000C8F32B3241F02D3239F4689404C00E943E
:103B5000391E820F911D219120532A30C0F31EF48B
:103B6000909581959F4F0895FB01DC010D900020F9
:103B7000E9F7119701900D920020E1F70895FC01FB
:103B80008191861721F08823D9F7992708953197D5
:103B9000CF010895FB01DC0101900D920020E1F7B7
:103BA0000895FB01DC010D900020E9F711974150C9
:103BB000504028F0019000200D92C9F708951C9202
:103BC0000895FB01DC014150504030F08D9101908F
:103BD000801919F40020B9F7881B990B0895FB018F
:103BE000DC014150504048F001900D920020C9F78F
:103BF00001C01D9241505040E0F70895FB015191E2
:103C00005523A9F0BF01DC014D9145174111E1F7A2
:103C100059F4CD010190002049F04D91401541111A
:103C2000C9F3FB014111EFCF81E090E001970895C6
:103C3000FB019F01E8944230C4F04532B4F44A30AD
:103C400029F497FB1EF4909581959F4F642F772759
:103C50000E942821805D8A330CF0895D8193CB011D
:103C60000097A1F716F45DE251931082C9010C94FC
:103C70008E207AE0979F902D879F802D910D1124A3
:103C800008950F931F93DF93CF93CDB7DEB72E9791
:103C90000FB6F894DEBF0FBECDBF0D891E8986E03A
:103CA0008C831A8309838FEF9FE79E838D839E0108
:103CB000275E3F4FCE0101966F89788DA9010E9442
:103CC000721E2F813885020F131FF80110822E9665
:103CD0000FB6F894DEBF0FBECDBFCF91DF911F911D
:103CE0000F9108952F923F924F925F926F927F9221
:103CF0008F929F92AF92BF92CF92DF92EF92FF92FC
:103D00000F931F93DF93CF93CDB7DEB72B970FB6EB
:103D1000F894DEBF0FBECDBF3C012B015A01FC0160
:103D200017821682838181FD03C06FEF7FEFC6C1CA
:103D30009AE0892E1E010894211C311CF301238175
:103D4000F20123FD859123FF81912F01882309F43E
:103D5000B2C1853239F423FD859123FF81912F0172
:103D6000853229F490E0B3010E949E20E7CF982F7E
:103D7000FF24EE249924FFE1FF15D0F09B3269F077
:103D80009C3228F4903259F0933291F40EC09D3257
:103D900049F0903369F441E024C052E0F52A84E010
:103DA000F82A28C098E0F92A25C0E0E1FE2A22C0BE
:103DB000F7FC29C0892F80538A3070F4F6FE05C0C5
:103DC000989C902C1124980E15C0E89CE02C11248E
:103DD000E80EF0E2FF2A0EC09E3229F4F6FC6BC119
:103DE00040E4F42A07C09C3619F450E8F52A02C0D2
:103DF000983649F4F20123FD959123FF91912F010B
:103E0000992309F0B8CF892F8554833018F0805258
:103E1000833038F444E050E0A40EB51E5FE35983CC
:103E20000FC0933631F0933779F0933509F056C0CF
:103E300020C0F5018081898342E050E0A40EB51EC8
:103E4000610101E010E012C0F501C080D180F6FCF4
:103E500003C06FEF7FEF02C0692D70E042E050E0D9
:103E6000A40EB51EC6010E9483208C015FE7F522D7
:103E700014C0F501C080D180F6FC03C06FEF7FEF66
:103E800002C0692D70E042E050E0A40EB51EC601EC
:103E90000E9478208C0150E8F52AF3FE07C01AC072
:103EA00080E290E0B3010E949E20EA948E2D90E083
:103EB00008171907A8F30EC0F601F7FC8591F7FE65
:103EC00081916F0190E0B3010E949E20E110EA947D
:103ED000015010400115110579F7EAC0943611F030
:103EE000993669F5F7FE08C0F501208131814281DC
:103EF000538184E090E00AC0F501808191819C01AA
:103F0000442737FD4095542F82E090E0A80EB91E5B
:103F10009FE6F92257FF09C05095409530952195AD
:103F20003F4F4F4F5F4FE0E8FE2ACA01B901A101A0
:103F30002AE030E00E94CA20D82ED21840C095371F
:103F400029F41F2D1F7E2AE030E01DC01F2D197F90
:103F50009F3661F0903720F4983509F0ACC00FC05F
:103F6000903739F0983709F0A6C004C028E030E057
:103F70000AC0106114FD146020E130E004C014FD9B
:103F8000166020E132E017FF08C0F5016081718101
:103F90008281938144E050E008C0F50180819181E5
:103FA000BC0180E090E042E050E0A40EB51EA1010B
:103FB0000E94CA20D82ED2188FE7F82EF122F6FEE2
:103FC0000BC05EEFF522D91438F4F4FE07C0F2FC02
:103FD00005C08FEEF82202C01D2D01C0192DF4FE80
:103FE0000DC0FE01ED0DF11D8081803319F499EEB5
:103FF000F92208C01F5FF2FE05C003C08F2D86782E
:1040000009F01F5F0F2DF3FC14C0F0FE0FC01E154A
:1040100010F09D2C0BC09D2C9E0C911A1E2D06C0DD
:1040200080E290E0B3010E949E201F5F1E15C0F346
:1040300004C01E1510F4E11A01C0EE2404FF0FC0E5
:1040400080E390E0B3010E949E2002FF1DC001FDAD
:1040500003C088E790E00EC088E590E00BC0802F99
:10406000867891F001FF02C08BE201C080E2F7FC8C
:104070008DE290E0B3010E949E2006C080E390E0B4
:10408000B3010E949E209A94D914C0F3DA94F101EE
:10409000ED0DF11D808190E0B3010E949E20DD2096
:1040A000A9F706C080E290E0B3010E949E20EA9446
:1040B000EE20C1F743CEF30166817781CB012B96C9
:1040C0000FB6F894DEBF0FBECDBFCF91DF911F9129
:1040D0000F91FF90EF90DF90CF90BF90AF909F90A7
:1040E0008F907F906F905F904F903F902F900895AA
:1040F000FC010590615070400110D8F780959095B3
:104100008E0F9F1F0895FC016150704001900110B7
:10411000D8F7809590958E0F9F1F0895DC01FC01C4
:10412000672F71917723E1F7329704C07C916D93EB
:1041300070836291AE17BF07C8F308950F931F9362
:10414000CF93DF938C01EB018B8181FF1BC082FF3A
:104150000DC02E813F818C819D812817390764F421
:10416000E881F9810193F983E88306C0E885F98540
:10417000802F0995892B31F48E819F8101969F8331
:104180008E8302C00FEF1FEFC801DF91CF911F9107
:104190000F910895FA01AA27283051F1203181F1B9
:1041A000E8946F936E7F6E5F7F4F8F4F9F4FAF4F3F
:1041B000B1E03ED0B4E03CD0670F781F891F9A1F52
:1041C000A11D680F791F8A1F911DA11D6A0F711D06
:1041D000811D911DA11D20D009F468943F912AE012
:1041E000269F11243019305D3193DEF6CF010895FA
:1041F000462F4770405D4193B3E00FD0C9F7F6CF2B
:10420000462F4F70405D4A3318F0495D31FD4052F2
:10421000419302D0A9F7EACFB4E0A6959795879588
:1042200077956795BA95C9F7009761057105089567
:104230009B01AC010A2E0694579547953795279513
:10424000BA95C9F7620F731F841F951FA01D0895AB
:10425000AA1BBB1B51E107C0AA1FBB1FA617B707AC
:1042600010F0A61BB70B881F991F5A95A9F78095C8
:0C4270009095BC01CD010895F894FFCF9B
:10427C0061742B6370696E3F002B4350494E3A209A
:10428C005245414459000A0D002B434C49503A20E9
:10429C0022006174680D0A0052494E47004E4F20AF
:1042AC00434152524945520061742B636D67733D13
:1042BC002200220D0A001A002B434D47533A004F9F
:1042CC004B00536E7961746F212020004E61727522
:1042DC007368656E206B6F6E7475720020310020F0
:1042EC00320020330020340020004F6872616E6170
:1042FC0021202000414C41524D204E617275736853
:10430C00656E206B6F6E7475722000414C41524D7E
:10431C0021200061742B637573643D312C220022C3
:10432C002C31350D0A002B435553443A200041548F
:10433C002B435042533D22534D220D0A0041542B26
:10434C00435042523D000D0A002B435042523A203A
:10435C00003030300041542B435042573D002C006C
:10436C002C2C00256C640041540D0A0061742B63E5
:10437C007265673F0D0A002B435245473A20312C9A
:10438C003100637377577269746553657474696E21
:10439C0067730D0A0063737743616E74436F6E6EBF
:1043AC0065637442696C6C0D0A006373774C6974B5
:1043BC00746C654D6F6E65790D0A006373774F4BA6
:1043CC000D0A00010001000D0A53544152540D0A0C
:1043DC000041540D0A000D0A00F0225365747469F3
:1043EC006E67732200000000000000000000000057
:1043FC000000000000000000000000000022313826
:10440C00303030303030220000000000000000005E
:10441C000000000000000000000000000000000090
:10442C00224E756D536574747322000000000000F9
:10443C000000000000000000000000000000000070
:10444C00000000223133333333333030220000008C
:10445C000000000000000000000000000000000050
:10446C00000000000000225573657253657474736C
:10447C00220000000000000000000000000000000E
:10448C0000000000000000000022313531353033CF
:10449C003033313231323030303022000000000005
:1044AC0000000000000000000000000022526573B4
:1044BC006572762200000000000000000000000081
:1044CC0000000000000000000000000000000022BE
:1044DC00303030220000000000000000000000001E
:1044EC0000000000000000000000000000000000C0
:1044FC000000224461746368312200000000000057
:10450C00000000000000000000000000000000009F
:10451C0000000000002230303035303033352200BE
:10452C00000000000000000000000000000000007F
:10453C000000000000000000224461746368322215
:10454C00000000000000000000000000000000005F
:10455C00000000000000000000000022313030316B
:10456C003030343522000000000000000000000054
:10457C000000000000000000000000000000224FBE
:10458C0070657261746F72312200000000000000CF
:10459C00000000000000000000000000000000000F
:1045AC0000222B3338303937323131363638362217
:1045BC0000000000000000000000000000000000EF
:1045CC0000000000224F70657261746F723222001D
:1045DC0000000000000000000000000000000000CF
:1045EC0000000000000000223030302200000000EB
:1045FC0000000000000000000000000000000000AF
:10460C0000000000000000000000224F7065726185
:10461C00746F7233220000000000000000000000E4
:10462C0000000000000000000000000000223030FC
:10463C00302200000000000000000000000000001C
:10464C00000000000000000000000000000000005E
:10465C00224F70657261746F72342200000000008A
:10466C00000000000000000000000000000000003E
:10467C00000000223030302200000000000000005A
:10468C00000000000000000000000000000000001E
:10469C00000000000000224F70657261746F72356B
:1046AC0022000000000000000000000000000000DC
:1046BC00000000000000000000223030302200001A
:1046CC0000000000000000000000000000000000DE
:1046DC00000000000000000000000000224F706588
:1046EC007261746F7236220000000000000000003E
:1046FC00000000000000000000000000000000228C
:10470C0030303022000000000000000000000000EB
:10471C00000000000000000000000000000000008D
:10472C0000000161742B6970723D393630300D0A0E
:10473C000000000000000061742B637265673D315E
:10474C000D0A00000000000000000061742B636F74
:10475C006C703D310D0A000000000000000000618B
:10476C00742B636C69703D310D0A00000000000071
:10477C0000000061742B636D67663D310D0A00000B
:10478C0000000000000000617465300D0A0000009C
:10479C00000000000000000000000061740D0A0021
:1047AC00000000000000000000000000000000807D
:1047BC00250000184700000096000000E1000000F2
:1047CC00C201000500546F204D6F64656D2D3E00D5
:1047DC004F4B002B434D54493A22534D2200536505
:1047EC007474733A20002C20000A0D004D696E4D34
:1047FC00617854313A20004D696E4D617854323AEB
:10480C002000253032580074003D004572724E4F26
:10481C004E00457272435243003B20004D494E21DD
:10482C0021213B20004D41582121213B2000230018
:10483C003F0025644300170000000000000000004A
:10484C00000102020303030304040404040404042B
:10485C0005050505050505050505050505050505FC
:10486C0006060606060606060606060606060606DC
:10487C0006060606060606060606060606060606CC
:10488C0007070707070707070707070707070707AC
:10489C00070707070707070707070707070707079C
:1048AC00070707070707070707070707070707078C
:1048BC00070707070707070707070707070707077C
:1048CC00080808080808080808080808080808085C
:1048DC00080808080808080808080808080808084C
:1048EC00080808080808080808080808080808083C
:1048FC00080808080808080808080808080808082C
:10490C00080808080808080808080808080808081B
:10491C00080808080808080808080808080808080B
:10492C0008080808080808080808080808080808FB
:10493C0008080808080808080808080808080808EB
:00000001FF
