:100000000C9466000C9485000C9485000C9485007B
:100010000C9485000C9485000C9485000C9485004C
:100020000C9485000C9485000C9485000C9485003C
:100030000C94A7000C9485000C9485000C9485000A
:100040000C9485000C9485000C944A100C94850047
:100050000C9485000C9485000C9485000C9485000C
:100060000C9485000C9485000C9485000C948500FC
:100070000C9485000C9485000C9485000C948500EC
:100080000C9485000C9485000C948500AA0BB10B90
:10009000ED0BFA0B030C150C360C540C890CA00C50
:1000A000A30CD20C550D550D3E0D530D550D550D90
:1000B000550D550D550D550D010D0A0D550D550DCF
:1000C000550D630CB60C550D550DDB0C11241FBEE0
:1000D000CFEFD0E1DEBFCDBF17E0A0E0B1E0E0EFB1
:1000E000F1E400E00BBF02C007900D92AE3AB107F9
:1000F000D9F71EE0AEEAB7E001C01D92A232B10707
:10010000E1F70E945E0D0C94F6200C9498008FB7D6
:10011000F8942091AE073091AF078FBFC9010895C1
:1001200025E030E040E050E00E94F71CC90108954E
:100130001F920F920FB60F9211248F9381E080933C
:10014000B0078F910F900FBE0F901F9018951F92C0
:100150000F920FB60F9211248F939F938091AE0749
:100160009091AF0701969093AF078093AE0780E11F
:1001700086BF9F918F910F900FBE0F901F90189583
:100180001DBC1CBC80E090E99BBD8ABD89E08EBD92
:1001900080E187BF86BF0895809147028F7E80935C
:1001A0004702089580914702806180934702089535
:1001B000809147028F7D8093470208958091470286
:1001C0008062809347020895EF92FF920F931F93EE
:1001D0008091B1079091B2078C319105C9F08D31B2
:1001E00091051CF4019749F508C08A32910519F070
:1001F0008C9719F51EC081E021C08DEE97E060E07C
:1002000071E041EB57E02CE130E00E94510F15C046
:100210008091ED079091EE0769E071E040ED57E0C5
:1002200021EB37E00AE210E0EE24FF240E949B0F4E
:1002300004C01092B2071092B10780E01F910F9195
:10024000FF90EF9008950F931F9380913302909148
:1002500034028130910519F04C9791F509C00E9444
:10026000870090939E0880939D088CE190E024C0C5
:100270000E94870020919D0830919E088C01021BEE
:10028000130B68E873E180E090E00E949000801713
:100290009107B0F48EEF9CE00E9457148091FE0C01
:1002A000882341F08EEF9CE00E94250E86E191E0CC
:1002B0000E94250E81E090E09093340280933302F7
:1002C0001F910F9108950F931F9380E090E00E947B
:1002D00039158091AB0D9091AC0D892B31F481E0F3
:1002E00090E09093AC0D8093AB0D81E090E00E9484
:1002F00039158091EB0D9091EC0D892B31F481E053
:1003000090E09093EC0D8093EB0D8091CA078823C9
:10031000D9F58091B10D8823D1F08091D70D81302E
:1003200051F481E08093CA070E94870090939C0853
:1003300080939B080CC08091DD0D813091F38091FA
:10034000B60D813071F38091B70D813051F38091FA
:10035000F10D8823C9F08091170E813061F08091F2
:100360001D0E813041F08091F60D813021F0809199
:10037000F70D813049F481E08093CA070E9487001D
:1003800090939C0880939B088091CA07882309F466
:100390004AC00E94870020919B0830919C088C01E4
:1003A000021B130B60ED77E080E090E00E9490006C
:1003B00008171907C0F18EEF9CE00E9457141092A5
:1003C000D70D1092DD0D1092B60D1092B70D109250
:1003D000170E10921D0E1092F60D1092F70D0E943E
:1003E000370F882361F487E080935E098FEF809355
:1003F0005F0988EC98E06EEF7CE00E94841D81E04C
:1004000090E09093D4078093D3070E94370F8823FE
:1004100041F08EEF9CE00E94250E86E191E00E9463
:10042000250E1092CA071F910F910895CF92DF9267
:10043000EF92FF920F931F93CF93DF937C0106E01F
:1004400010E086E2C82ED12C0C9DE0010D9DD00D50
:100450001C9DD00D1124C950D64FC701BE0142E2E8
:1004600050E00E949B1D009711F48CA106C00F5F05
:100470001F4F0C30110541F780E0DF91CF911F91A4
:100480000F91FF90EF90DF90CF90089580916009D9
:10049000882309F43FC087E59CE069E171E00E9490
:1004A000B81D0097A9F08FE59CE062E270E00E9421
:1004B000791DFC0110828FE59CE00E9416028130BC
:1004C00049F11092C20782E291E00E94320E22C0EE
:1004D00087E59CE068E271E00E94B81D009781F01A
:1004E0008091C207833044F082E291E00E94320E94
:1004F00081E08093C3070CC08F5F8093C2070AC05E
:1005000087E59CE06DE271E00E94B81D009711F054
:100510001092C20780E008950F931F932091BC07AB
:100520003091BD072115310509F406C18091BE0740
:100530009091BF078217930709F460C01092C1071A
:100540001092C00729303105E9F02A3031052CF42A
:100550002830310509F0F0C008C02B30310569F1B1
:100560002F30310509F0E8C03DC084EF91E0909351
:10057000DA078093D9079093DC078093DB078CED33
:1005800095E027C084EF91E09093DA078093D90734
:100590009093DC078093DB079093DE078093DD0761
:1005A0009093E0078093DF079093E2078093E10741
:1005B0001092E4071092E307BFC08CED95E0909392
:1005C000DA078093D9079093DC078093DB0784EFE9
:1005D00091E09093DE078093DD071092E007109280
:1005E000DF07AAC01092DA071092D90780E00E94B4
:1005F000340F1092BD071092BC079EC0809131024B
:10060000909132028D31910509F44BC08E319105E4
:100610003CF48130910579F04C9709F08DC017C0FA
:100620008A32910591F18C32910509F460C04F979F
:1006300009F082C065C081E00E94270F0E948700F8
:100640009093D8078093D7078CE190E071C00E9407
:1006500087002091D7073091D8078C01021B130B1C
:10066000E091C007F091C107EE0FFF1FE752F84F6E
:100670006081718180E090E00E9490000817190766
:1006800008F45AC08AE290E053C081E00E942D0F26
:100690000E9487009093D8078093D7078DE190E060
:1006A00047C00E9487002091D7073091D8078C015E
:1006B000021B130B64EF71E080E090E00E94900059
:1006C00008171907C8F1E091C007F091C1073196EA
:1006D000F093C107E093C007EE0FFF1FE752F84FFA
:1006E00080819181892B11F58CE290E021C00E94DC
:1006F00087009093D8078093D7078FE190E018C0C8
:100700000E9487002091D7073091D8078C01021BE7
:10071000130B64EF71E080E090E00E9490000817F6
:10072000190750F01092C1071092C00781E090E0C5
:1007300090933202809331028091BC079091BD0763
:100740009093BF078093BE0780E01F910F9108959B
:10075000EF92FF920F931F93DF93CF93CDB7DEB746
:10076000C659D0400FB6F894DEBF0FBECDBF809102
:10077000BA079091BB078C319105A9F18D31910594
:1007800034F4009781F0019709F0D5C01FC08F3174
:10079000910509F4AFC08C32910509F4C8C04D979A
:1007A00009F0C9C095C080915E09882309F4C3C0CF
:1007B000AFEEB7E0E8ECF8E088E901900D928150E7
:1007C000E1F710925E0981E090E008C08AE190E0D4
:1007D0009093F30C8093F20C8CE190E09093BB0724
:1007E0008093BA07A8C04091F20C5091F30C4032AC
:1007F00051051CF08CE290E0F1CF44515040B6E23C
:10080000EB2EF12C4E9DF0014F9DF00D5E9DF00DF5
:1008100011244C5E5F4FE950F64F83A18823C9F045
:100820008091850894A18923A1F02091860833271F
:1008300027FD3095207F307085A1992787FD909501
:10084000A4E0880F991FAA95E1F728233923232BC9
:1008500039F44F5F5F4F5093F30C4093F20C6BC031
:100860008E010F5F1F4FC80168E371E045E950E05A
:100870000E94A91D8091F20C9091F30C44978E9DDB
:10088000B0018F9D700D9E9D700D11246950764FA3
:10089000C80145E950E00E948B1DC80162E471E087
:1008A0000E946E1DC8016FEE77E045E950E00E949E
:1008B0008B1DC80166E471E00E946E1D85ED97E016
:1008C000B8014AEB57E02DE130E00E94510F33C0F0
:1008D0008091D5079091D60768E471E048E95AE322
:1008E0002AEB37E00FE110E0FFE1EF2EF12C0E9440
:1008F0009B0F21C08091D5079091D6076FE471E0DE
:1009000048E853E12AEB37E00CE110E0ECE1EE2E91
:10091000F12C0E949B0F882371F08091F20C909132
:10092000F30C01969093F30C8093F20C04C0109298
:10093000BB071092BA0780E0CA56DF4F0FB6F89493
:10094000DEBF0FBECDBFCF91DF911F910F91FF9002
:10095000EF9008950F931F930E9463010E94FD146E
:100960000E9423010E9446028091C4079091C5070E
:100970008231910509F4A9C0833191055CF480317D
:10098000910599F1813191050CF080C00F9709F024
:10099000FAC110C08431910509F482C184319105F6
:1009A0000CF434C18531910509F4B0C0469709F0C3
:1009B000EAC101C11092C20783E080935E098FEF04
:1009C00080935F0988EC98E062E571E00E94841DE5
:1009D0008EEF9CE00E94571488EC98E06EEF7CE06C
:1009E0000E946E1D80E190E06BC080E00E94340F99
:1009F0008091C307882309F4C6C19091EE0C992316
:100A000009F48AC083E080935E0990935F0988ECC3
:100A100098E06CE571E00E94841D8091EE0C84FFEB
:100A200006C088EC98E06CE671E00E946E1D809133
:100A3000EE0C85FF06C088EC98E06FE671E00E943E
:100A40006E1D8091EE0C86FF06C088EC98E062E790
:100A500071E00E946E1D8091EE0C87FF06C088EC4D
:100A600098E065E771E00E946E1D88EC98E068E709
:100A700071E00E946E1D8EEF9CE00E94571488EC7E
:100A800098E06EEF7CE00E946E1D7DC11092C2075F
:100A900083E080935E098FEF80935F0988EC98E094
:100AA0006AE771E00E94841D8EEF9CE00E9457145B
:100AB00088EC98E06EEF7CE00E946E1D82E190E091
:100AC0009093C5078093C4075EC182E00E94340FF3
:100AD0008091C307882331F08FE090E09093C507A1
:100AE0008093C4078091EE0C882309F44CC183E104
:100AF00090E09093C5078093C40781E090E09093C5
:100B0000C7078093C6071092C2073DC11092C20763
:100B10009091EE0C992319F481E190E0D1CF83E01C
:100B200080935E0990935F0988EC98E064E871E037
:100B30000E94841D8091EE0C84FF06C088EC98E032
:100B40006CE671E00E946E1D8091EE0C85FF06C080
:100B500088EC98E06FE671E00E946E1D8091EE0CCB
:100B600086FF06C088EC98E062E771E00E946E1D87
:100B70008091EE0C87FF06C088EC98E065E771E095
:100B80000E946E1D88EC98E068E771E00E946E1D7F
:100B90000E94870090939208809391088EEF9CE0CA
:100BA0000E94571488EC98E06EEF7CE00E946E1D66
:100BB00086E190E085CF0E948700209191083091D6
:100BC00092088C01021B130B60E27EE480E090E04F
:100BD0000E9490000817190788F08091EE0C882376
:100BE00031F481E190E09093C5078093C4070E949F
:100BF00087009093920880939108C5C08091C307A5
:100C0000882309F4C0C08FE090E0B5C01092C207FD
:100C100087E080935E098091EE0C80935F0988ECF9
:100C200098E06BE971E00E94841D8091EE0C84FFD6
:100C300006C088EC98E06CE671E00E946E1D809121
:100C4000EE0C85FF06C088EC98E06FE671E00E942C
:100C50006E1D8091EE0C86FF06C088EC98E062E77E
:100C600071E00E946E1D8091EE0C87FF06C088EC3B
:100C700098E065E771E00E946E1D88EC98E068E7F7
:100C800071E00E946E1D8EEF9CE00E94571488EC6C
:100C900098E06EEF7CE00E946E1D84E190E010CF42
:100CA00083E00E94340F8091C307882399F08091DC
:100CB00047028061809347021092C7071092C607CF
:100CC00085E190E09093C5078093C4071092C9070F
:100CD0001092C8078091C6079091C707813091058F
:100CE00021F04C9709F04FC012C00E9487009093EA
:100CF0008E0880938D08809147028F7E80934702F3
:100D00008CE190E09093C7078093C6073CC0609148
:100D1000C50870E080E090E028EE33E040E050E06D
:100D20000E94D81C6093950870939608809397084A
:100D3000909398080E94870020918D0830918E082A
:100D40008C01021B130B609195087091960880919D
:100D50009708909198080E9490000817190798F03A
:100D6000809147028061809347021092C7071092DA
:100D7000C60785E190E09093C5078093C407109261
:100D8000C9071092C8070E94A8038091EE0C9091A9
:100D90004702882311F09F7D01C090629093470223
:100DA0001092C30780E01F910F910895EF92FF9278
:100DB0000F931F93DF93CF93CDB7DEB7C659D040C3
:100DC0000FB6F894DEBF0FBECDBF8091B8079091EB
:100DD000B9078A31910509F45EC08B31910534F46D
:100DE0008130910581F04997C1F40BC08D31910597
:100DF00009F447C08A32910509F44FC04C9769F451
:100E00002EC08AE04BC080918C0A882341F48AE28C
:100E100090E09093B9078093B80781E03FC08E01BE
:100E20000F5F1F4FC80163EA71E045E950E00E947F
:100E3000A91DC80169E67AE045E950E00E948B1DD2
:100E4000C8016FEA71E00E946E1D8FE898E0B8015A
:100E500048EB57E02CE130E00E94510FDECF80914B
:100E60008F089091900866EB71E040E157E228EB23
:100E700037E00DE110E0E9E1EE2EF12C0E949B0F2E
:100E8000CCCF8091D1079091D20704970CF0BFCFBF
:100E90008AE190E0BECF8BE001C080E0CA56DF4F10
:100EA0000FB6F894DEBF0FBECDBFCF91DF911F917B
:100EB0000F91FF90EF900895EF92FF921F93DF93B1
:100EC000CF93CDB7DEB7C659D0400FB6F894DEBF8A
:100ED0000FBECDBF62E270E00E94791D9C010097B9
:100EE000E9F160E070E010E040E050E07E0108943D
:100EF000E11CF11C21C04139510521F480E38983B3
:100F00001A8224C0F901E40FF51F9081892F8053C4
:100F10008A3040F4F701E60FF71F90836F5F7F4F31
:100F200011E008C0113029F46C0F7D1FFB01118204
:100F30000FC010E04F5F5F4FF90101900020E9F70B
:100F40003197E21BF30B4E175F07A8F2112331F024
:100F5000CE0101960E94501D9C0102C020E030E0AD
:100F6000C901CA56DF4F0FB6F894DEBF0FBECDBF22
:100F7000CF91DF911F91FF90EF900895CF92DF9274
:100F8000EF92FF920F931F93DF93CF93CDB7DEB70E
:100F90002A970FB6F894DEBF0FBECDBF6C017B0160
:100FA000FC0101900020E9F73197E81BF90BDB0108
:100FB00016E0AA0FBB1F1A95E1F738976CF4FD01F4
:100FC000E256F24F89EC9FEF908B878788EC90E098
:100FD000928B818B138A49C0A256B24F81E05396FF
:100FE0008C93B6016F5F7F4F8E010F5F1F4FC8015B
:100FF00043E050E00E94A91D1C82C8010E94501DC0
:101000009C01F6018081813319F4309521953F4F81
:10101000F701A6E0EE0FFF1FAA95E1F7E256F24FA7
:10102000308B2787B6016B5F7F4F8E010F5F1F4F9D
:10103000C80143E050E00E94A91D1C82C8010E9423
:10104000501D9C01F6018481813319F4309521955E
:101050003F4FF6E0EE0CFF1CFA95E1F78EE99DE0BC
:10106000E80EF91EF701328B218B2A960FB6F89401
:10107000DEBF0FBECDBFCF91DF911F910F91FF90CB
:10108000EF90DF90CF900895CF92DF92EF92FF9292
:101090000F931F93DF93CF93CDB7DEB72A970FB689
:1010A000F894DEBF0FBECDBFFC0101900020E9F730
:1010B0003197E81BF90B3C97ECF07C0100E01BE05A
:1010C0006E010894C11CD11CC601B70142E050E07A
:1010D0000E94A91D1B82C6010E94501DF801808339
:1010E00082E090E0E80EF91E0A5D1F4F9BE0043E8F
:1010F000190751F72A960FB6F894DEBF0FBECDBF81
:10110000CF91DF911F910F91FF90EF90DF90CF90E3
:101110000895CF92DF92EF92FF920F931F93DF9388
:10112000CF93CDB7DEB72A970FB6F894DEBF0FBEC8
:10113000CDBFFC0101900020E9F73197E81BF90BC6
:1011400036972CF17C010FEF1AE06E010894C11C58
:10115000D11CC601B70141E050E00E94A91D1A82CE
:10116000C6010E94501D813039F0823029F0833051
:1011700011F484E001C080E0F80180830894E11C50
:10118000F11C0A5D1F4FFBE0033E1F0711F72A9673
:101190000FB6F894DEBF0FBECDBFCF91DF911F9188
:1011A0000F91FF90EF90DF90CF900895EF92FF9214
:1011B0000F931F93DF93CF93CDB7DEB72A970FB668
:1011C000F894DEBF0FBECDBF7C01FC010190002072
:1011D000E9F73197E81BF90B359734F41092C408FE
:1011E0008CE38093C50829C08E010F5F1F4FC80193
:1011F000B70143E050E00E94A91D1C82C8010E9473
:10120000501D8093C5088E3118F48EE18093C50877
:1012100083E090E0E80EF91E8E010F5F1F4FC801BA
:10122000B70142E050E00E94A91D1B82C8010E9444
:10123000501D8295807F8093C4082A960FB6F8943B
:10124000DEBF0FBECDBFCF91DF911F910F91FF90F9
:10125000EF900895EF92FF920F931F93DF93CF9338
:10126000CDB7DEB7C654D0400FB6F894DEBF0FBE80
:10127000CDBF8091B5079091B6078D31910509F4E6
:101280004AC08E3191054CF481309105E9F08C31E2
:10129000910559F1892BA9F02BC18A32910579F07A
:1012A0008B32910524F44F9709F022C160C08B3234
:1012B000910509F414C18C9709F01AC113C180E09B
:1012C00018C11092B70714C189E898E06EEB71E07D
:1012D00045EB57E02CE130E00E94510F84E190E0B3
:1012E0009093F30C8093F20C03C180918908909144
:1012F0008A086FE471E040ED57E025EB37E00DE13F
:1013000010E0FBE2EF2EF12C0E949B0F843009F0DD
:10131000EFC083E03FC08091F20C9091F30C7E010E
:101320000894E11CF11CB7014AE050E00E94D21D74
:101330008E010C5D1F4FC8016DEC71E042E250E080
:101340000E94A91DC801B70142E250E00E948B1D16
:10135000C80166ED71E00E946E1D89E898E0B80151
:1013600045EB57E02FE130E00E94510FC1C0809162
:10137000890890918A0869ED71E040ED57E025EB0E
:1013800037E00DE110E0EBE2EE2EF12C0E949B0F16
:10139000843019F48093B707ACC0813009F0A8C03D
:1013A00082E69CE062E270E00E94791DFC011082FE
:1013B0008091F20C9091F30C449726E230E0AC015E
:1013C000429FC001439F900D529F900D1124895060
:1013D000964F62E67CE042E250E00E94A91D8091B7
:1013E000F20C9091F30C449721F487EF99E00E945E
:1013F000D6088091F20C9091F30C459721F48DE181
:101400009AE00E9489088091F20C9091F30C469723
:1014100021F483E49AE00E9444080091F20C1091B8
:10142000F30C0731110581F489E69AE061EE71E071
:1014300042E250E00E949B1D009719F410928C0A22
:101440000CC081E080938C0A0831110531F48FE8DB
:101450009AE060E070E00E94BE078091F20C9091EB
:10146000F30C499731F485EB9AE061E070E00E945B
:10147000BE070091F20C1091F30C0A31110504F132
:101480000451104086E290E0089F7001099FF00C23
:10149000189FF00C11240C5E1F4F87EF99E0E80EA7
:1014A000F91EC70161EE71E042E250E00E949B1D0F
:1014B000009719F4F70113A203C081E0F70183A399
:1014C000C80101969093F30C8093F20C809784F0FE
:1014D0008AE290E09093B6078093B50709C08091A7
:1014E000B70707C01092B7071092B6071092B5075A
:1014F00081E0CA5BDF4F0FB6F894DEBF0FBECDBFF1
:10150000CF91DF911F910F91FF90EF900895EF928F
:10151000FF920F931F93DF93CF93CDB7DEB7C95BD5
:10152000D0400FB6F894DEBF0FBECDBF8091B30799
:101530009091B4078F31910509F4A8C080329105CC
:1015400054F48C31910529F18D319105B9F1019750
:1015500009F0C7C00DC08B32910509F4C4C08C32AC
:10156000910509F4BAC08A9709F0BBC080E0BCC0FD
:101570008BE898E06EEB71E043EB57E02CE130E054
:101580000E94510F84E190E09093F30C8093F20C51
:10159000A8C080918B0890918C086FE471E040EDB9
:1015A00057E023EB37E00DE110E0EBE2EE2EF12CFB
:1015B0000E949B0F843009F094C095C08091F20C7A
:1015C0009091F30C8E010F5F1F4FB8014AE050E07D
:1015D0000E94D21DB4E2EB2EF12CEC0EFD1EC701D1
:1015E00065EE71E045E950E00E94A91DC701B80110
:1015F00045E950E00E948B1DC7016EEE71E00E942C
:101600006E1D8091F20C9091F30C449706E410E06B
:10161000809FB001819F700D909F700D11246559BE
:101620007D4FC70145E950E00E948B1DC70160EF67
:1016300071E00E946E1D8091F20C9091F30C449722
:10164000809FB001819F700D909F700D1124685B89
:101650007D4FC70145E950E00E948B1DC70166ED33
:1016600071E00E946E1D0E94370F882319F0C70198
:101670000E94250E8BE898E0BE016C5D7F4F43EB26
:1016800057E02FE130E00E94510F2BC080918B0872
:1016900090918C086FE471E048EB5BE023EB37E05E
:1016A0000DE110E0ABE2EA2EF12C0E949B0F84309A
:1016B000D1F08130B1F48091F20C9091F30C01964D
:1016C0009093F30C8093F20C80975CF08AE290E0A8
:1016D0009093B4078093B30704C01092B40710929C
:1016E000B30781E001C084E0C754DF4F0FB6F89420
:1016F000DEBF0FBECDBFCF91DF911F910F91FF9045
:10170000EF900895EF92FF920F931F938091CE0771
:10171000882379F480916009882359F087E59CE05B
:1017200063EF71E00E94B81D009719F081E080938B
:10173000CE07E091CB07F091CC073197E032F1056D
:1017400008F0B3C1EA5BFF4FEE0FFF1F0590F49165
:10175000E02D09941092C7081092C60882E090E02C
:101760003EC12091CF073091D007809131069091F2
:1017700032062817390724F01092D0071092CF07AD
:10178000E091CF07F091D007EE0FFF1FEE0FFF1F84
:10179000E35EF94F208131814281538160E078E03E
:1017A00087E090E00E94F71CDA01C90101970E94CE
:1017B000F80D8091CF079091D00701969093D007B4
:1017C0008093CF0780918708909188086BEC77E031
:1017D00043E050E00E94390F68C1809187089091E2
:1017E000880864EF71E04BEC57E024E030E00E94A1
:1017F0006D0F5BC187E898E06EEF71E04BEC57E04E
:1018000025E030E030C080918708909188086FE42F
:1018100071E048EE53E02BEC37E006E010E0A2E088
:10182000EA2EF12C0E949B0F40C12091C6083091F6
:10183000C7082730310534F080E00E94340F88E07B
:1018400090E0CDC084E190E0289FB001299F700D09
:10185000389F700D11246F567A4F87E898E04BEC53
:1018600057E027E030E00E94510F1FC180918708A8
:10187000909188086FE471E040ED57E02BEC37E081
:1018800006E010E0F6E0EF2EF12C0E949B0F88237B
:1018900009F40BC18091C6089091C70801969093F6
:1018A000C7088093C60801C10E94870090938808EA
:1018B000809387088CE190E09093CC078093CB07CE
:1018C00088E090E04EC00E94870020918708309108
:1018D00088088C01021B130B60E67AEE80E090E032
:1018E0000E9490000817190738F089E090E0909363
:1018F000CC078093CB0735C080916009882309F419
:10190000D4C08091CE07882309F4CFC08AE090E04C
:1019100066C00E9487009093880880938708809112
:10192000CD078F5F8093CD07833014F014E601C09C
:1019300010E08CE190E09093CC078093CB07B6C089
:101940008BE090E04CC081E090E09093B6078093EC
:10195000B5078DE190E09093CC078093CB078BE0A7
:1019600090E09093BD078093BC079FC00E942A0916
:101970002091B5073091B607882359F02B323105F5
:1019800009F093C01092B6071092B5078CE090E072
:1019900026C02A32310509F088C01092B60710928D
:1019A000B50769C081E090E09093B4078093B307D6
:1019B00080E290E014C00E94870A2091B307309122
:1019C000B407882389F02B32310509F06EC00E94DC
:1019D000FF0E1092B4071092B3078DE090E0909341
:1019E000CC078093CB0761C02A32310509F05DC076
:1019F0000E94FF0E1092B4071092B3078EE090E0A1
:101A0000EECF81E090E09093B9078093B80788E12A
:101A100090E0E5CF0E94D6068091B8079091B90773
:101A20008A31910571F08A329105B1F04997E9F553
:101A30000E94370F8823D9F083E092E00E94250EA0
:101A400016C00E94370F882321F088E192E00E949F
:101A5000250E109290050BC00E94370F882321F0AD
:101A600089E292E00E94250E81E080939005109219
:101A7000B9071092B8078FE090E0B1CF80E190E015
:101A80009093C5078093C4079093CC078093CB07AE
:101A90008FE090E09093BD078093BC071092D4072D
:101AA0001092D30702C00E94AA0410E00E948C0288
:101AB000812F1F910F91FF90EF9008951F93CF9367
:101AC000DF93C1E0D0E011E0F8940E94C0001092D2
:101AD00060091092C00B1092BF0B1092F00C109284
:101AE000EF0C0E94F00E88EE93E00E949B0E82E0C5
:101AF0000E94340F0E941D0F87E090E00E94020EAA
:101B00008FE290E00E94F80D88EB9BE00E949B0E14
:101B100081E00E94340F0E941D0F0E94FF0E88EE8C
:101B200093E00E949B0E789482E00E94340F0E9402
:101B30001D0F0E94370F882321F085E392E00E9459
:101B4000250E8FE392E00E94320E0E940514D0937E
:101B5000CC07C093CB070E94100F0E94370F882339
:101B600081F082EC98E00E94500E882351F0809121
:101B7000C2080E94D411813021F08091C2080E94D5
:101B80000D0E8091F10C8823D1F0F89487E59CE04C
:101B900061EC7BE045E950E00E94A91D1092F10C38
:101BA0007894109360090E94370F882341F087E5ED
:101BB0009CE00E94250E84E492E00E94250E0E9483
:101BC000820B843609F480CF80916009882311F05C
:101BD000109260090E94190F0E941D0FBCCF9093B4
:101BE000900089B988E18AB986E0809395000895CC
:101BF0009093900089B988E18AB986E08093950036
:101C0000579A0895909398008093990088E1809363
:101C10009A0086E080939D0008955D9BFECF8CB96D
:101C20000895982F80919B0085FFFCCF90939C0096
:101C300008955D9BFECF8CB90895982F80919B00ED
:101C400085FFFCCF90939C000895FC0107C0809114
:101C50009B0085FFFCCF90939C0031969081992347
:101C6000B1F70895CF93DF93EC0183E396E00E94F0
:101C7000250ECE010E94250E04C05D9BFECF8CB9BF
:101C8000219688818823C9F7DF91CF910895FC01BF
:101C90005F9902C080E008958CB1808381E008954F
:101CA000FC0180919B0087FD02C080E00895809137
:101CB0009C00808381E008951F93A091F60CB09161
:101CC000F70C2091F80C3091F90C4091F40C5091E4
:101CD000F50CE0E0F0E01AC040E050E020E030E039
:101CE00004C0D901B695A7959B01B9016F5F7F4FDD
:101CF0001DEF693E7107A9F74F5F5F4F44365105ED
:101D000069F7319644E650E028EE3DEFE817F90711
:101D100018F3B093F70CA093F60C3093F90C2093C2
:101D2000F80C5093F50C4093F40CF093FB0CE093FB
:101D3000FA0C1F910895AF92BF92CF92DF92EF926B
:101D4000FF920F931F93AA2797FDA095BA2FBC016E
:101D5000CD010E94311A5B016C0126E636E646EEA3
:101D600054E40E94A7187B018C0120E030E040E899
:101D70005FE30E94011A88231CF461E070E024C034
:101D8000C801B70120E03FEF4FE757E40E94A119D7
:101D90001816B4F4C601B50120E030E040E251E489
:101DA0000E94A7180E94D11688EB90E005C0FC01A4
:101DB0003197F1F76150704061157105C1F707C0A7
:101DC000C801B7010E94D116CB010197F1F71F910D
:101DD0000F91FF90EF90DF90CF90BF90AF9008955C
:101DE0008EE1809364008FEF81BB12B81092610086
:101DF00082E08093650080EF82BB13B808958091E4
:101E0000470281608093470282BB8CED95E00E947F
:101E10009B0E809147028E7F8093470282BB08957C
:101E200081B18095807F9091C40889278093EE0CC2
:101E300008958091470282BB08958091ED0C880F30
:101E4000880F880F81608095809365000895909138
:101E5000ED0C982B9093ED0C089580959091ED0CDE
:101E600098239093ED0C08958093ED0C089581E0F4
:101E70000895CF92DF92EF92FF920F931F938C0100
:101E80006B017A010E948700F80191838083F6013B
:101E9000F182E0821F910F91FF90EF90DF90CF9041
:101EA0000895CF92DF92EF92FF920F931F936C01F0
:101EB000CB017A0189010E94320E0E948700F6014F
:101EC00091838083F7011183008381E01F910F913B
:101ED000FF90EF90DF90CF9008958F929F92AF92F6
:101EE000BF92CF92DF92EF92FF920F931F93CF9307
:101EF000DF938C016B014A01E9010E9487005C01BC
:101F0000EE24FF24C701B6010E949000A01AB10A76
:101F1000A816B90618F0F401D183C083DF91CF91E0
:101F20001F910F91FF90EF90DF90CF90BF90AF90F7
:101F30009F908F9008954F925F926F927F928F92B1
:101F40009F92AF92BF92CF92DF92EF92FF920F9348
:101F50001F93CF93DF936C013B014A01E9012801F4
:101F60000E9487008C01AA24BB24C501B4010E94F1
:101F700090000C191D090817190720F0F982E88252
:101F800084E010C080916009882359F087E59CE0C7
:101F9000B3010E94B81D009721F05982488281E068
:101FA00001C080E0DF91CF911F910F91FF90EF90E2
:101FB000DF90CF90BF90AF909F908F907F906F9069
:101FC0005F904F9008956EE376E00E94B81D9C01EB
:101FD00080E0232B09F081E0089561E476E00E941F
:101FE000B81D9C0180E0232B09F081E008955F99E2
:101FF00002C081E008959CB19093C30880919B003A
:1020000085FFFCCF90939C004091BF0B5091C00B7B
:10201000413951056CF080919B0085FFFCCF89E32D
:1020200080939C001092C00B1092BF0B8AE0089521
:10203000FA01EF59F64F9083141615061CF59A0114
:1020400021503040F901EF59F64F80818D30D1F4A5
:102050009A30C1F43093C00B2093BF0B10823093A1
:10206000F00C2093EF0C87E59CE061E679E00E949C
:10207000A91D1092C00B1092BF0B81E080936009E4
:1020800080E008954F5F5F4F5093C00B4093BF0BAC
:1020900082E008951F920F920FB60F920BB60F9227
:1020A00011242F933F934F935F936F937F938F935D
:1020B0009F93AF93BF93EF93FF932CB18091BF0B8E
:1020C0009091C00BFC01EF59F64F2083019690933D
:1020D000C00B8093BF0B813991052CF42A30E9F4B1
:1020E00084309105B4F0FC01E15AF64F1082FC01F6
:1020F000E25AF64F80818D3009F4108281EC9BE02A
:1021000061E679E045E950E00E94A91D81E08093F5
:10211000F10C1092C00B1092BF0BFF91EF91BF9189
:10212000AF919F918F917F916F915F914F913F916F
:102130002F910F900BBE0F900FBE0F901F90189510
:102140008F929F92AF92BF92CF92DF92EF92FF92C7
:102150000F931F93DF93CF93CDB7DEB7C05AD04014
:102160000FB6F894DEBF0FBECDBF8E01055F1F4FC7
:10217000C8016CE476E045E950E00E94A91D809119
:10218000C50890E07E010894E11CF11CB7014AE00B
:1021900050E00E94D21DC801B70145E950E00E94FD
:1021A0008B1DC80164E576E00E946E1D8091C40815
:1021B00090E0B7014AE050E00E94D21DC801B7018B
:1021C00045E950E00E948B1DC80167E576E00E945A
:1021D0006E1DC8010E94250E5EEFC52E5AE0D52E59
:1021E00046E0A42EB12C36E2832E912CA89CB0019F
:1021F000A99C700DB89C700D11246950764FC801D0
:1022000045E950E00E94A91DC80164E576E00E94FE
:102210006E1DF6018081992787FD9095B7014AE0F0
:1022200050E00E94D21DC801B70145E950E00E946C
:102230008B1DC80164E576E00E946E1DF601818168
:10224000992787FD9095B7014AE050E00E94D21D82
:10225000C801B70145E950E00E948B1DC80164E543
:1022600076E00E946E1DF6018281992787FD909588
:10227000B7014AE050E00E94D21DC801B70145E90C
:1022800050E00E948B1DC80164E576E00E946E1D3F
:10229000C80167E576E00E946E1DC8010E94250E08
:1022A0000894A11CB11C86E290E0C80ED91E9CE0E7
:1022B000A916B10409F09ACFC8016AE576E045E9AC
:1022C00050E00E94A91D8091AD0D9091AE0DB70117
:1022D0004AE050E00E94D21DC801B70145E950E034
:1022E0000E948B1DC80164E576E00E946E1D8091FE
:1022F000AF0D9091B00DB7014AE050E00E94D21DA1
:10230000C801B70145E950E00E948B1DC80167E58F
:1023100076E00E946E1DC8010E94250EC80165E688
:1023200076E045E950E00E94A91D8091ED0D909165
:10233000EE0DB7014AE050E00E94D21DC801B7017E
:1023400045E950E00E948B1DC80164E576E00E94DB
:102350006E1D8091EF0D9091F00DB7014AE050E0B5
:102360000E94D21DC801B70145E950E00E948B1DB3
:10237000C80167E576E00E946E1DC8010E94250E27
:10238000C056DF4F0FB6F894DEBF0FBECDBFCF9162
:10239000DF911F910F91FF90EF90DF90CF90BF9052
:1023A000AF909F908F900895DF93CF930F92CDB70A
:1023B000DEB71982863391F0873344F48D3259F0B9
:1023C0008133F9F18A3209F03FC018C0873361F0D8
:1023D0008036D1F531C00E94A01036C08091A4068D
:1023E0009091A506019705C08091A4069091A5063D
:1023F00001969093A5068093A40626C09091AB0DFC
:1024000080919B0085FFFCCF905D90939C00809114
:102410009B0085FFFCCF80E280939C009091EB0DA8
:1024200080919B0085FFFCCF905D90939C0087E599
:1024300096E00E94250E08C00E94FF0E81E089836D
:1024400003C082E08093600989810F90CF91DF9172
:1024500008958F929F92AF92BF92CF92DF92EF92A8
:10246000FF920F931F93DF93CF9300D00F92CDB7BE
:10247000DEB76B017C0100E010E04E010894811C86
:10248000911C60E7A62E66E0B62E34C000D000D0C6
:1024900000D0EDB7FEB73196ADB7BEB712969C929D
:1024A0008E921197B382A282D7018C91992787FDD2
:1024B0009095958384830E94FB1D99812DB73EB72B
:1024C0002A5F3F4F0FB6F8943EBF0FBE2DBF8091DD
:1024D0009B0085FFFCCF90939C009A8180919B008C
:1024E00085FFFCCF90939C000F5F1F4F82E090E030
:1024F000E80EF91E0C151D054CF20F900F900F9071
:10250000CF91DF911F910F91FF90EF90DF90CF90CF
:10251000BF90AF909F908F900895CF92DF92EF92EF
:10252000FF920F931F93DF93CF9300D00F92CDB7FD
:10253000DEB78C016E010894C11CD11C70E7E72E38
:1025400076E0F72E2DC000D000D000D0EDB7FEB75A
:102550003196ADB7BEB71296DC92CE921197F38248
:10256000E282992787FD9095958384830E94FB1DC5
:102570009981EDB7FEB736960FB6F894FEBF0FBE41
:10258000EDBF80919B0085FFFCCF90939C009A81CA
:1025900080919B0085FFFCCF90939C000F5F1F4FA5
:1025A000D8018C91882379F60F900F900F90CF91DE
:1025B000DF911F910F91FF90EF90DF90CF900895E2
:1025C000882371F5809162008E7F809362008091F4
:1025D00061008160809361008AEB91E001C000009E
:1025E00001972FEF8F3F9207D1F7809161008E7F87
:1025F0008093610087E390E001C0000001972FEF16
:102600008F3F9207D1F780B123E831E001C000008D
:10261000215030409FEF2F3F3907C9F7817008954F
:10262000809162008D7F8093620080916100826062
:10263000809361008AEB91E001C0000001972FEFC9
:102640008F3F9207D1F7809161008D7F8093610069
:1026500087E390E001C0000001972FEF8F3F9207C2
:10266000D1F780B123E831E001C0000021503040B3
:102670009FEF2F3F3907C9F782700895982F66237F
:10268000F1F4809162008E7F8093620080916100FE
:10269000816080936100992329F0809161008E7F91
:1026A0008093610087E390E001C0000001972FEF65
:1026B0008F3F9207D1F7809161008E7F1DC080917E
:1026C00062008D7F809362008091610082608093C0
:1026D0006100992329F0809161008D7F80936100D2
:1026E00087E390E001C0000001972FEF8F3F920732
:1026F000D1F7809161008D7F8093610008958823D8
:1027000029F5809162008E7F809362008091610044
:10271000816080936100809161008E7F8093610071
:102720008CE090E001C0000001972FEF8F3F9207EF
:10273000D1F780B129E230E001C0000021503040E3
:102740009FEF2F3F3907C9F781700895809162008C
:102750008D7F809362008091610082608093610030
:10276000809161008D7F809361008CE090E001C0DA
:10277000000001972FEF8F3F9207D1F780B129E238
:1027800030E001C00000215030409FEF2F3F39075B
:10279000C9F790E09695879581700895FF920F9301
:1027A0001F93F82E08E010E00AC08F2D0E947F13BF
:1027B000912F9695182F179511271795192B0150C2
:1027C000A0F7812F1F910F91FF900895FF920F9313
:1027D0001F93082FF62E18E006C0802F81706F2DF2
:1027E0000E943E1306951150C0F71F910F91FF9064
:1027F0000895809147028F7B8093470208958091CE
:1028000047028064809347020895EBEAFDE0DF0110
:102810009B9627E130E089E190E041E0118210824F
:1028200017821086118612861C9212961C9212979D
:1028300013961C92139714961C92149715961C923B
:102840001597338322839583848313861486119688
:102850001C92119717961C9217974683E05CFF4FC6
:10286000A05CBF4F5EE0EB32F507C1F60895DC01D6
:1028700020E040E050E098E115C0FD01E40FF51FB5
:10288000E08138E08E2F8227F82FF17080FD292714
:102890002695F13009F42068315011F0E695F2CF19
:1028A0004F5F5F4F4617570741F7822F08956F928A
:1028B0007F928F929F92AF92BF92CF92DF92EF92D0
:1028C000FF920F931F93DF93CF93CDB7DEB7CA5A12
:1028D000D0400FB6F894DEBF0FBECDBF4C011B86B3
:1028E00051EBE52E5DE0F52E45E2A42EB12CAE0CA9
:1028F000BF1CCC24DD248E01055F1F4F3E010894D0
:10290000611C711CF7018081882309F44CC0C80147
:1029100065E776E00E946E1DC6010196B3014AE0AC
:1029200050E00E94D21DC801B3010E946E1DC80173
:1029300067E776E00E946E1DF5018081813021F409
:10294000C80169E776E011C0F5018681813021F484
:10295000C80160E876E009C0B60136E0660F771F6F
:102960003A95E1F76854724FC8010E946E1DC80184
:1029700067E876E00E946E1DF7018181813029F4BD
:10298000C8016AE876E00E946E1DF70182818130FD
:1029900029F4C80163E976E00E946E1DC8016CE964
:1029A00076E00E946E1D0894C11CD11C80E490E06A
:1029B000E80EF91EA80EB91E92E0C916D10409F05E
:1029C000A1CFC401BE01655F7F4F0E94841DC65523
:1029D000DF4F0FB6F894DEBF0FBECDBFCF91DF91B2
:1029E0001F910F91FF90EF90DF90CF90BF90AF902D
:1029F0009F908F907F906F9008950F931F93809179
:102A0000D3079091D4078130910519F04C9771F557
:102A100012C00E94870090931F0E80931E0E80911B
:102A200047028F7B809347028CE190E09093D4071C
:102A30008093D3071BC00E94870020911E0E309107
:102A40001F0E8C01021B130B68E97AE380E090E013
:102A50000E9490000817190748F08091470280648F
:102A6000809347021092D4071092D3071F910F91C1
:102A70000895CF92DF92EF92FF920F931F93CF931F
:102A8000DF937C016C0176E0CC0CDD1C7A95E1F7DC
:102A9000E601C256D24F8D859E858D31910509F490
:102AA00068C08E3191053CF48130910581F04C97DE
:102AB00009F06DC11EC08F31910509F4D7C08F3167
:102AC00091050CF496C0809709F061C14EC18E2D1E
:102AD0000E94E0128CEC6E2D0E94E61384E46E2DB1
:102AE0000E94E6130E9487009C878B878CE190E010
:102AF00094C08E2D0E947F13882331F01BAE1AAE36
:102B000018AE8DE190E089C00E9487002B853C853E
:102B10008C01021B130B64E670E080E090E00E94E1
:102B200090008017910708F032C11E861D869AAD6D
:102B30009431D4F08BAD981761F081E088AF89AF04
:102B40001C8A1D8AC6018854924F6EE976E00E9465
:102B5000841DF70166E0EE0FFF1F6A95E1F7E2566C
:102B6000F24F82AD83AF03C09BAF9F5F9AAF81E00E
:102B70000FC1DE2C8E2D0E94E0128CEC6E2D0E9477
:102B8000E6138EEB6E2D0E94E6138E2D0E94CE135F
:102B900088838E2D0E94CE138983F70156E0EE0FB5
:102BA000FF1F5A95E1F7E056F24F988190838B838F
:102BB000870146E0000F111F4A95E1F70E55124FAD
:102BC000C2E0D0E08D2D0E94CE13D8018D938D01EF
:102BD0002196C930D105B1F736E0EE0CFF1C3A95CD
:102BE000E1F7EEE9FDE0EE0EFF1E8EE190E0D70189
:102BF000B7C0C70126E0880F991F2A95E1F78056D4
:102C0000924F68E070E00E9437149A85891741F46A
:102C10001DAE1CAE1EAE8FE190E09E878D87B7C0C3
:102C2000C6018854924F6EE976E00E94841D1E868C
:102C30001D869CADFE01FD9694319CF08081981715
:102C400029F081E08EAF8FAF1C8A1D8AF70106E064
:102C5000EE0FFF1F0A95E1F7E256F24F84AD85AF04
:102C600003C090839F5F9CAF82E092C0288139812E
:102C700014E0359527951A95E1F7398328838C89D7
:102C80008E8B8D898F8B8F859889281739071CF437
:102C900081E08C8B01C01C8AF701B6E0EE0FFF1FAC
:102CA000BA95E1F7E256F24F20813181818992890C
:102CB000821793071CF481E0858B01C0158AF70108
:102CC000A6E0EE0FFF1FAA95E1F7E256F24F8689C4
:102CD000882321F48489813009F4808FF70176E01C
:102CE000EE0FFF1F7A95E1F7E256F24F87898823AE
:102CF00021F48589813009F4818F00D000D000D083
:102D0000EDB7FEB73196870166E0000F111F6A9597
:102D1000E1F7C8018854924FADB7BEB712969C93A5
:102D20008E93119780EA96E0938382830256124F26
:102D3000D8018D919C91958384830E94FB1DEDB7F2
:102D4000FEB736960FB6F894FEBF0FBEEDBF0E94D9
:102D50008700D8011C969C938E931B9780E290E08D
:102D60001E969C938E931D9712C00E9487002B8500
:102D70003C858C01021B130B68E873E180E090E056
:102D80000E9490008017910710F41E861D8680E037
:102D9000DF91CF911F910F91FF90EF90DF90CF9037
:102DA0000895EF92FF920F931F937B018C0120E017
:102DB00030E040E05FE40E94D11988238CF0C80124
:102DC000B70120E030E040E05FE40E9449180E9433
:102DD0008F1A9B01AC01205030404040504806C043
:102DE000C801B7010E948F1A9B01AC01B901CA0149
:102DF0001F910F91FF90EF900895A0E0B0E0E3E005
:102E0000F7E10C94191DDC012B01FA019C91923021
:102E100008F439C1EB018881823008F433C1943061
:102E200069F4843009F02FC111969C911197898122
:102E3000981709F428C1A6EAB6E025C1843009F440
:102E400021C18230A9F4923009F01DC19A01AD016F
:102E500088E0EA010990AE01E90109929E018150E2
:102E6000C1F7E201898111969C918923818308C170
:102E7000923009F407C112962D903C901397EB0104
:102E80008A819B811496AD90BD90CD90DC90179770
:102E9000EC80FD800E811F819101281B390BB90147
:102EA00037FF04C066277727621B730B60327105FA
:102EB0000CF061C0121613066CF537014801062E9E
:102EC00004C096948794779467940A94D2F721E08B
:102ED00030E040E050E004C0220F331F441F551F74
:102EE0006A95D2F721503040404050402E213F217A
:102EF00040235123211531054105510521F021E0E1
:102F000030E040E050E079018A01E628F7280829FE
:102F100019293CC0232BD1F1260E371E350146015D
:102F2000062E04C096948794779467940A94D2F7F7
:102F300021E030E040E050E004C0220F331F441F86
:102F4000551F6A95D2F721503040404050402A2109
:102F50003B214C215D21211531054105510521F011
:102F600021E030E040E050E059016A01A628B7288E
:102F7000C828D9280BC0821593052CF01C01AA245F
:102F8000BB24650103C0EE24FF24870111969C91A8
:102F9000D20111968C91981709F445C0992339F004
:102FA000A80197012A193B094C095D0906C0A60131
:102FB00095012E193F09400B510B57FD08C0118296
:102FC0003382228224833583468357831DC081E068
:102FD00081833382228288279927DC01821B930B0D
:102FE000A40BB50B84839583A683B7830DC0220FF2
:102FF000331F441F551F24833583468357838281A3
:1030000093810197938382832481358146815781FF
:10301000DA01C9010197A109B1098F5F9F4FAF4F35
:10302000BF4328F30BC0918333822282EA0CFB1C3E
:103030000C1D1D1DE482F5820683178383E08083C7
:10304000248135814681578157FF1AC0C901AA27BB
:1030500097FDA095BA2F81709070A070B0705695B2
:10306000479537952795822B932BA42BB52B8483DB
:103070009583A683B783828193810196938382830C
:10308000DF0101C0D201CD01CDB7DEB7E2E10C9482
:10309000351DA0E2B0E0EFE4F8E10C94251D698352
:1030A0007A838B839C832D833E834F835887E9E00B
:1030B000EE2EF12CEC0EFD1ECE010196B7010E9402
:1030C000071C8E010F5E1F4FCE010596B8010E94AE
:1030D000071C8A8991E089278A8BC701B801AE0154
:1030E000475E5F4F0E94FD160E94321BA096E6E0ED
:1030F0000C94411DA0E2B0E0E0E8F8E10C94251D3D
:1031000069837A838B839C832D833E834F83588787
:10311000F9E0EF2EF12CEC0EFD1ECE010196B70169
:103120000E94071C8E010F5E1F4FCE010596B8014D
:103130000E94071CC701B801AE01475E5F4F0E94A5
:10314000FD160E94321BA096E6E00C94411DA0E201
:10315000B0E0EDEAF8E10C94191D69837A838B8362
:103160009C832D833E834F835887CE010196BE01F9
:10317000675F7F4F0E94071CCE010596BE016F5E00
:103180007F4F0E94071C9985923088F08989823090
:10319000C8F0943019F4823051F404C0843029F41A
:1031A000923081F486EA96E0C6C0923049F420E07D
:1031B0009A858A89981321E02A87CE010996BBC097
:1031C000823049F420E09A858A89981321E02A8B7D
:1031D000CE014196B0C02D843E844F8458886D88BE
:1031E0007E888F88988CEE24FF248701AA24BB2434
:1031F000650140E050E060E070E0E0E0F0E0C10137
:1032000081709070892BE9F0E60CF71C081D191DE0
:103210009A01AB012A0D3B1D4C1D5D1D80E090E025
:10322000A0E0B0E0E614F7040805190520F481E0F9
:1032300090E0A0E0B0E0BA01A901480F591F6A1F51
:103240007B1FAA0CBB1CCC1CDD1C97FE08C081E0B8
:1032500090E0A0E0B0E0A82AB92ACA2ADB2A319679
:10326000E032F10549F0660C771C881C991C5694D5
:10327000479437942794C3CFFA85EA892B893C89F0
:103280008B859C85280F391F2E5F3F4F17C0CA01C1
:1032900081709070892B61F016950795F794E794EB
:1032A00080E090E0A0E0B0E8E82AF92A0A2B1B2B86
:1032B00076956795579547952F5F3F4F77FDE7CFF9
:1032C0000CC0440F551F661F771F17FD4160EE0CA1
:1032D000FF1C001F111F21503040403090E0590763
:1032E00090E0690790E4790760F32B8F3C8FDB0156
:1032F000CA018F779070A070B07080349105A105DD
:10330000B10561F447FD0AC0E114F104010511059E
:1033100029F0405C5F4F6F4F7F4F40781A8EFE1749
:1033200011F081E08A8F4D8F5E8F6F8F78A383E0DD
:10333000898FCE0149960E94321BA096E2E10C943F
:10334000351DA8E1B0E0E7EAF9E10C94251D698399
:103350007A838B839C832D833E834F83588789E0B8
:10336000E82EF12CEC0EFD1ECE010196B7010E9455
:10337000071C8E010F5E1F4FCE010596B8010E94FB
:10338000071C8985823040F08989823028F0C70186
:10339000B8010E947F1C01C08FEF6896E6E00C9494
:1033A000411DA8E1B0E0E7EDF9E10C94251D69832A
:1033B0007A838B839C832D833E834F83588789E058
:1033C000E82EF12CEC0EFD1ECE010196B7010E94F5
:1033D000071C8E010F5E1F4FCE010596B8010E949B
:1033E000071C8985823040F08989823028F0C70126
:1033F000B8010E947F1C01C08FEF6896E6E00C9434
:10340000411DA8E1B0E0E7E0FAE10C94251D6983D5
:103410007A838B839C832D833E834F83588789E0F7
:10342000E82EF12CEC0EFD1ECE010196B7010E9494
:10343000071C8E010F5E1F4FCE010596B8010E943A
:10344000071C8985823040F08989823028F0C701C5
:10345000B8010E947F1C01C081E06896E6E00C94F0
:10346000411DA8E0B0E0E7E3FAE10C94221D9B01C6
:10347000AC0183E08983DA01C9018827B7FD839510
:103480009927AA27BB27B82E2115310541055105DB
:1034900019F482E089833AC08823A9F0203080E0C3
:1034A000380780E0480780E8580729F460E070E0BA
:1034B00080E09FEC30C0EE24FF248701E21AF30A7B
:1034C000040B150B02C079018A018EE1C82ED12CA4
:1034D000DC82CB82ED82FE820F831887C801B701A0
:1034E0000E94E31A01971816190684F4082E04C0E6
:1034F000EE0CFF1C001F111F0A94D2F7ED82FE8212
:103500000F831887C81AD90ADC82CB82BA82CE010F
:1035100001960E94321B2896E9E00C943E1DACE017
:10352000B0E0E5E9FAE10C94291D69837A838B8385
:103530009C83CE010196BE016B5F7F4F0E94071CEA
:103540008D81823061F1823050F1843021F48E819E
:10355000882351F12EC02F81388537FD20C06E8120
:103560002F3131051CF06623F9F023C08EE190E085
:10357000821B930B29853A854B855C8504C0569543
:103580004795379527958A95D2F76623B1F05095E0
:103590004095309521953F4F4F4F5F4F0EC020E033
:1035A00030E040E050E009C02FEF3FEF4FEF5FE722
:1035B00004C020E030E040E050E8B901CA012C9698
:1035C000E2E00C94451DEF92FF920F931F937B0155
:1035D0008C0180E0E81680E0F80681E0080780E0D2
:1035E000180788F48FEFE816F1040105110531F092
:1035F00028F088E090E0A0E0B0E017C080E090E024
:10360000A0E0B0E012C080E0E81680E0F80680E0BC
:10361000080781E0180728F088E190E0A0E0B0E01A
:1036200004C080E190E0A0E0B0E020E230E040E0C3
:1036300050E0281B390B4A0B5B0B04C0169507950D
:10364000F794E7948A95D2F7F701E255F94F808114
:10365000281B310941095109C9011F910F91FF90A0
:10366000EF900895DF92EF92FF920F931F93FC016A
:10367000E480F58006811781D1808081823048F412
:1036800080E090E0A0E1B0E0E82AF92A0A2B1B2BA9
:10369000A5C0843009F49FC0823021F4EE24FF24B9
:1036A000870105C0E114F1040105110519F4E0E0FA
:1036B000F0E096C0628173819FEF623879070CF069
:1036C0005BC022E83FEF261B370B2A3131052CF077
:1036D00020E030E040E050E02AC0B801A701022E0F
:1036E00004C076956795579547950A94D2F781E07F
:1036F00090E0A0E0B0E004C0880F991FAA1FBB1F94
:103700002A95D2F70197A109B1098E219F21A02303
:10371000B1230097A105B10521F081E090E0A0E080
:10372000B0E09A01AB01282B392B4A2B5B2BDA0135
:10373000C9018F779070A070B07080349105A10599
:10374000B10539F427FF09C0205C3F4F4F4F5F4F51
:1037500004C0215C3F4F4F4F5F4FE0E0F0E020306E
:10376000A0E03A07A0E04A07A0E45A0710F0E1E021
:10377000F0E079018A0127C06038710564F5FB012A
:10378000E158FF4FD801C7018F779070A070B070DB
:1037900080349105A105B10539F4E7FE0DC080E440
:1037A00090E0A0E0B0E004C08FE390E0A0E0B0E0E3
:1037B000E80EF91E0A1F1B1F17FF05C01695079577
:1037C000F794E794319687E016950795F794E79478
:1037D0008A95D1F705C0EE24FF248701EFEFF0E0D2
:1037E0006E2F679566276795902F9F77D794DD2476
:1037F000D7948E2F8695492F462B582F5D29B701D8
:10380000CA011F910F91FF90EF90DF900895FC0186
:10381000DB01408151812281622F6F7770E0221F8E
:103820002227221F9381892F880F822B282F30E097
:10383000991F9927991F11969C931197211531056E
:10384000A9F5411551056105710511F482E037C0F4
:1038500082E89FEF13969C938E9312979A01AB0187
:1038600067E0220F331F441F551F6A95D1F783E08D
:103870008C930DC0220F331F441F551F12968D913C
:103880009C911397019713969C938E9312972030D7
:1038900080E0380780E0480780E4580758F3149622
:1038A0002D933D934D935C93179708952F3F3105CA
:1038B00079F4411551056105710519F484E08C9383
:1038C000089564FF03C081E08C9312C01C9210C065
:1038D0002F57304013963C932E93129783E08C938E
:1038E00087E0440F551F661F771F8A95D1F77064D4
:1038F00014964D935D936D937C93179708951F9342
:10390000DC01FB019C91923008F447C08081823039
:1039100008F443C0943051F411961C91843099F509
:103920008181682F70E0611B71093FC0843021F0F4
:10393000923031F48230B9F18181882389F12DC030
:1039400011961C9111978230F1F081811817D9F4EA
:1039500012962D913C911397828193818217930740
:1039600094F028173907BCF014968D919D910D9015
:10397000BC91A02D248135814681578128173907B4
:103980004A075B0718F4112341F00AC08217930716
:10399000A407B50740F4112319F061E070E005C0F9
:1039A0006FEF7FEF02C060E070E0CB011F910895E0
:1039B000629FD001739FF001829FE00DF11D649F13
:1039C000E00DF11D929FF00D839FF00D749FF00D9F
:1039D000659FF00D9927729FB00DE11DF91F639F40
:1039E000B00DE11DF91FBD01CF0111240895A1E221
:1039F0001A2EAA1BBB1BFD010DC0AA1FBB1FEE1F69
:103A0000FF1FA217B307E407F50720F0A21BB30BB3
:103A1000E40BF50B661F771F881F991F1A9469F72F
:103A200060957095809590959B01AC01BD01CF018B
:103A300008952F923F924F925F926F927F928F9252
:103A40009F92AF92BF92CF92DF92EF92FF920F932D
:103A50001F93CF93DF93CDB7DEB7CA1BDB0B0FB637
:103A6000F894DEBF0FBECDBF09942A8839884888F4
:103A70005F846E847D848C849B84AA84B984C8848A
:103A8000DF80EE80FD800C811B81AA81B981CE0F81
:103A9000D11D0FB6F894DEBF0FBECDBFED01089566
:103AA000FC0188279927E89421912032E9F32930F5
:103AB00010F02E30C8F32B3241F02D3239F46894D7
:103AC00004C00E94F31D820F911D219120532A30C2
:103AD000C0F31EF4909581959F4F0895FB01DC0182
:103AE0000D900020E9F7119701900D920020E1F769
:103AF0000895FC018191861721F08823D9F7992731
:103B000008953197CF010895FB01DC0101900D92DA
:103B10000020E1F70895FB01DC010D900020E9F79A
:103B200011974150504028F0019000200D92C9F7A4
:103B300008951C920895FB01DC014150504030F083
:103B40008D910190801919F40020B9F7881B990B09
:103B50000895FB01DC014150504048F001900D9266
:103B60000020C9F701C01D9241505040E0F7089570
:103B7000FB0151915523A9F0BF01DC014D9145177F
:103B80004111E1F759F4CD010190002049F04D9128
:103B900040154111C9F3FB014111EFCF81E090E0E5
:103BA00001970895FB019F01E8944230C4F045322B
:103BB000B4F44A3029F497FB1EF4909581959F4FF9
:103BC000642F77270E94E220805D8A330CF0895DA4
:103BD0008193CB010097A1F716F45DE25193108217
:103BE000C9010C9448207AE0979F902D879F802DE3
:103BF000910D112408950F931F93DF93CF93CDB7A9
:103C0000DEB72E970FB6F894DEBF0FBECDBF0D897D
:103C10001E8986E08C831A8309838FEF9FE79E833A
:103C20008D839E01275E3F4FCE0101966F89788D6F
:103C3000A9010E942C1E2F813885020F131FF80145
:103C400010822E960FB6F894DEBF0FBECDBFCF9177
:103C5000DF911F910F9108952F923F924F925F92A3
:103C60006F927F928F929F92AF92BF92CF92DF928C
:103C7000EF92FF920F931F93DF93CF93CDB7DEB7F1
:103C80002B970FB6F894DEBF0FBECDBF3C012B01C2
:103C90005A01FC0117821682838181FD03C06FEFF8
:103CA0007FEFC6C19AE0892E1E010894211C311CA9
:103CB000F3012381F20123FD859123FF81912F01DF
:103CC000882309F4B2C1853239F423FD859123FF9D
:103CD00081912F01853229F490E0B3010E94582090
:103CE000E7CF982FFF24EE249924FFE1FF15D0F0B1
:103CF0009B3269F09C3228F4903259F0933291F45F
:103D00000EC09D3249F0903369F441E024C052E086
:103D1000F52A84E0F82A28C098E0F92A25C0E0E1D5
:103D2000FE2A22C0F7FC29C0892F80538A3070F404
:103D3000F6FE05C0989C902C1124980E15C0E89CA6
:103D4000E02C1124E80EF0E2FF2A0EC09E3229F486
:103D5000F6FC6BC140E4F42A07C09C3619F450E825
:103D6000F52A02C0983649F4F20123FD959123FF0C
:103D700091912F01992309F0B8CF892F8554833071
:103D800018F08052833038F444E050E0A40EB51EA1
:103D90005FE359830FC0933631F0933779F0933551
:103DA00009F056C020C0F5018081898342E050E0CF
:103DB000A40EB51E610101E010E012C0F501C08043
:103DC000D180F6FC03C06FEF7FEF02C0692D70E079
:103DD00042E050E0A40EB51EC6010E943D208C01B9
:103DE0005FE7F52214C0F501C080D180F6FC03C066
:103DF0006FEF7FEF02C0692D70E042E050E0A40E4B
:103E0000B51EC6010E9432208C0150E8F52AF3FE4F
:103E100007C01AC080E290E0B3010E945820EA94E3
:103E20008E2D90E008171907A8F30EC0F601F7FCD5
:103E30008591F7FE81916F0190E0B3010E945820B7
:103E4000E110EA94015010400115110579F7EAC01C
:103E5000943611F0993669F5F7FE08C0F501208116
:103E600031814281538184E090E00AC0F501808174
:103E700091819C01442737FD4095542F82E090E0CA
:103E8000A80EB91E9FE6F92257FF09C0509540952C
:103E9000309521953F4F4F4F5F4FE0E8FE2ACA0112
:103EA000B901A1012AE030E00E948420D82ED21866
:103EB00040C0953729F41F2D1F7E2AE030E01DC039
:103EC0001F2D197F9F3661F0903720F4983509F047
:103ED000ACC00FC0903739F0983709F0A6C004C0C5
:103EE00028E030E00AC0106114FD146020E130E0E9
:103EF00004C014FD166020E132E017FF08C0F50190
:103F0000608171818281938144E050E008C0F501B5
:103F100080819181BC0180E090E042E050E0A40EFD
:103F2000B51EA1010E948420D82ED2188FE7F82E4A
:103F3000F122F6FE0BC05EEFF522D91438F4F4FE40
:103F400007C0F2FC05C08FEEF82202C01D2D01C093
:103F5000192DF4FE0DC0FE01ED0DF11D80818033A1
:103F600019F499EEF92208C01F5FF2FE05C003C0E4
:103F70008F2D867809F01F5F0F2DF3FC14C0F0FE23
:103F80000FC01E1510F09D2C0BC09D2C9E0C911A7D
:103F90001E2D06C080E290E0B3010E9458201F5FF2
:103FA0001E15C0F304C01E1510F4E11A01C0EE2462
:103FB00004FF0FC080E390E0B3010E94582002FF8D
:103FC0001DC001FD03C088E790E00EC088E590E0C9
:103FD0000BC0802F867891F001FF02C08BE201C0F8
:103FE00080E2F7FC8DE290E0B3010E94582006C009
:103FF00080E390E0B3010E9458209A94D914C0F352
:10400000DA94F101ED0DF11D808190E0B3010E9481
:104010005820DD20A9F706C080E290E0B3010E949D
:104020005820EA94EE20C1F743CEF30166817781F0
:10403000CB012B960FB6F894DEBF0FBECDBFCF914C
:10404000DF911F910F91FF90EF90DF90CF90BF9085
:10405000AF909F908F907F906F905F904F903F9028
:104060002F900895FC010590615070400110D8F721
:10407000809590958E0F9F1F0895FC0161507040B0
:1040800001900110D8F7809590958E0F9F1F08958D
:10409000DC01FC01672F71917723E1F7329704C0AF
:1040A0007C916D9370836291AE17BF07C8F308953A
:1040B0000F931F93CF93DF938C01EB018B8181FFD3
:1040C0001BC082FF0DC02E813F818C819D812817EE
:1040D000390764F4E881F9810193F983E88306C024
:1040E000E885F985802F0995892B31F48E819F8190
:1040F00001969F838E8302C00FEF1FEFC801DF91EF
:10410000CF911F910F910895FA01AA27283051F1FC
:10411000203181F1E8946F936E7F6E5F7F4F8F4FF8
:104120009F4FAF4FB1E03ED0B4E03CD0670F781F57
:10413000891F9A1FA11D680F791F8A1F911DA11D3C
:104140006A0F711D811D911DA11D20D009F4689475
:104150003F912AE0269F11243019305D3193DEF61D
:10416000CF010895462F4770405D4193B3E00FD0D3
:10417000C9F7F6CF462F4F70405D4A3318F0495DBE
:1041800031FD4052419302D0A9F7EACFB4E0A695A1
:104190009795879577956795BA95C9F700976105C3
:1041A000710508959B01AC010A2E06945795479519
:1041B00037952795BA95C9F7620F731F841F951F0E
:1041C000A01D0895AA1BBB1B51E107C0AA1FBB1F5E
:1041D000A617B70710F0A61BB70B881F991F5A9593
:1041E000A9F780959095BC01CD010895F894FFCF73
:1041F00061742B6370696E3F002B4350494E3A2027
:104200005245414459000A0D002B434C49503A2075
:1042100022006174680D0A0052494E47004E4F203B
:10422000434152524945520061742B636D67733D9F
:104230002200220D0A001A002B434D47533A004F2B
:104240004B00536E7961746F212020004E617275AE
:104250007368656E206B6F6E74757200203100207C
:10426000320020330020340020004F6872616E61FC
:1042700021202000414C41524D204E6172757368DF
:10428000656E206B6F6E7475722000414C41524D0B
:1042900021200061742B637573643D312C22002250
:1042A0002C31350D0A002B435553443A200041541C
:1042B0002B435042533D22534D220D0A0041542BB3
:1042C000435042523D000D0A002B435042523A20C7
:1042D000003030300041542B435042573D002C00F9
:1042E0002C2C0043616C6C20526561647900415450
:1042F0000D0A0063737743616E74436F6E6E65637E
:104300007442696C6C0D0A006373774C6974746C49
:10431000654D6F6E65790D0A006373774F4B0D0A1B
:1043200000010001000D0A53544152540D0A00418E
:10433000540D0A000D0A00F02253657474696E670B
:1043400073220000000000000000000000000000D8
:104350000000000000000000000000223138303072
:10436000303030302200000000000000000000006B
:104370000000000000000000000000000000224ECD
:10438000756D536574747322000000000000000016
:10439000000000000000000000000000000000001D
:1043A0000022313333333333303022000000000039
:1043B00000000000000000000000000000000000FD
:1043C00000000000225573657253657474732200F7
:1043D00000000000000000000000000000000000DD
:1043E0000000000000000022313531353033303319
:1043F0003132313230303030220000000000000015
:104400000000000000000000000022526573657289
:104410007622000000000000000000000000000004
:10442000000000000000000000000000002230300A
:10443000302200000000000000000000000000002A
:10444000000000000000000000000000000000006C
:104450002244617463683122000000000000000003
:10446000000000000000000000000000000000004C
:10447000000000223030303530303335220000006B
:10448000000000000000000000000000000000002C
:1044900000000000000022446174636832220000C2
:1044A000000000000000000000000000000000000C
:1044B00000000000000000000022313030313030B8
:1044C0003435220000000000000000000000000061
:1044D000000000000000000000000000224F706596
:1044E0007261746F72312200000000000000000051
:1044F000000000000000000000000000000000229A
:104500002B333830393133313835323436220000EC
:10451000000000000000000000000000000000009B
:104520000000224F70657261746F723222000000C9
:10453000000000000000000000000000000000007B
:104540000000000000223030302200000000000097
:10455000000000000000000000000000000000005B
:104560000000000000000000224F70657261746F4F
:104570007233220000000000000000000000000074
:104580000000000000000000000000223030302257
:10459000000000000000000000000000000000001B
:1045A0000000000000000000000000000000224F9A
:1045B00070657261746F72342200000000000000A8
:1045C00000000000000000000000000000000000EB
:1045D0000022303030220000000000000000000007
:1045E00000000000000000000000000000000000CB
:1045F00000000000224F70657261746F72352200F6
:1046000000000000000000000000000000000000AA
:1046100000000000000000223030302200000000C6
:10462000000000000000000000000000000000008A
:1046300000000000000000000000224F7065726161
:10464000746F7236220000000000000000000000BD
:1046500000000000000000000000000000223030D8
:1046600030220000000000000000000000000000F8
:10467000000000000000000000000000000000003A
:104680000161742B6970723D393630300D0A0000BB
:10469000000000000061742B637265673D310D0AF4
:1046A00000000000000000000061742B636F6C705C
:1046B0003D310D0A00000000000000000061742B75
:1046C000636C69703D310D0A0000000000000000BD
:1046D0000061742B636D67663D310D0A00000000B8
:1046E0000000000000617465300D0A000000000049
:1046F00000000000000000000061740D0A000000CE
:104700000000000000000000000000000080250004
:1047100000184700000096000000E1000000C20100
:10472000000500546F204D6F64656D2D3E004F4BAA
:10473000002B434D54493A22534D22005365747463
:10474000733A20002C20000A0D004D696E4D6178EF
:1047500054313A20004D696E4D617854323A200050
:10476000253032580074003D004572724E4F4E00A5
:10477000457272435243003B20004D494E21212196
:104780003B20004D41582121213B200023003F00C8
:104790002564430017000000000000000000000135
:1047A00002020303030304040404040404040505CF
:1047B00005050505050505050505050505050606A7
:1047C0000606060606060606060606060606060689
:1047D0000606060606060606060606060606070777
:1047E0000707070707070707070707070707070759
:1047F0000707070707070707070707070707070749
:104800000707070707070707070707070707070738
:104810000707070707070707070707070707080826
:104820000808080808080808080808080808080808
:1048300008080808080808080808080808080808F8
:1048400008080808080808080808080808080808E8
:1048500008080808080808080808080808080808D8
:1048600008080808080808080808080808080808C8
:1048700008080808080808080808080808080808B8
:1048800008080808080808080808080808080808A8
:0E4890000808080808080808080808080808AA
:00000001FF
