:100000000C9466000C9485000C9485000C9485007B
:100010000C9485000C9485000C9485000C9485004C
:100020000C9485000C9485000C9485000C9485003C
:100030000C94A7000C9485000C9485000C9485000A
:100040000C9485000C9485000C9490100C94850001
:100050000C9485000C9485000C9485000C9485000C
:100060000C9485000C9485000C9485000C948500FC
:100070000C9485000C9485000C9485000C948500EC
:100080000C9485000C9485000C948500B70BBE0B76
:10009000280C350C3E0C500C710C8F0CC40CDB0C76
:1000A000DE0C0D0D900D900D790D8E0D900D900DB7
:1000B000900D900D900D900D3C0D450D900D900DF7
:1000C000900D9E0CF10C900D900D160D11241FBE7D
:1000D000CFEFD0E1DEBFCDBF17E0A0E0B1E0ECE7AD
:1000E000F2E400E00BBF02C007900D92A23BB10703
:1000F000D9F71EE0A2EBB7E001C01D92A632B1070E
:10010000E1F70E94A40D0C943C210C9498008FB749
:10011000F8942091B2073091B3078FBFC9010895B9
:1001200025E030E040E050E00E943D1DC901089507
:100130001F920F920FB60F9211248F9381E080933C
:10014000B4078F910F900FBE0F901F9018951F92BC
:100150000F920FB60F9211248F939F938091B20745
:100160009091B30701969093B3078093B20780E113
:1001700086BF9F918F910F900FBE0F901F90189583
:100180001DBC1CBC80E090E99BBD8ABD89E08EBD92
:1001900080E187BF86BF089580914B028F7E809358
:1001A0004B02089580914B02806180934B02089529
:1001B00080914B028F7D80934B02089580914B027A
:1001C000806280934B020895EF92FF920F931F93EA
:1001D0008091B5079091B6078C319105C9F08D31AA
:1001E00091051CF4019749F508C08A32910519F070
:1001F0008C9719F51EC081E021C081EF97E060E087
:1002000071E045EB57E02CE130E00E94970F15C0FC
:100210008091F1079091F20769E071E040ED57E0BD
:1002200025EB37E00AE210E0EE24FF240E94E10F04
:1002300004C01092B6071092B50780E01F910F918D
:10024000FF90EF9008950F931F9380913702909144
:1002500038028130910519F04C9791F509C00E9440
:1002600087009093A2088093A1088CE190E024C0BD
:100270000E9487002091A1083091A2088C01021BE6
:10028000130B68E873E180E090E00E949000801713
:100290009107B0F482E09DE00E949D148091020DD0
:1002A000882341F082E09DE00E946B0E86E191E0A0
:1002B0000E946B0E81E090E09093380280933702A9
:1002C0001F910F9108950F931F9380E090E00E947B
:1002D0007F158091AF0D9091B00D892B31F481E0A5
:1002E00090E09093B00D8093AF0D81E090E00E947C
:1002F0007F158091EF0D9091F00D892B31F481E005
:1003000090E09093F00D8093EF0D8091CE078823BD
:10031000D9F58091B50D8823D1F08091DB0D813026
:1003200051F481E08093CE070E9487009093A0084B
:1003300080939F080CC08091E10D813091F38091F2
:10034000BA0D813071F38091BB0D813051F38091F2
:10035000F50D8823C9F080911B0E813061F08091EA
:10036000210E813041F08091FA0D813021F0809191
:10037000FB0D813049F481E08093CE070E94870015
:100380009093A00880939F088091CE07882309F45A
:100390004AC00E94870020919F083091A0088C01DC
:1003A000021B130B60ED77E080E090E00E9490006C
:1003B00008171907C0F182E09DE00E949D14109279
:1003C000DB0D1092E10D1092BA0D1092BB0D109240
:1003D0001B0E1092210E1092FA0D1092FB0D0E942E
:1003E0007D0F882361F487E0809362098FEF80930B
:1003F00063098CEC98E062E07DE00E94CA1D81E018
:1004000090E09093D8078093D7070E947D0F8823B0
:1004100041F082E09DE00E946B0E86E191E00E9437
:100420006B0E1092CE071F910F910895CF92DF921D
:10043000EF92FF920F931F93CF93DF937C0106E01F
:1004400010E086E2C82ED12C0C9DE0010D9DD00D50
:100450001C9DD00D1124C550D64FC701BE0142E2EC
:1004600050E00E94E11D009711F48CA106C00F5FBF
:100470001F4F0C30110541F780E0DF91CF911F91A4
:100480000F91FF90EF90DF90CF90089580916409D5
:10049000882309F43FC08BE59CE069E171E00E948C
:1004A000FE1D0097A9F083E69CE062E270E00E94E6
:1004B000BF1DFC01108283E69CE00E941602813081
:1004C00049F11092C60782E291E00E94780E22C0A4
:1004D0008BE59CE068E271E00E94FE1D009781F0D0
:1004E0008091C607833044F082E291E00E94780E4A
:1004F00081E08093C7070CC08F5F8093C6070AC056
:100500008BE59CE06DE271E00E94FE1D009711F00A
:100510001092C60780E008950F931F932091C007A3
:100520003091C1072115310509F406C18091C20738
:100530009091C3078217930709F460C01092C50712
:100540001092C40729303105E9F02A3031052CF426
:100550002830310509F0F0C008C02B30310569F1B1
:100560002F30310509F0E8C03DC084EF91E0909351
:10057000DE078093DD079093E0078093DF078CED23
:1005800095E027C084EF91E09093DE078093DD072C
:100590009093E0078093DF079093E2078093E10751
:1005A0009093E4078093E3079093E6078093E50731
:1005B0001092E8071092E707BFC08CED95E090938A
:1005C000DE078093DD079093E0078093DF0784EFD9
:1005D00091E09093E2078093E1071092E407109274
:1005E000E307AAC01092DE071092DD0780E00E94A8
:1005F0007A0F1092C1071092C0079EC080913502F9
:10060000909136028D31910509F44BC08E319105E0
:100610003CF48130910579F04C9709F08DC017C0FA
:100620008A32910591F18C32910509F460C04F979F
:1006300009F082C065C081E00E946D0F0E948700B2
:100640009093DC078093DB078CE190E071C00E94FF
:1006500087002091DB073091DC078C01021B130B14
:10066000E091C407F091C507EE0FFF1FE352F84F6A
:100670006081718180E090E00E9490000817190766
:1006800008F45AC08AE290E053C081E00E94730FE0
:100690000E9487009093DC078093DB078DE190E058
:1006A00047C00E9487002091DB073091DC078C0156
:1006B000021B130B64EF71E080E090E00E94900059
:1006C00008171907C8F1E091C407F091C5073196E2
:1006D000F093C507E093C407EE0FFF1FE352F84FF6
:1006E00080819181892B11F58CE290E021C00E94DC
:1006F00087009093DC078093DB078FE190E018C0C0
:100700000E9487002091DB073091DC078C01021BDF
:10071000130B64EF71E080E090E00E9490000817F6
:10072000190750F01092C5071092C40781E090E0BD
:1007300090933602809335028091C0079091C10753
:100740009093C3078093C20780E01F910F91089593
:10075000EF92FF920F931F93DF93CF93CDB7DEB746
:10076000C659D0400FB6F894DEBF0FBECDBF809102
:10077000BE079091BF078C319105A9F18D3191058C
:1007800034F4009781F0019709F0D5C01FC08F3174
:10079000910509F4AFC08C32910509F4C8C04D979A
:1007A00009F0C9C095C080916209882309F4C3C0CB
:1007B000A3EFB7E0ECECF8E088E901900D928150EE
:1007C000E1F71092620981E090E008C08AE190E0D0
:1007D0009093F70C8093F60C8CE190E09093BF0718
:1007E0008093BE07A8C04091F60C5091F70C4032A0
:1007F00051051CF08CE290E0F1CF44515040B6E23C
:10080000EB2EF12C4E9DF0014F9DF00D5E9DF00DF5
:1008100011244C5E5F4FE550F64F83A18823C9F049
:100820008091890894A18923A1F020918A08332717
:1008300027FD3095207F307085A1992787FD909501
:10084000A4E0880F991FAA95E1F728233923232BC9
:1008500039F44F5F5F4F5093F70C4093F60C6BC029
:100860008E010F5F1F4FC80168E371E045E950E05A
:100870000E94EF1D8091F60C9091F70C44978E9D8D
:10088000B0018F9D700D9E9D700D11246550764FA7
:10089000C80145E950E00E94D11DC80162E471E041
:1008A0000E94B41DC80163EF77E045E950E00E9463
:1008B000D11DC80166E471E00E94B41D89ED97E086
:1008C000B8014EEB57E02DE130E00E94970F33C0A6
:1008D0008091D9079091DA0768E471E048E95AE31A
:1008E0002EEB37E00FE110E0FFE1EF2EF12C0E943C
:1008F000E10F21C08091D9079091DA076FE471E090
:1009000048E853E12EEB37E00CE110E0ECE1EE2E8D
:10091000F12C0E94E10F882371F08091F60C9091E8
:10092000F70C01969093F70C8093F60C04C010928C
:10093000BF071092BE0780E0CA56DF4F0FB6F8948B
:10094000DEBF0FBECDBFCF91DF911F910F91FF9002
:10095000EF9008950F931F930E9463010E94431527
:100960000E9423010E9446028091C8079091C90706
:100970008231910509F4A9C0833191055CF480317D
:10098000910599F1813191050CF080C00F9709F024
:10099000FAC110C08431910509F482C184319105F6
:1009A0000CF434C18531910509F4B0C0469709F0C3
:1009B000EAC101C11092C60783E0809362098FEFFC
:1009C000809363098CEC98E062E571E00E94CA1D97
:1009D00082E09DE00E949D148CEC98E062E07DE056
:1009E0000E94B41D80E190E06BC080E00E947A0F0D
:1009F0008091C707882309F4C6C19091F20C99230E
:100A000009F48AC083E080936209909363098CECB7
:100A100098E06CE571E00E94CA1D8091F20C84FFA1
:100A200006C08CEC98E06CE671E00E94B41D8091E9
:100A3000F20C85FF06C08CEC98E06FE671E00E9436
:100A4000B41D8091F20C86FF06C08CEC98E062E742
:100A500071E00E94B41D8091F20C87FF06C08CECFF
:100A600098E065E771E00E94B41D8CEC98E068E7BF
:100A700071E00E94B41D82E09DE00E949D148CEC08
:100A800098E062E07DE00E94B41D7DC11092C6072F
:100A900083E0809362098FEF809363098CEC98E088
:100AA0006AE771E00E94CA1D82E09DE00E949D14E9
:100AB0008CEC98E062E07DE00E94B41D82E190E061
:100AC0009093C9078093C8075EC182E00E947A0FA5
:100AD0008091C707882331F08FE090E09093C90799
:100AE0008093C8078091F20C882309F44CC183E1FC
:100AF00090E09093C9078093C80781E090E09093BD
:100B0000CB078093CA071092C6073DC11092C60753
:100B10009091F20C992319F481E190E0D1CF83E018
:100B200080936209909363098CEC98E064E871E02B
:100B30000E94CA1D8091F20C84FF06C08CEC98E0E4
:100B40006CE671E00E94B41D8091F20C85FF06C036
:100B50008CEC98E06FE671E00E94B41D8091F20C7D
:100B600086FF06C08CEC98E062E771E00E94B41D3D
:100B70008091F20C87FF06C08CEC98E065E771E08D
:100B80000E94B41D8CEC98E068E771E00E94B41DEF
:100B90000E948700909396088093950882E09DE0DC
:100BA0000E949D148CEC98E062E07DE00E94B41DF0
:100BB00086E190E085CF0E948700209195083091D2
:100BC00096088C01021B130B60E27EE480E090E04B
:100BD0000E9490000817190788F08091F20C882372
:100BE00031F481E190E09093C9078093C8070E9497
:100BF00087009093960880939508C5C08091C70799
:100C0000882309F4C0C08FE090E0B5C01092C607F9
:100C100087E0809362098091F20C809363098CECE9
:100C200098E06BE971E00E94CA1D8091F20C84FF8C
:100C300006C08CEC98E06CE671E00E94B41D8091D7
:100C4000F20C85FF06C08CEC98E06FE671E00E9424
:100C5000B41D8091F20C86FF06C08CEC98E062E730
:100C600071E00E94B41D8091F20C87FF06C08CECED
:100C700098E065E771E00E94B41D8CEC98E068E7AD
:100C800071E00E94B41D82E09DE00E949D148CECF6
:100C900098E062E07DE00E94B41D84E190E010CF16
:100CA00083E00E947A0F8091C707882399F0809192
:100CB0004B02806180934B021092CB071092CA07BF
:100CC00085E190E09093C9078093C8071092CD0703
:100CD0001092CC078091CA079091CB078130910583
:100CE00021F04C9709F04FC012C00E9487009093EA
:100CF00092088093910880914B028F7E80934B02E3
:100D00008CE190E09093CB078093CA073CC0609140
:100D1000C90870E080E090E028EE33E040E050E069
:100D20000E941E1D6093990870939A0880939B08F7
:100D300090939C080E94870020919108309192081E
:100D40008C01021B130B6091990870919A08809195
:100D50009B0890919C080E9490000817190798F032
:100D600080914B02806180934B021092CB071092CE
:100D7000CA0785E190E09093C9078093C807109255
:100D8000CD071092CC070E94A8038091F20C90919D
:100D90004B02882311F09F7D01C0906290934B021B
:100DA0001092C70780E01F910F910895EF92FF9274
:100DB0000F931F93DF93CF93CDB7DEB7C659D040C3
:100DC0000FB6F894DEBF0FBECDBF8091BC079091E7
:100DD000BD078A31910509F45EC08B31910534F469
:100DE0008130910581F04997C1F40BC08D31910597
:100DF00009F447C08A32910509F44FC04C9769F451
:100E00002EC08AE04BC08091900A882341F48AE288
:100E100090E09093BD078093BC0781E03FC08E01B6
:100E20000F5F1F4FC80163EA71E045E950E00E947F
:100E3000EF1DC8016DE67AE045E950E00E94D11D42
:100E4000C8016FEA71E00E94B41D83E998E0B8011F
:100E50004CEB57E02CE130E00E94970FDECF809101
:100E600093089091940866EB71E040E157E22CEB17
:100E700037E00DE110E0E9E1EE2EF12C0E94E10FE8
:100E8000CCCF8091D5079091D60704970CF0BFCFB7
:100E90008AE190E0BECF8BE001C080E0CA56DF4F10
:100EA0000FB6F894DEBF0FBECDBFCF91DF911F917B
:100EB0000F91FF90EF900895EF92FF921F93DF93B1
:100EC000CF93CDB7DEB7C659D0400FB6F894DEBF8A
:100ED0000FBECDBF62E270E00E94BF1D9C01009773
:100EE000E9F160E070E010E040E050E07E0108943D
:100EF000E11CF11C21C04139510521F480E38983B3
:100F00001A8224C0F901E40FF51F9081892F8053C4
:100F10008A3040F4F701E60FF71F90836F5F7F4F31
:100F200011E008C0113029F46C0F7D1FFB01118204
:100F30000FC010E04F5F5F4FF90101900020E9F70B
:100F40003197E21BF30B4E175F07A8F2112331F024
:100F5000CE0101960E94961D9C0102C020E030E067
:100F6000C901CA56DF4F0FB6F894DEBF0FBECDBF22
:100F7000CF91DF911F91FF90EF900895CF92DF9274
:100F8000EF92FF920F931F93DF93CF93CDB7DEB70E
:100F90002A970FB6F894DEBF0FBECDBF6C017B0160
:100FA000FC0101900020E9F73197E81BF90BDB0108
:100FB00016E0AA0FBB1F1A95E1F738976CF4FD01F4
:100FC000EE55F24F89EC9FEF908B878788EC90E08D
:100FD000928B818B138A49C0AE55B24F81E05396F4
:100FE0008C93B6016F5F7F4F8E010F5F1F4FC8015B
:100FF00043E050E00E94EF1D1C82C8010E94961D34
:101000009C01F6018081813319F4309521953F4F81
:10101000F701A6E0EE0FFF1FAA95E1F7EE55F24F9C
:10102000308B2787B6016B5F7F4F8E010F5F1F4F9D
:10103000C80143E050E00E94EF1D1C82C8010E94DD
:10104000961D9C01F6018481813319F43095219518
:101050003F4FF6E0EE0CFF1CFA95E1F782EA9DE0C7
:10106000E80EF91EF701328B218B2A960FB6F89401
:10107000DEBF0FBECDBFCF91DF911F910F91FF90CB
:10108000EF90DF90CF900895CF92DF92EF92FF9292
:101090000F931F93DF93CF93CDB7DEB72A970FB689
:1010A000F894DEBF0FBECDBFFC0101900020E9F730
:1010B0003197E81BF90B3C97ECF07C0104E01BE056
:1010C0006E010894C11CD11CC601B70142E050E07A
:1010D0000E94EF1D1B82C6010E94961DF8018083AD
:1010E00082E090E0E80EF91E0A5D1F4F9BE0083E8B
:1010F000190751F72A960FB6F894DEBF0FBECDBF81
:10110000CF91DF911F910F91FF90EF90DF90CF90E3
:101110000895CF92DF92EF92FF920F931F93DF9388
:10112000CF93CDB7DEB72A970FB6F894DEBF0FBEC8
:10113000CDBFFC0101900020E9F73197E81BF90BC6
:1011400036972CF17C0103E01BE06E010894C11C72
:10115000D11CC601B70141E050E00E94EF1D1A8288
:10116000C6010E94961D813039F0823029F083300B
:1011700011F484E001C080E0F80180830894E11C50
:10118000F11C0A5D1F4FFBE0073E1F0711F72A966F
:101190000FB6F894DEBF0FBECDBFCF91DF911F9188
:1011A0000F91FF90EF90DF90CF900895EF92FF9214
:1011B0000F931F93DF93CF93CDB7DEB72A970FB668
:1011C000F894DEBF0FBECDBF7C01FC010190002072
:1011D000E9F73197E81BF90B359734F41092C808FA
:1011E0008CE38093C90829C08E010F5F1F4FC8018F
:1011F000B70143E050E00E94EF1D1C82C8010E942D
:10120000961D8093C9088E3118F48EE18093C90829
:1012100083E090E0E80EF91E8E010F5F1F4FC801BA
:10122000B70142E050E00E94EF1D1B82C8010E94FE
:10123000961D8295807F8093C8082A960FB6F894F1
:10124000DEBF0FBECDBFCF91DF911F910F91FF90F9
:10125000EF900895EF92FF920F931F93DF93CF9338
:10126000CDB7DEB7C654D0400FB6F894DEBF0FBE80
:10127000CDBF8091B9079091BA078D31910509F4DE
:101280004AC08E3191054CF481309105E9F08C31E2
:10129000910559F1892BA9F02BC18A32910579F07A
:1012A0008B32910524F44F9709F022C160C08B3234
:1012B000910509F414C18C9709F01AC113C180E09B
:1012C00018C11092BB0714C18DE898E06EEB71E075
:1012D00049EB57E02CE130E00E94970F84E190E069
:1012E0009093F70C8093F60C03C180918D08909138
:1012F0008E086FE471E040ED57E029EB37E00DE137
:1013000010E0FBE2EF2EF12C0E94E10F843009F097
:10131000EFC083E03FC08091F60C9091F70C7E0106
:101320000894E11CF11CB7014AE050E00E94181E2D
:101330008E010C5D1F4FC8016DEC71E042E250E080
:101340000E94EF1DC801B70142E250E00E94D11D8A
:10135000C80166ED71E00E94B41D8DE898E0B80107
:1013600049EB57E02FE130E00E94970FC1C0809118
:101370008D0890918E0869ED71E040ED57E029EB02
:1013800037E00DE110E0EBE2EE2EF12C0E94E10FD0
:10139000843019F48093BB07ACC0813009F0A8C039
:1013A00086E69CE062E270E00E94BF1DFC011082B4
:1013B0008091F60C9091F70C449726E230E0AC0156
:1013C000429FC001439F900D529F900D1124855064
:1013D000964F66E67CE042E250E00E94EF1D80916D
:1013E000F60C9091F70C449721F48BEF99E00E9452
:1013F000D6088091F60C9091F70C459721F481E284
:101400009AE00E9489088091F60C9091F70C46971B
:1014100021F487E49AE00E9444080091F60C1091B0
:10142000F70C0731110581F48DE69AE061EE71E069
:1014300042E250E00E94E11D009719F41092900AD8
:101440000CC081E08093900A0831110531F483E9E2
:101450009AE060E070E00E94BE078091F60C9091E7
:10146000F70C499731F489EB9AE061E070E00E9453
:10147000BE070091F60C1091F70C0A31110504F12A
:101480000451104086E290E0089F7001099FF00C23
:10149000189FF00C11240C5E1F4F8BEF99E0E80EA3
:1014A000F91EC70161EE71E042E250E00E94E11DC9
:1014B000009719F4F70113A203C081E0F70183A399
:1014C000C80101969093F70C8093F60C809784F0F6
:1014D0008AE290E09093BA078093B90709C080919F
:1014E000BB0707C01092BB071092BA071092B9074A
:1014F00081E0CA5BDF4F0FB6F894DEBF0FBECDBFF1
:10150000CF91DF911F910F91FF90EF900895EF928F
:10151000FF920F931F93DF93CF93CDB7DEB7C95BD5
:10152000D0400FB6F894DEBF0FBECDBF8091B70795
:101530009091B8078F31910509F4A8C080329105C8
:1015400054F48C31910529F18D319105B9F1019750
:1015500009F0C7C00DC08B32910509F4C4C08C32AC
:10156000910509F4BAC08A9709F0BBC080E0BCC0FD
:101570008FE898E06EEB71E047EB57E02CE130E04C
:101580000E94970F84E190E09093F70C8093F60C03
:10159000A8C080918F08909190086FE471E040EDB1
:1015A00057E027EB37E00DE110E0EBE2EE2EF12CF7
:1015B0000E94E10F843009F094C095C08091F60C30
:1015C0009091F70C8E010F5F1F4FB8014AE050E079
:1015D0000E94181EB4E2EB2EF12CEC0EFD1EC7018A
:1015E00065EE71E045E950E00E94EF1DC701B801CA
:1015F00045E950E00E94D11DC7016EEE71E00E94E6
:10160000B41D8091F60C9091F70C449706E410E01D
:10161000809FB001819F700D909F700D11246159C2
:101620007D4FC70145E950E00E94D11DC70160EF21
:1016300071E00E94B41D8091F60C9091F70C4497D4
:10164000809FB001819F700D909F700D1124645B8D
:101650007D4FC70145E950E00E94D11DC70166EDED
:1016600071E00E94B41D0E947D0F882319F0C7010C
:101670000E946B0E8FE898E0BE016C5D7F4F47EBD8
:1016800057E02FE130E00E94970F2BC080918F0828
:10169000909190086FE471E048EB5BE027EB37E056
:1016A0000DE110E0ABE2EA2EF12C0E94E10F843054
:1016B000D1F08130B1F48091F60C9091F70C019645
:1016C0009093F70C8093F60C80975CF08AE290E0A0
:1016D0009093B8078093B70704C01092B807109290
:1016E000B70781E001C084E0C754DF4F0FB6F8941C
:1016F000DEBF0FBECDBFCF91DF911F910F91FF9045
:10170000EF900895CF92DF92EF92FF920F931F9385
:10171000DF93CF93CDB7DEB7C456D0400FB6F89461
:10172000DEBF0FBECDBF8091D207882379F48091B0
:101730006409882359F08BE59CE063EF71E00E9417
:10174000FE1D009719F081E08093D207E091CF074A
:10175000F091D0073197E032F10508F0E1C1EA5B82
:10176000FF4FEE0FFF1F0590F491E02D09941092AA
:10177000CB081092CA0882E090E06CC12091D30798
:101780003091D40780913506909136062817390795
:1017900024F01092D4071092D307E091D307F09170
:1017A000D407EE0FFF1FEE0FFF1FEF5DF94FC08054
:1017B000D180E280F38060E078E087E090E0A701EC
:1017C00096010E943D1DDA01C90101970E943E0E5B
:1017D0008DB79EB708970FB6F8949EBF0FBE8DBF0A
:1017E000EDB7FEB731968E010F5F1F4FADB7BEB795
:1017F00012961C930E9311978EEF91E09383828340
:10180000C482D582E682F7820E94411E8DB79EB7C0
:1018100008960FB6F8949EBF0FBE8DBFC80166ED47
:1018200071E00E94B41DC8010E946B0E8091D30725
:101830009091D40701969093D4078093D3078BE8B7
:1018400098E06FEC77E043E050E00E947F0F68C1C2
:1018500080918B0890918C0864EF71E04FEC57E019
:1018600024E030E00E94B30F5BC18BE898E062E0B7
:1018700072E04FEC57E025E030E030C080918B08FB
:1018800090918C086FE471E048EE53E02FEC37E064
:1018900006E010E0A2E0EA2EF12C0E94E10F40C128
:1018A0002091CA083091CB082730310534F080E010
:1018B0000E947A0F88E090E0CDC084E190E0289FFC
:1018C000B001299F700D389F700D11246B567A4F0F
:1018D0008BE898E04FEC57E027E030E00E94970F4C
:1018E0001FC180918B0890918C086FE471E040EDEE
:1018F00057E02FEC37E006E010E0F6E0EF2EF12C99
:101900000E94E10F882309F40BC18091CA089091CD
:10191000CB0801969093CB088093CA0801C10E941E
:10192000870090938C0880938B088CE190E09093D3
:10193000D0078093CF0788E090E04EC00E948700D8
:1019400020918B0830918C088C01021B130B60E6F0
:101950007AEE80E090E00E9490000817190738F0B6
:1019600089E090E09093D0078093CF0735C08091B5
:101970006409882309F4D4C08091D207882309F42C
:10198000CFC08AE090E066C00E94870090938C08E8
:1019900080938B088091D1078F5F8093D10783302C
:1019A00014F014E601C010E08CE190E09093D007B1
:1019B0008093CF07B6C08BE090E04CC081E090E010
:1019C0009093BA078093B9078DE190E09093D00788
:1019D0008093CF078BE090E09093C1078093C0077E
:1019E0009FC00E942A092091B9073091BA07882325
:1019F00059F02B32310509F093C01092BA071092BA
:101A0000B9078CE090E026C02A32310509F088C081
:101A10001092BA071092B90769C081E090E09093E4
:101A2000B8078093B70780E290E014C00E94870A4D
:101A30002091B7073091B807882389F02B32310500
:101A400009F06EC00E94450F1092B8071092B707B8
:101A50008DE090E09093D0078093CF0761C02A3249
:101A6000310509F05DC00E94450F1092B807109231
:101A7000B7078EE090E0EECF81E090E09093BD0755
:101A80008093BC0788E190E0E5CF0E94D606809164
:101A9000BC079091BD078A31910571F08A3291059A
:101AA000B1F04997E9F50E947D0F8823D9F087E0CE
:101AB00092E00E946B0E16C00E947D0F882321F0D9
:101AC0008CE192E00E946B0E109294050BC00E9474
:101AD0007D0F882321F08DE292E00E946B0E81E061
:101AE000809394051092BD071092BC078FE090E0A0
:101AF000B1CF80E190E09093C9078093C80790939D
:101B0000D0078093CF078FE090E09093C107809338
:101B1000C0071092D8071092D70702C00E94AA04EB
:101B200010E00E948C02812FCC59DF4F0FB6F89441
:101B3000DEBF0FBECDBFCF91DF911F910F91FF9000
:101B4000EF90DF90CF9008951F93CF93DF93C1E084
:101B5000D0E011E0F8940E94C00010926409109245
:101B6000C40B1092C30B1092F40C1092F30C0E9451
:101B7000360F88EE93E00E94E10E82E00E947A0F19
:101B80000E94630F87E090E00E94480E8FE290E091
:101B90000E943E0E88EB9BE00E94E10E81E00E94D5
:101BA0007A0F0E94630F0E94450F88EE93E00E9417
:101BB000E10E789482E00E947A0F0E94630F0E94E7
:101BC0007D0F882321F089E392E00E946B0E83E46D
:101BD00092E00E94780E0E944B14D093D007C093DD
:101BE000CF070E94560F0E947D0F882381F086EC5C
:101BF00098E00E94960E882351F08091C6080E94BA
:101C00001A12813021F08091C6080E94530E8091F3
:101C1000F50C8823D1F0F8948BE59CE065EC7BE033
:101C200045E950E00E94EF1D1092F50C7894109356
:101C300064090E947D0F882341F08BE59CE00E949F
:101C40006B0E88E492E00E946B0E0E94820B843639
:101C500009F480CF80916409882311F010926409FF
:101C60000E945F0F0E94630FBCCF9093900089B9D0
:101C700088E18AB986E0809395000895909390005A
:101C800089B988E18AB986E080939500579A0895CA
:101C9000909398008093990088E180939A0086E061
:101CA00080939D0008955D9BFECF8CB90895982F79
:101CB00080919B0085FFFCCF90939C0008955D9BD5
:101CC000FECF8CB90895982F80919B0085FFFCCFA3
:101CD00090939C000895FC0107C080919B0085FFB4
:101CE000FCCF90939C00319690819923B1F7089591
:101CF000CF93DF93EC0187E396E00E946B0ECE0159
:101D00000E946B0E04C05D9BFECF8CB9219688812A
:101D10008823C9F7DF91CF910895FC015F9902C034
:101D200080E008958CB1808381E00895FC0180916A
:101D30009B0087FD02C080E0089580919C00808315
:101D400081E008951F93A091FA0CB091FB0C2091B3
:101D5000FC0C3091FD0C4091F80C5091F90CE0E036
:101D6000F0E01AC040E050E020E030E004C0D901CB
:101D7000B695A7959B01B9016F5F7F4F1DEF693E37
:101D80007107A9F74F5F5F4F4436510569F73196E8
:101D900044E650E028EE3DEFE817F90718F3B0935A
:101DA000FB0CA093FA0C3093FD0C2093FC0C509389
:101DB000F90C4093F80CF093FF0CE093FE0C1F918C
:101DC0000895AF92BF92CF92DF92EF92FF920F935E
:101DD0001F93AA2797FDA095BA2FBC01CD010E94A1
:101DE000771A5B016C0126E636E646EE54E40E9463
:101DF000ED187B018C0120E030E040E85FE30E94B9
:101E0000471A88231CF461E070E024C0C801B701C0
:101E100020E03FEF4FE757E40E94E7191816B4F4AB
:101E2000C601B50120E030E040E251E40E94ED1827
:101E30000E94171788EB90E005C0FC013197F1F77D
:101E40006150704061157105C1F707C0C801B70145
:101E50000E941717CB010197F1F71F910F91FF9087
:101E6000EF90DF90CF90BF90AF9008958EE1809378
:101E700064008FEF81BB12B81092610082E0809302
:101E8000650080EF82BB13B8089580914B0281609A
:101E900080934B0282BB8CED95E00E94E10E809115
:101EA0004B028E7F80934B0282BB089581B1809557
:101EB000807F9091C80889278093F20C08958091C3
:101EC0004B0282BB08958091F10C880F880F880F18
:101ED000816080958093650008959091F10C982B16
:101EE0009093F10C089580959091F10C9823909324
:101EF000F10C08958093F10C089581E00895CF923C
:101F0000DF92EF92FF920F931F938C016B017A0186
:101F10000E948700F80191838083F601F182E082BC
:101F20001F910F91FF90EF90DF90CF900895CF9287
:101F3000DF92EF92FF920F931F936C01CB017A0116
:101F400089010E94780E0E948700F60191838083A8
:101F5000F7011183008381E01F910F91FF90EF90B3
:101F6000DF90CF9008958F929F92AF92BF92CF92C1
:101F7000DF92EF92FF920F931F93CF93DF938C0129
:101F80006B014A01E9010E9487005C01EE24FF24F5
:101F9000C701B6010E949000A01AB10AA816B9069E
:101FA00018F0F401D183C083DF91CF911F910F917D
:101FB000FF90EF90DF90CF90BF90AF909F908F9069
:101FC00008954F925F926F927F928F929F92AF92FD
:101FD000BF92CF92DF92EF92FF920F931F93CF9316
:101FE000DF936C013B014A01E90128010E9487004F
:101FF0008C01AA24BB24C501B4010E9490000C19D5
:102000001D090817190720F0F982E88284E010C042
:1020100080916409882359F08BE59CE0B3010E940C
:10202000FE1D009721F05982488281E001C080E0C6
:10203000DF91CF911F910F91FF90EF90DF90CF90A4
:10204000BF90AF909F908F907F906F905F904F90D8
:10205000089562E476E00E94FE1D9C0180E0232B3F
:1020600009F081E0089565E476E00E94FE1D9C0180
:1020700080E0232B09F081E008955F9902C081E0A0
:1020800008959CB19093C70880919B0085FFFCCF79
:1020900090939C004091C30B5091C40B4139510562
:1020A0006CF080919B0085FFFCCF89E380939C00BE
:1020B0001092C40B1092C30B8AE00895FA01EB59F9
:1020C000F64F9083141615061CF59A0121503040E6
:1020D000F901EB59F64F80818D30D1F49A30C1F47B
:1020E0003093C40B2093C30B10823093F40C2093D5
:1020F000F30C8BE59CE065E679E00E94EF1D109201
:10210000C40B1092C30B81E08093640980E00895B2
:102110004F5F5F4F5093C40B4093C30B82E0089511
:102120001F920F920FB60F920BB60F9211242F939E
:102130003F934F935F936F937F938F939F93AF934F
:10214000BF93EF93FF932CB18091C30B9091C40B7D
:10215000FC01EB59F64F208301969093C40B8093BA
:10216000C30B813991052CF42A30E9F484309105B0
:10217000B4F0FC01ED59F64F1082FC01EE59F64F18
:1021800080818D3009F4108285EC9BE065E679E072
:1021900045E950E00E94EF1D81E08093F50C10921C
:1021A000C40B1092C30BFF91EF91BF91AF919F9120
:1021B0008F917F916F915F914F913F912F910F90F0
:1021C0000BBE0F900FBE0F901F9018958F929F928D
:1021D000AF92BF92CF92DF92EF92FF920F931F9335
:1021E000DF93CF93CDB7DEB7C05AD0400FB6F89487
:1021F000DEBF0FBECDBF8E01055F1F4FC80160E57A
:1022000076E045E950E00E94EF1D8091C90890E01A
:102210007E010894E11CF11CB7014AE050E00E94E5
:10222000181EC801B70145E950E00E94D11DC80140
:1022300068E576E00E94B41D8091C80890E0B7017F
:102240004AE050E00E94181EC801B70145E950E07D
:102250000E94D11DC8016BE576E00E94B41DC80143
:102260000E946B0E52E0C52E5BE0D52E46E0A42EF8
:10227000B12C36E2832E912CA89CB001A99C700D44
:10228000B89C700D11246550764FC80145E950E0A7
:102290000E94EF1DC80168E576E00E94B41DF601BA
:1022A0008081992787FD9095B7014AE050E00E9410
:1022B000181EC801B70145E950E00E94D11DC801B0
:1022C00068E576E00E94B41DF6018181992787FDBB
:1022D0009095B7014AE050E00E94181EC801B7016E
:1022E00045E950E00E94D11DC80168E576E00E94F2
:1022F000B41DF6018281992787FD9095B7014AE0C8
:1023000050E00E94181EC801B70145E950E00E9444
:10231000D11DC80168E576E00E94B41DC8016BE5D7
:1023200076E00E94B41DC8010E946B0E0894A11CA7
:10233000B11C86E290E0C80ED91E9CE0A916B1043B
:1023400009F09ACFC8016EE576E045E950E00E94B9
:10235000EF1D8091B10D9091B20DB7014AE050E0B0
:102360000E94181EC801B70145E950E00E94D11D26
:10237000C80168E576E00E94B41D8091B30D90918C
:10238000B40DB7014AE050E00E94181EC801B70121
:1023900045E950E00E94D11DC8016BE576E00E943E
:1023A000B41DC8010E946B0EC80169E676E045E9DC
:1023B00050E00E94EF1D8091F10D9091F20DB70158
:1023C0004AE050E00E94181EC801B70145E950E0FC
:1023D0000E94D11DC80168E576E00E94B41D80917D
:1023E000F30D9091F40DB7014AE050E00E94181EE1
:1023F000C801B70145E950E00E94D11DC8016BE555
:1024000076E00E94B41DC8010E946B0EC056DF4FDB
:102410000FB6F894DEBF0FBECDBFCF91DF911F91F5
:102420000F91FF90EF90DF90CF90BF90AF909F9073
:102430008F900895DF93CF930F92CDB7DEB71982B7
:10244000863391F0873344F48D3259F08133F9F1BA
:102450008A3209F03FC018C0873361F08036D1F569
:1024600031C00E94E61036C08091A8069091A9065E
:10247000019705C08091A8069091A90601969093B6
:10248000A9068093A80626C09091AF0D80919B006D
:1024900085FFFCCF905D90939C0080919B0085FF11
:1024A000FCCF80E280939C009091EF0D80919B0087
:1024B00085FFFCCF905D90939C008BE596E00E9499
:1024C0006B0E08C00E94450F81E0898303C082E043
:1024D0008093640989810F90CF91DF9108958F9245
:1024E0009F92AF92BF92CF92DF92EF92FF920F93A3
:1024F0001F93DF93CF9300D00F92CDB7DEB76B0160
:102500007C0100E010E04E010894811C911C64E7FE
:10251000A62E66E0B62E34C000D000D000D0EDB7B5
:10252000FEB73196ADB7BEB712969C928E921197B8
:10253000B382A282D7018C91992787FD90959583CC
:1025400084830E94411E99812DB73EB72A5F3F4F79
:102550000FB6F8943EBF0FBE2DBF80919B0085FF44
:10256000FCCF90939C009A8180919B0085FFFCCFCB
:1025700090939C000F5F1F4F82E090E0E80EF91EE1
:102580000C151D054CF20F900F900F90CF91DF911D
:102590001F910F91FF90EF90DF90CF90BF90AF9081
:1025A0009F908F900895CF92DF92EF92FF920F93BA
:1025B0001F93DF93CF9300D00F92CDB7DEB78C017E
:1025C0006E010894C11CD11C74E7E72E76E0F72E4B
:1025D0002DC000D000D000D0EDB7FEB73196ADB71A
:1025E000BEB71296DC92CE921197F382E2829927BF
:1025F00087FD9095958384830E94411E9981EDB754
:10260000FEB736960FB6F894FEBF0FBEEDBF8091B1
:102610009B0085FFFCCF90939C009A8180919B004A
:1026200085FFFCCF90939C000F5F1F4FD8018C91CA
:10263000882379F60F900F900F90CF91DF911F9123
:102640000F91FF90EF90DF90CF900895882371F560
:10265000809162008E7F8093620080916100816032
:10266000809361008AEB91E001C0000001972FEF99
:102670008F3F9207D1F7809161008E7F8093610038
:1026800087E390E001C0000001972FEF8F3F920792
:10269000D1F780B123E831E001C000002150304083
:1026A0009FEF2F3F3907C9F781700895809162002D
:1026B0008D7F8093620080916100826080936100D1
:1026C0008AEB91E001C0000001972FEF8F3F920746
:1026D000D1F7809161008D7F8093610087E390E066
:1026E00001C0000001972FEF8F3F9207D1F780B113
:1026F00023E831E001C00000215030409FEF2F3F20
:102700003907C9F782700895982F6623F1F48091F4
:1027100062008E7F8093620080916100816080936F
:102720006100992329F0809161008E7F8093610080
:1027300087E390E001C0000001972FEF8F3F9207E1
:10274000D1F7809161008E7F1DC0809162008D7FE6
:102750008093620080916100826080936100992380
:1027600029F0809161008D7F8093610087E390E084
:1027700001C0000001972FEF8F3F9207D1F78091A2
:1027800061008D7F809361000895882329F58091F1
:1027900062008E7F809362008091610081608093EF
:1027A0006100809161008E7F809361008CE090E0F9
:1027B00001C0000001972FEF8F3F9207D1F780B142
:1027C00029E230E001C00000215030409FEF2F3F50
:1027D0003907C9F781700895809162008D7F8093D9
:1027E000620080916100826080936100809161004D
:1027F0008D7F809361008CE090E001C00000019724
:102800002FEF8F3F9207D1F780B129E230E001C06E
:102810000000215030409FEF2F3F3907C9F790E06B
:102820009695879581700895FF920F931F93F82EC8
:1028300008E010E00AC08F2D0E94C513912F9695D5
:10284000182F179511271795192B0150A0F7812FD5
:102850001F910F91FF900895FF920F931F93082FE0
:10286000F62E18E006C0802F81706F2D0E94841311
:1028700006951150C0F71F910F91FF900895809118
:102880004B028F7B80934B02089580914B028064B2
:1028900080934B020895EFEAFDE0DF019B9627E16C
:1028A00030E089E190E041E01182108217821086C9
:1028B000118612861C9212961C92129713961C92E5
:1028C000139714961C92149715961C9215973383A0
:1028D0002283958384831386148611961C92119704
:1028E00017961C9217974683E05CFF4FA05CBF4F82
:1028F0005EE0EF32F507C1F60895DC0120E040E02C
:1029000050E098E115C0FD01E40FF51FE08138E0CB
:102910008E2F8227F82FF17080FD29272695F13020
:1029200009F42068315011F0E695F2CF4F5F5F4F08
:102930004617570741F7822F08956F927F928F9223
:102940009F92AF92BF92CF92DF92EF92FF920F933E
:102950001F93DF93CF93CDB7DEB7CA5AD0400FB6DF
:10296000F894DEBF0FBECDBF4C011B8655EBE52EA4
:102970005DE0F52E45E2A42EB12CAE0CBF1CCC249C
:10298000DD248E01055F1F4F3E010894611C711C00
:10299000F7018081882309F44CC0C80169E776E01B
:1029A0000E94B41DC6010196B3014AE050E00E94A6
:1029B000181EC801B3010E94B41DC8016BE776E080
:1029C0000E94B41DF5018081813021F4C8016DE7BA
:1029D00076E011C0F5018681813021F4C80164E8F8
:1029E00076E009C0B60136E0660F771F3A95E1F749
:1029F0006454724FC8010E94B41DC8016BE876E0B0
:102A00000E94B41DF7018181813029F4C8016EE86C
:102A100076E00E94B41DF7018281813029F4C8015B
:102A200067E976E00E94B41DC80160EA76E00E9482
:102A3000B41D0894C11CD11C80E490E0E80EF91E7E
:102A4000A80EB91E92E0C916D10409F0A1CFC401A5
:102A5000BE01655F7F4F0E94CA1DC655DF4F0FB68E
:102A6000F894DEBF0FBECDBFCF91DF911F910F91C4
:102A7000FF90EF90DF90CF90BF90AF909F908F909E
:102A80007F906F9008950F931F938091D707909137
:102A9000D8078130910519F04C9771F512C00E944A
:102AA00087009093230E8093220E80914B028F7BA0
:102AB00080934B028CE190E09093D8078093D707E6
:102AC0001BC00E9487002091220E3091230E8C01A2
:102AD000021B130B68E97AE380E090E00E9490000B
:102AE0000817190748F080914B02806480934B02CD
:102AF0001092D8071092D7071F910F910895CF9287
:102B0000DF92EF92FF920F931F93CF93DF937C019D
:102B10006C0176E0CC0CDD1C7A95E1F7E601CE5530
:102B2000D24F8D859E858D31910509F468C08E3117
:102B300091053CF48130910581F04C9709F06DC10D
:102B40001EC08F31910509F4D7C08F3191050CF467
:102B500096C0809709F061C14EC18E2D0E94261348
:102B60008CEC6E2D0E942C1484E46E2D0E942C148B
:102B70000E9487009C878B878CE190E094C08E2D0B
:102B80000E94C513882331F01BAE1AAE18AE8DE13A
:102B900090E089C00E9487002B853C858C01021B38
:102BA000130B64E670E080E090E00E9490008017D4
:102BB000910708F032C11E861D869AAD9431D4F07B
:102BC0008BAD981761F081E088AF89AF1C8A1D8AB0
:102BD000C6018454924F62EA76E00E94CA1DF70152
:102BE00066E0EE0FFF1F6A95E1F7EE55F24F82ADFA
:102BF00083AF03C09BAF9F5F9AAF81E00FC1DE2C14
:102C00008E2D0E9426138CEC6E2D0E942C148EEBC0
:102C10006E2D0E942C148E2D0E94141488838E2DEC
:102C20000E9414148983F70156E0EE0FFF1F5A9596
:102C3000E1F7EC55F24F988190838B83870146E052
:102C4000000F111F4A95E1F70A55124FC2E0D0E07C
:102C50008D2D0E941414D8018D938D012196C930B9
:102C6000D105B1F736E0EE0CFF1C3A95E1F7E2EA48
:102C7000FDE0EE0EFF1E8EE190E0D701B7C0C70168
:102C800026E0880F991F2A95E1F78C55924F68E04E
:102C900070E00E947D149A85891741F41DAE1CAE28
:102CA0001EAE8FE190E09E878D87B7C0C601845429
:102CB000924F62EA76E00E94CA1D1E861D869CAD78
:102CC000FE01FD9694319CF08081981729F081E0F7
:102CD0008EAF8FAF1C8A1D8AF70106E0EE0FFF1F33
:102CE0000A95E1F7EE55F24F84AD85AF03C09083AE
:102CF0009F5F9CAF82E092C02881398114E03595B6
:102D000027951A95E1F7398328838C898E8B8D89D5
:102D10008F8B8F859889281739071CF481E08C8B5D
:102D200001C01C8AF701B6E0EE0FFF1FBA95E1F76C
:102D3000EE55F24F20813181818992898217930764
:102D40001CF481E0858B01C0158AF701A6E0EE0F27
:102D5000FF1FAA95E1F7EE55F24F8689882321F4EB
:102D60008489813009F4808FF70176E0EE0FFF1F30
:102D70007A95E1F7EE55F24F8789882321F485890A
:102D8000813009F4818F00D000D000D0EDB7FEB7BC
:102D90003196870166E0000F111F6A95E1F7C801BF
:102DA0008454924FADB7BEB712969C938E931197F1
:102DB00084EA96E0938382830E55124FD8018D9159
:102DC0009C91958384830E94411EEDB7FEB7369691
:102DD0000FB6F894FEBF0FBEEDBF0E948700D8016A
:102DE0001C969C938E931B9780E290E01E969C937A
:102DF0008E931D9712C00E9487002B853C858C0105
:102E0000021B130B68E873E180E090E00E949000E1
:102E10008017910710F41E861D8680E0DF91CF9108
:102E20001F910F91FF90EF90DF90CF900895EF9258
:102E3000FF920F931F937B018C0120E030E040E074
:102E40005FE40E94171A88238CF0C801B70120E0C4
:102E500030E040E05FE40E948F180E94D51A9B0189
:102E6000AC01205030404040504806C0C801B70176
:102E70000E94D51A9B01AC01B901CA011F910F91A3
:102E8000FF90EF900895A0E0B0E0E9E4F7E10C9442
:102E90005F1DDC012B01FA019C91923008F439C1CD
:102EA000EB018881823008F433C1943069F48430B6
:102EB00009F02FC111969C9111978981981709F4F7
:102EC00028C1AAEAB6E025C1843009F421C18230C4
:102ED000A9F4923009F01DC19A01AD0188E0EA0120
:102EE0000990AE01E90109929E018150C1F7E2010A
:102EF000898111969C918923818308C1923009F4BC
:102F000007C112962D903C901397EB018A819B810B
:102F10001496AD90BD90CD90DC901797EC80FD801D
:102F20000E811F819101281B390BB90137FF04C0A5
:102F300066277727621B730B603271050CF061C046
:102F4000121613066CF537014801062E04C096943C
:102F50008794779467940A94D2F721E030E040E0B8
:102F600050E004C0220F331F441F551F6A95D2F74B
:102F700021503040404050402E213F2140235123DA
:102F8000211531054105510521F021E030E040E0F7
:102F900050E079018A01E628F728082919293CC060
:102FA000232BD1F1260E371E35014601062E04C013
:102FB00096948794779467940A94D2F721E030E04E
:102FC00040E050E004C0220F331F441F551F6A9594
:102FD000D2F721503040404050402A213B214C2123
:102FE0005D21211531054105510521F021E030E039
:102FF00040E050E059016A01A628B728C828D9281E
:103000000BC0821593052CF01C01AA24BB2465017A
:1030100003C0EE24FF24870111969C91D2011196E2
:103020008C91981709F445C0992339F0A8019701AC
:103030002A193B094C095D0906C0A60195012E1904
:103040003F09400B510B57FD08C011823382228289
:1030500024833583468357831DC081E08183338277
:10306000228288279927DC01821B930BA40BB50BC6
:1030700084839583A683B7830DC0220F331F441F1B
:10308000551F24833583468357838281938101971B
:10309000938382832481358146815781DA01C90176
:1030A0000197A109B1098F5F9F4FAF4FBF4328F32D
:1030B0000BC0918333822282EA0CFB1C0C1D1D1D68
:1030C000E482F5820683178383E08083248135813F
:1030D0004681578157FF1AC0C901AA2797FDA095BD
:1030E000BA2F81709070A070B07056954795379543
:1030F0002795822B932BA42BB52B84839583A683B2
:10310000B78382819381019693838283DF0101C01B
:10311000D201CD01CDB7DEB7E2E10C947B1DA0E278
:10312000B0E0E5E9F8E10C946B1D69837A838B8349
:103130009C832D833E834F835887E9E0EE2EF12C4C
:10314000EC0EFD1ECE010196B7010E944D1C8E01B2
:103150000F5E1F4FCE010596B8010E944D1C8A8953
:1031600091E089278A8BC701B801AE01475E5F4FA6
:103170000E9443170E94781BA096E6E00C94871DDE
:10318000A0E2B0E0E6ECF8E10C946B1D69837A8371
:103190008B839C832D833E834F835887F9E0EF2EEA
:1031A000F12CEC0EFD1ECE010196B7010E944D1CC4
:1031B0008E010F5E1F4FCE010596B8010E944D1C77
:1031C000C701B801AE01475E5F4F0E9443170E94DE
:1031D000781BA096E6E00C94871DA0E2B0E0E3EF38
:1031E000F8E10C945F1D69837A838B839C832D8324
:1031F0003E834F835887CE010196BE01675F7F4FA4
:103200000E944D1CCE010596BE016F5E7F4F0E944D
:103210004D1C9985923088F089898230C8F09430AD
:1032200019F4823051F404C0843029F4923081F4CE
:103230008AEA96E0C6C0923049F420E09A858A89ED
:10324000981321E02A87CE010996BBC0823049F449
:1032500020E09A858A89981321E02A8BCE01419635
:10326000B0C02D843E844F8458886D887E888F88B6
:10327000988CEE24FF248701AA24BB24650140E03A
:1032800050E060E070E0E0E0F0E0C101817090703B
:10329000892BE9F0E60CF71C081D191D9A01AB01FA
:1032A0002A0D3B1D4C1D5D1D80E090E0A0E0B0E0CC
:1032B000E614F7040805190520F481E090E0A0E089
:1032C000B0E0BA01A901480F591F6A1F7B1FAA0C61
:1032D000BB1CCC1CDD1C97FE08C081E090E0A0E088
:1032E000B0E0A82AB92ACA2ADB2A3196E032F105D1
:1032F00049F0660C771C881C991C569447943794A7
:103300002794C3CFFA85EA892B893C898B859C85D4
:10331000280F391F2E5F3F4F17C0CA018170907070
:10332000892B61F016950795F794E79480E090E07B
:10333000A0E0B0E8E82AF92A0A2B1B2B76956795BE
:10334000579547952F5F3F4F77FDE7CF0CC0440F50
:10335000551F661F771F17FD4160EE0CFF1C001FF5
:10336000111F21503040403090E0590790E069072C
:1033700090E4790760F32B8F3C8FDB01CA018F77D4
:103380009070A070B07080349105A105B10561F412
:1033900047FD0AC0E114F1040105110529F0405C64
:1033A0005F4F6F4F7F4F40781A8EFE1711F081E00C
:1033B0008A8F4D8F5E8F6F8F78A383E0898FCE01C8
:1033C00049960E94781BA096E2E10C947B1DA8E12F
:1033D000B0E0EDEEF9E10C946B1D69837A838B8389
:1033E0009C832D833E834F83588789E0E82EF12C00
:1033F000EC0EFD1ECE010196B7010E944D1C8E0100
:103400000F5E1F4FCE010596B8010E944D1C8985A5
:10341000823040F08989823028F0C701B8010E94CB
:10342000C51C01C08FEF6896E6E00C94871DA8E1EB
:10343000B0E0EDE1FAE10C946B1D69837A838B8334
:103440009C832D833E834F83588789E0E82EF12C9F
:10345000EC0EFD1ECE010196B7010E944D1C8E019F
:103460000F5E1F4FCE010596B8010E944D1C898545
:10347000823040F08989823028F0C701B8010E946B
:10348000C51C01C08FEF6896E6E00C94871DA8E18B
:10349000B0E0EDE4FAE10C946B1D69837A838B83D1
:1034A0009C832D833E834F83588789E0E82EF12C3F
:1034B000EC0EFD1ECE010196B7010E944D1C8E013F
:1034C0000F5E1F4FCE010596B8010E944D1C8985E5
:1034D000823040F08989823028F0C701B8010E940B
:1034E000C51C01C081E06896E6E00C94871DA8E049
:1034F000B0E0EDE7FAE10C94681D9B01AC0183E0BC
:103500008983DA01C9018827B7FD83959927AA27FE
:10351000BB27B82E211531054105510519F482E06C
:1035200089833AC08823A9F0203080E0380780E002
:10353000480780E8580729F460E070E080E09FECDD
:1035400030C0EE24FF248701E21AF30A040B150BA6
:1035500002C079018A018EE1C82ED12CDC82CB8297
:10356000ED82FE820F831887C801B7010E94291BD4
:1035700001971816190684F4082E04C0EE0CFF1CDF
:10358000001F111F0A94D2F7ED82FE820F83188765
:10359000C81AD90ADC82CB82BA82CE0101960E9477
:1035A000781B2896E9E00C94841DACE0B0E0EBEDCC
:1035B000FAE10C946F1D69837A838B839C83CE011F
:1035C0000196BE016B5F7F4F0E944D1C8D81823042
:1035D00061F1823050F1843021F48E81882351F1E1
:1035E0002EC02F81388537FD20C06E812F313105E7
:1035F0001CF06623F9F023C08EE190E0821B930B50
:1036000029853A854B855C8504C056954795379545
:1036100027958A95D2F76623B1F05095409530955D
:1036200021953F4F4F4F5F4F0EC020E030E040E00C
:1036300050E009C02FEF3FEF4FEF5FE704C020E0FD
:1036400030E040E050E8B901CA012C96E2E00C9469
:103650008B1DEF92FF920F931F937B018C0180E0F3
:10366000E81680E0F80681E0080780E0180788F493
:103670008FEFE816F1040105110531F028F088E01C
:1036800090E0A0E0B0E017C080E090E0A0E0B0E003
:1036900012C080E0E81680E0F80680E0080781E0CC
:1036A000180728F088E190E0A0E0B0E004C080E1D5
:1036B00090E0A0E0B0E020E230E040E050E0281BE5
:1036C000390B4A0B5B0B04C016950795F794E794EA
:1036D0008A95D2F7F701EE54F94F8081281B310902
:1036E00041095109C9011F910F91FF90EF90089571
:1036F000DF92EF92FF920F931F93FC01E480F5801D
:1037000006811781D1808081823048F480E090E08A
:10371000A0E1B0E0E82AF92A0A2B1B2BA5C08430CF
:1037200009F49FC0823021F4EE24FF24870105C0F4
:10373000E114F1040105110519F4E0E0F0E096C090
:10374000628173819FEF623879070CF05BC022E8D9
:103750003FEF261B370B2A3131052CF020E030E0FB
:1037600040E050E02AC0B801A701022E04C07695BF
:103770006795579547950A94D2F781E090E0A0E0CD
:10378000B0E004C0880F991FAA1FBB1F2A95D2F76B
:103790000197A109B1098E219F21A023B123009790
:1037A000A105B10521F081E090E0A0E0B0E09A0130
:1037B000AB01282B392B4A2B5B2BDA01C9018F7700
:1037C0009070A070B07080349105A105B10539F4F6
:1037D00027FF09C0205C3F4F4F4F5F4F04C0215C63
:1037E0003F4F4F4F5F4FE0E0F0E02030A0E03A075E
:1037F000A0E04A07A0E45A0710F0E1E0F0E0790108
:103800008A0127C06038710564F5FB01E158FF4F5C
:10381000D801C7018F779070A070B0708034910587
:10382000A105B10539F4E7FE0DC080E490E0A0E009
:10383000B0E004C08FE390E0A0E0B0E0E80EF91E35
:103840000A1F1B1F17FF05C016950795F794E794ED
:10385000319687E016950795F794E7948A95D1F706
:1038600005C0EE24FF248701EFEFF0E06E2F67958F
:1038700066276795902F9F77D794DD24D7948E2F56
:103880008695492F462B582F5D29B701CA011F91F4
:103890000F91FF90EF90DF900895FC01DB014081D4
:1038A00051812281622F6F7770E0221F2227221F11
:1038B0009381892F880F822B282F30E0991F992719
:1038C000991F11969C93119721153105A9F5411562
:1038D00051056105710511F482E037C082E89FEF60
:1038E00013969C938E9312979A01AB0167E0220F77
:1038F000331F441F551F6A95D1F783E08C930DC089
:10390000220F331F441F551F12968D919C911397C0
:10391000019713969C938E931297203080E038077E
:1039200080E0480780E4580758F314962D933D93A0
:103930004D935C93179708952F3F310579F4411506
:1039400051056105710519F484E08C93089564FFB5
:1039500003C081E08C9312C01C9210C02F573040DE
:1039600013963C932E93129783E08C9387E0440F39
:10397000551F661F771F8A95D1F7706414964D9373
:103980005D936D937C93179708951F93DC01FB0162
:103990009C91923008F447C08081823008F443C083
:1039A000943051F411961C91843099F58181682FDF
:1039B00070E0611B71093FC0843021F0923031F416
:1039C0008230B9F18181882389F12DC011961C9133
:1039D00011978230F1F081811817D9F412962D9148
:1039E0003C911397828193818217930794F0281753
:1039F0003907BCF014968D919D910D90BC91A02D2E
:103A00002481358146815781281739074A075B078A
:103A100018F4112341F00AC082179307A407B507D1
:103A200040F4112319F061E070E005C06FEF7FEF03
:103A300002C060E070E0CB011F910895629FD00149
:103A4000739FF001829FE00DF11D649FE00DF11D59
:103A5000929FF00D839FF00D749FF00D659FF00D08
:103A60009927729FB00DE11DF91F639FB00DE11DF5
:103A7000F91FBD01CF0111240895A1E21A2EAA1B3E
:103A8000BB1BFD010DC0AA1FBB1FEE1FFF1FA2170E
:103A9000B307E407F50720F0A21BB30BE40BF50B0B
:103AA000661F771F881F991F1A9469F76095709594
:103AB000809590959B01AC01BD01CF0108952F9297
:103AC0003F924F925F926F927F928F929F92AF92AE
:103AD000BF92CF92DF92EF92FF920F931F93CF93FB
:103AE000DF93CDB7DEB7CA1BDB0B0FB6F894DEBF92
:103AF0000FBECDBF09942A88398848885F846E84B8
:103B00007D848C849B84AA84B984C884DF80EE8001
:103B1000FD800C811B81AA81B981CE0FD11D0FB60A
:103B2000F894DEBF0FBECDBFED010895FC018827DC
:103B30009927E89421912032E9F3293010F02E30B2
:103B4000C8F32B3241F02D3239F4689404C00E943E
:103B5000391E820F911D219120532A30C0F31EF48B
:103B6000909581959F4F0895FB01DC010D900020F9
:103B7000E9F7119701900D920020E1F70895FC01FB
:103B80008191861721F08823D9F7992708953197D5
:103B9000CF010895FB01DC0101900D920020E1F7B7
:103BA0000895FB01DC010D900020E9F711974150C9
:103BB000504028F0019000200D92C9F708951C9202
:103BC0000895FB01DC014150504030F08D9101908F
:103BD000801919F40020B9F7881B990B0895FB018F
:103BE000DC014150504048F001900D920020C9F78F
:103BF00001C01D9241505040E0F70895FB015191E2
:103C00005523A9F0BF01DC014D9145174111E1F7A2
:103C100059F4CD010190002049F04D91401541111A
:103C2000C9F3FB014111EFCF81E090E001970895C6
:103C3000FB019F01E8944230C4F04532B4F44A30AD
:103C400029F497FB1EF4909581959F4F642F772759
:103C50000E942821805D8A330CF0895D8193CB011D
:103C60000097A1F716F45DE251931082C9010C94FC
:103C70008E207AE0979F902D879F802D910D1124A3
:103C800008950F931F93DF93CF93CDB7DEB72E9791
:103C90000FB6F894DEBF0FBECDBF0D891E8986E03A
:103CA0008C831A8309838FEF9FE79E838D839E0108
:103CB000275E3F4FCE0101966F89788DA9010E9442
:103CC000721E2F813885020F131FF80110822E9665
:103CD0000FB6F894DEBF0FBECDBFCF91DF911F911D
:103CE0000F9108952F923F924F925F926F927F9221
:103CF0008F929F92AF92BF92CF92DF92EF92FF92FC
:103D00000F931F93DF93CF93CDB7DEB72B970FB6EB
:103D1000F894DEBF0FBECDBF3C012B015A01FC0160
:103D200017821682838181FD03C06FEF7FEFC6C1CA
:103D30009AE0892E1E010894211C311CF301238175
:103D4000F20123FD859123FF81912F01882309F43E
:103D5000B2C1853239F423FD859123FF81912F0172
:103D6000853229F490E0B3010E949E20E7CF982F7E
:103D7000FF24EE249924FFE1FF15D0F09B3269F077
:103D80009C3228F4903259F0933291F40EC09D3257
:103D900049F0903369F441E024C052E0F52A84E010
:103DA000F82A28C098E0F92A25C0E0E1FE2A22C0BE
:103DB000F7FC29C0892F80538A3070F4F6FE05C0C5
:103DC000989C902C1124980E15C0E89CE02C11248E
:103DD000E80EF0E2FF2A0EC09E3229F4F6FC6BC119
:103DE00040E4F42A07C09C3619F450E8F52A02C0D2
:103DF000983649F4F20123FD959123FF91912F010B
:103E0000992309F0B8CF892F8554833018F0805258
:103E1000833038F444E050E0A40EB51E5FE35983CC
:103E20000FC0933631F0933779F0933509F056C0CF
:103E300020C0F5018081898342E050E0A40EB51EC8
:103E4000610101E010E012C0F501C080D180F6FCF4
:103E500003C06FEF7FEF02C0692D70E042E050E0D9
:103E6000A40EB51EC6010E9483208C015FE7F522D7
:103E700014C0F501C080D180F6FC03C06FEF7FEF66
:103E800002C0692D70E042E050E0A40EB51EC601EC
:103E90000E9478208C0150E8F52AF3FE07C01AC072
:103EA00080E290E0B3010E949E20EA948E2D90E083
:103EB00008171907A8F30EC0F601F7FC8591F7FE65
:103EC00081916F0190E0B3010E949E20E110EA947D
:103ED000015010400115110579F7EAC0943611F030
:103EE000993669F5F7FE08C0F501208131814281DC
:103EF000538184E090E00AC0F501808191819C01AA
:103F0000442737FD4095542F82E090E0A80EB91E5B
:103F10009FE6F92257FF09C05095409530952195AD
:103F20003F4F4F4F5F4FE0E8FE2ACA01B901A101A0
:103F30002AE030E00E94CA20D82ED21840C095371F
:103F400029F41F2D1F7E2AE030E01DC01F2D197F90
:103F50009F3661F0903720F4983509F0ACC00FC05F
:103F6000903739F0983709F0A6C004C028E030E057
:103F70000AC0106114FD146020E130E004C014FD9B
:103F8000166020E132E017FF08C0F5016081718101
:103F90008281938144E050E008C0F50180819181E5
:103FA000BC0180E090E042E050E0A40EB51EA1010B
:103FB0000E94CA20D82ED2188FE7F82EF122F6FEE2
:103FC0000BC05EEFF522D91438F4F4FE07C0F2FC02
:103FD00005C08FEEF82202C01D2D01C0192DF4FE80
:103FE0000DC0FE01ED0DF11D8081803319F499EEB5
:103FF000F92208C01F5FF2FE05C003C08F2D86782E
:1040000009F01F5F0F2DF3FC14C0F0FE0FC01E154A
:1040100010F09D2C0BC09D2C9E0C911A1E2D06C0DD
:1040200080E290E0B3010E949E201F5F1E15C0F346
:1040300004C01E1510F4E11A01C0EE2404FF0FC0E5
:1040400080E390E0B3010E949E2002FF1DC001FDAD
:1040500003C088E790E00EC088E590E00BC0802F99
:10406000867891F001FF02C08BE201C080E2F7FC8C
:104070008DE290E0B3010E949E2006C080E390E0B4
:10408000B3010E949E209A94D914C0F3DA94F101EE
:10409000ED0DF11D808190E0B3010E949E20DD2096
:1040A000A9F706C080E290E0B3010E949E20EA9446
:1040B000EE20C1F743CEF30166817781CB012B96C9
:1040C0000FB6F894DEBF0FBECDBFCF91DF911F9129
:1040D0000F91FF90EF90DF90CF90BF90AF909F90A7
:1040E0008F907F906F905F904F903F902F900895AA
:1040F000FC010590615070400110D8F780959095B3
:104100008E0F9F1F0895FC016150704001900110B7
:10411000D8F7809590958E0F9F1F0895DC01FC01C4
:10412000672F71917723E1F7329704C07C916D93EB
:1041300070836291AE17BF07C8F308950F931F9362
:10414000CF93DF938C01EB018B8181FF1BC082FF3A
:104150000DC02E813F818C819D812817390764F421
:10416000E881F9810193F983E88306C0E885F98540
:10417000802F0995892B31F48E819F8101969F8331
:104180008E8302C00FEF1FEFC801DF91CF911F9107
:104190000F910895FA01AA27283051F1203181F1B9
:1041A000E8946F936E7F6E5F7F4F8F4F9F4FAF4F3F
:1041B000B1E03ED0B4E03CD0670F781F891F9A1F52
:1041C000A11D680F791F8A1F911DA11D6A0F711D06
:1041D000811D911DA11D20D009F468943F912AE012
:1041E000269F11243019305D3193DEF6CF010895FA
:1041F000462F4770405D4193B3E00FD0C9F7F6CF2B
:10420000462F4F70405D4A3318F0495D31FD4052F2
:10421000419302D0A9F7EACFB4E0A6959795879588
:1042200077956795BA95C9F7009761057105089567
:104230009B01AC010A2E0694579547953795279513
:10424000BA95C9F7620F731F841F951FA01D0895AB
:10425000AA1BBB1B51E107C0AA1FBB1FA617B707AC
:1042600010F0A61BB70B881F991F5A95A9F78095C8
:0C4270009095BC01CD010895F894FFCF9B
:10427C0061742B6370696E3F002B4350494E3A209A
:10428C005245414459000A0D002B434C49503A20E9
:10429C0022006174680D0A0052494E47004E4F20AF
:1042AC00434152524945520061742B636D67733D13
:1042BC002200220D0A001A002B434D47533A004F9F
:1042CC004B00536E7961746F212020004E61727522
:1042DC007368656E206B6F6E7475720020310020F0
:1042EC00320020330020340020004F6872616E6170
:1042FC0021202000414C41524D204E617275736853
:10430C00656E206B6F6E7475722000414C41524D7E
:10431C0021200061742B637573643D312C220022C3
:10432C002C31350D0A002B435553443A200041548F
:10433C002B435042533D22534D220D0A0041542B26
:10434C00435042523D000D0A002B435042523A203A
:10435C00003030300041542B435042573D002C006C
:10436C002C2C0043616C6C20526561647900256CC7
:10437C00640041540D0A0063737743616E74436F9C
:10438C006E6E65637442696C6C0D0A006373774CD6
:10439C006974746C654D6F6E65790D0A0063737783
:1043AC004F4B0D0A00010001000D0A5354415254A9
:1043BC000D0A0041540D0A000D0A00F022536574D9
:1043CC0074696E677322000000000000000000009A
:1043DC0000000000000000000000000000000022AF
:1043EC003138303030303030220000000000000016
:1043FC0000000000000000000000000000000000B1
:10440C000000224E756D5365747473220000000019
:10441C000000000000000000000000000000000090
:10442C0000000000002231333333333330302200AC
:10443C000000000000000000000000000000000070
:10444C000000000000000000225573657253657473
:10445C007473220000000000000000000000000047
:10446C000000000000000000000000223135313552
:10447C0030333033313231323030303022000000C2
:10448C0000000000000000000000000000002252AC
:10449C0065736572762200000000000000000000C9
:1044AC000000000000000000000000000000000000
:1044BC00002230303022000000000000000000001C
:1044CC0000000000000000000000000000000000E0
:1044DC000000000022446174636831220000000077
:1044EC0000000000000000000000000000000000C0
:1044FC000000000000000022303030353030333501
:10450C00220000000000000000000000000000007D
:10451C000000000000000000000022446174636889
:10452C00322200000000000000000000000000002B
:10453C0000000000000000000000000000223130EC
:10454C003031303034352200000000000000000013
:10455C00000000000000000000000000000000004F
:10456C00224F70657261746F72312200000000007E
:10457C00000000000000000000000000000000002F
:10458C00000000222B333830393133313835323496
:10459C0036220000000000000000000000000000B7
:1045AC00000000000000224F70657261746F72325F
:1045BC0022000000000000000000000000000000CD
:1045CC00000000000000000000223030302200000B
:1045DC0000000000000000000000000000000000CF
:1045EC00000000000000000000000000224F706579
:1045FC007261746F72332200000000000000000032
:10460C00000000000000000000000000000000227C
:10461C0030303022000000000000000000000000DC
:10462C00000000000000000000000000000000007E
:10463C000000224F70657261746F723422000000AA
:10464C00000000000000000000000000000000005E
:10465C00000000000022303030220000000000007A
:10466C00000000000000000000000000000000003E
:10467C000000000000000000224F70657261746F32
:10468C007235220000000000000000000000000055
:10469C00000000000000000000000022303030223A
:1046AC0000000000000000000000000000000000FE
:1046BC000000000000000000000000000000224F7D
:1046CC0070657261746F7236220000000000000089
:1046DC0000000000000000000000000000000000CE
:1046EC0000223030302200000000000000000000EA
:1046FC0000000000000000000000000000000000AE
:10470C00000000000161742B6970723D3936303045
:10471C000D0A0000000000000061742B63726567D5
:10472C003D310D0A00000000000000000061742BF8
:10473C00636F6C703D310D0A00000000000000003A
:10474C000061742B636C69703D310D0A0000000030
:10475C00000000000061742B636D67663D310D0A2B
:10476C00000000000000000000617465300D0A00BC
:10477C000000000000000000000000000061740D4B
:10478C000A00000000000000000000000000000013
:10479C000080250000184700000096000000E10092
:1047AC000000C201000500546F204D6F64656D2D33
:1047BC003E004F4B002B434D54493A22534D22009F
:1047CC0053657474733A20002C20000A0D004D6957
:1047DC006E4D617854313A20004D696E4D617854BC
:1047EC00323A2000253032580074003D0045727278
:1047FC004E4F4E00457272435243003B20004D49D0
:10480C004E2121213B20004D41582121213B2000EC
:10481C0023003F0025644300170000000000000047
:10482C000000000102020303030304040404040453
:10483C00040405050505050505050505050505051E
:10484C0005050606060606060606060606060606FE
:10485C0006060606060606060606060606060606EC
:10486C0006060707070707070707070707070707CE
:10487C0007070707070707070707070707070707BC
:10488C0007070707070707070707070707070707AC
:10489C00070707070707070707070707070707079C
:1048AC00070708080808080808080808080808087E
:1048BC00080808080808080808080808080808086C
:1048CC00080808080808080808080808080808085C
:1048DC00080808080808080808080808080808084C
:1048EC00080808080808080808080808080808083C
:1048FC00080808080808080808080808080808082C
:10490C00080808080808080808080808080808081B
:10491C00080808080808080808080808080808080B
:02492C00080879
:00000001FF
